:100000000C9478030C94A0030C94A0030C94A0030C
:100010000C94A0030C94A0030C94A0030C94A003D4
:100020000C94A0030C94A0030C94A0030C94A003C4
:100030000C9484150C94A0030C9457160C94081778
:100040000C94A0030C94A0030C94A0030C94A003A4
:100050000C94A0030C94A0030C94A0030C94A00394
:100060000C94A0030C94A0030C940E160C94E815A9
:100070000C94A0030C94A0030C94A0030C94A00374
:100080000C94A0030C94A0030C94A0030C94A00364
:100090000C94A0030C94A0030C94A0030C94A00354
:1000A00008000000BE922449123EABAAAA2ABECD87
:1000B000CCCC4C3E00000080BEABAAAAAA3E0000F9
:1000C0000000BF000000803F0000000000084178F1
:1000D000D3BB4387D1133D190E3CC3BD4282AD2B28
:1000E0003E68EC8276BED98FE1A93E4C80EFFFBE20
:1000F00001C4FF7F3F0000000000207E01020000DD
:100100000000000000000000000000000000F000FF
:100110000000000000003F00000000000000F0F0C0
:100120000000000000003F3F0000000000000080D1
:10013000F080F080000000043F043F040000F0F075
:10014000F0F0000000003F3F3F3F00000000F0F0F3
:10015000F0F0F00000003F3F3F3F3F000000F0F0B4
:10016000F0F0F0F000003F3F3F3F3F3F0000F0F075
:10017000F0F0F0F0F0003F3F3F3F3F3F3F00000016
:1001800080601008000000000F3040800000000870
:10019000106080000000008040300F0000000080F0
:1001A00000C0008000000008051F050800000000D6
:1001B00000C0000000000002021F02020000000058
:1001C000000000000000000090700000000000002F
:1001D0000000000000000002020202020000000015
:1001E000000000000000000020702000000000005F
:1001F000008060180000C0300C0300000000C02028
:10020000101020C000000F102020100F0000004030
:1002100020F0000000000020203F2020000060109F
:10022000101010E0000020302824232000001010BF
:1002300010905030000018202121211E00000000E5
:10024000C020F00000000C0B08083F080000F090F0
:1002500090909010000019202020201F0000C02046
:100260001010100000001F222121211E000010107C
:100270001010D030000000300C030000000060902F
:100280001010906000001C222121221C0000E010B0
:10029000101010E0000019222222110F00000000AF
:1002A00080C0800000000000103910000000000035
:1002B00080800000000000004939000000000000BC
:1002C000008040200000000205081020000080800F
:1002D0008080808000000404040404040000F0E036
:1002E000C080000000007F3F1F0F07020000601069
:1002F0001010906000000000003700000000C020D7
:10030000905050E000000F102728282F0000C02038
:10031000101020C000003F020202023F0000F01057
:100320001010A04000003F212121120C0000E0101D
:100330001010106000001F20202020180000F01076
:10034000101020C000003F202020100F0000F010EF
:100350001010101000003F21212120200000F0107B
:100360001010101000003F01010100000000E0101B
:100370001010106000001F202022123E0000F0002C
:10038000000000F000003F010101013F00000010EB
:1003900010F0101000000020203F2020000000007E
:1003A0000010F0100000182020201F000000F000B6
:1003B0008040201000003F01020408300000F000DF
:1003C0000000000000003F20202020200000F060FE
:1003D000808060F000003F000101003F0000F0C09D
:1003E000000000F000003F0001020C3F0000E010A0
:1003F000101010E000001F202020201F0000F0102F
:10040000101010E000003F02020202010000E010A4
:10041000101010E000001F242428709F0000F0102E
:10042000101010E000003F0202060A310000E01048
:1004300010101060000018212122221C0000101052
:1004400010F0101010000000003F00000000F0004D
:10045000000000F000001F202020201F0000F000FE
:10046000000000F00000000738380700000000F02E
:10047000000000F00000001F201C201F000030C002
:100480000000C0300000300C03030C30000000708E
:100490008000807000000000013E0100000010108C
:1004A000109050300000302C22212020000000004D
:1004B000F808080800000000FF8080800000186035
:1004C0008000000000000000030C30C000000008A5
:1004D0000808F800000000808080FF000000201065
:1004E00008081020000000000000000000000000CC
:1004F00000000000000080808080808000000000FC
:100500000810200000000000000000000000008033
:1005100080808000000019242424243F0000F00083
:100520008080800000003F112020201F00000080FC
:100530008080800000001F2020202011000000800B
:10054000808000F000001F202020113F000000806C
:100550008080800000001F24242424170000000055
:10056000E0101020000001013F01010000000080A8
:100570008080008000006798A8A8A7400000F000D5
:100580008080800000003F010000003F000000006C
:1005900080B0000000000020203F2020000000006C
:1005A000000080B0000000608080807F0000F000CC
:1005B0000000800000003F04060910200000000039
:1005C00010F0000000000020203F202000000080EC
:1005D000800080000000003F001F003F00008000FE
:1005E0008080800000003F010000003F000000808C
:1005F0008080800000001F202020201F000080003D
:10060000808080000000FF112020201F000000805B
:100610008080008000001F20202011FF000080004B
:100620008080800000003F01000000030000008087
:100630008080800000001122242428110000808086
:10064000F0808000000000001F20201000008000CB
:100650000000008000001F202020103F00000080CC
:1006600000000080000000030C300C03000000803C
:10067000000000800000001F201E201F00008000DE
:10068000000000800000310A04040A3100008000EC
:100690000000008000004F909090887F00008080D4
:1006A00080808080000020302C222120000000006B
:1006B00000F0080800000000027D808000000000BB
:1006C00000F800000000000000FF0000000000082B
:1006D00008F0000000000080807D0200000030086B
:1006E0001020403000000000000000000000C8178B
:1006F00011241FBECFEFCDBFDFE3DEBF1EE2A0E0BF
:10070000B8E2E1EFF2E502C005900D92A239B1071F
:10071000D9F722E3A2E9BEE201C01D92A834B207D4
:10072000E1F713E0C8E7D3E004C02197FE010E947F
:100730007D23C737D107C9F70E947B190C94CC27BA
:100740000C94000080E008951F93CF93DF93CDB702
:10075000DEB72597CDBFDEBF1C8221E02B838983C6
:100760009A83E0911B30F0911C3011891D82A09179
:100770001B30B0911C30E0911F30F09120309E0171
:100780002F5F3F4F50964C916FE08BE190E30995BE
:100790008D818F5F8D83811750F32596CDBFDEBF8E
:1007A000DF91CF911F910895E0915130F091523037
:1007B000309719F08CE890E3099580918D30823F55
:1007C00009F4BAC090F5803C09F499C0B8F48039B6
:1007D00009F44FC040F4E0915530F0915630803824
:1007E00009F44BC00895803A09F484C0E0915B306D
:1007F000F0915C30803B09F440C00895803E09F4DC
:1008000062C040F4E0915F30F0916030803D09F4C7
:100810007AC00895803F09F47DC0E0916530F09181
:100820006630813F09F49BC008958A3FC1F1A8F466
:10083000863F09F499C040F4E0916930F0916A3044
:10084000833F09F48CC00895883F09F1E09171302D
:10085000F0917230893FF9F008958C3F51F120F109
:100860008E3F61F1E0917930F0917A308F3F99F0CD
:100870000895E0915730F0915830309709F479C0DD
:1008800040918F3060918E3080918C300994E0914E
:100890006D30F0916E30309709F46BC00994E0919F
:1008A0006F30F0917030F7CFE0917330F091743089
:1008B000F2CFE0917530F0917630EDCFE091773066
:1008C000F0917830E8CFE0916130F091623030976C
:1008D00009F44FC060918F3020E8629FB00111246D
:1008E00060787F7380918E308F77682B7052809103
:1008F0008C300994E0915930F0915A30BECFE0919C
:100900005D30F0915E303097A1F160918E30809132
:100910008C300994E0916330F0916430309749F164
:1009200060918E3070918F306138710510F060E801
:1009300070E080E990E30994E0916730F0916830CD
:100940003097B9F080918F3020E8829FC001112448
:1009500080789F7320918E302F77822B0994309767
:1009600041F080918E300994E0916B30F0916C30C1
:1009700092CF08959B01DC011896ED91FC9141E026
:1009800067E10994FC0154894589252F30E0842FC3
:1009900090E0821B930B541710F0CF9608950197A7
:1009A0000895FC0192898389981761F0A389AE0F9D
:1009B000BF2FB11D59968C9193899F5F9F73938B25
:1009C00090E008958FEF9FEF0895FC01928983894D
:1009D000981731F08389E80FF11D818D90E008951B
:1009E0008FEF9FEF0895FC0192892389892F90E072
:1009F000805C9F4F821B91098F7399270895CF9335
:100A0000DF93EC01E881F9810680F781E02D0995FB
:100A1000EC85FD8586818F738683EC85FD858581D8
:100A20008F7585838B898A8B198ADF91CF91089581
:100A3000CF93DF93FC0194898589C485D58598136C
:100A400006C08D818F7D8D83DF91CF910895A5891B
:100A5000AE0FBF2FB11DA75ABF4F2C91858990E0D3
:100A600001968F739927858B80E48C83A485B58547
:100A700012962C93948985899813E6CFA485B58521
:100A800015968C9115978F7D15968C938789882361
:100A9000D9F2808D80931301178AD6CFDC011C9682
:100AA000ED91FC910FB607FE03C0258125FD04C022
:100AB000248125FD0C9418050895EF92FF920F9361
:100AC0001F93CF93DF93EC0181E0898B9C898D8903
:100AD00098131CC0AC85BD8514968C91149785FF26
:100AE00015C012966C93AC85BD8580E414968C93EA
:100AF000EC85FD8585818F7D858381E090E0DF91A8
:100B0000CF911F910F91FF90EF9008958091110167
:100B100080FF08C080911301888F8E898093130114
:100B200081E08F8BF62E0C8910E00F5F1F4F0F7343
:100B30001127E02E8D898E1104C0CE010E944E0532
:100B4000F9CFEC89EC0FFD2FF11DE75AFF4FF08232
:100B50000C8BEC85FD8585818062CECFCF93DF93B2
:100B6000FC0121892223C9F0EC018091110180FF51
:100B700008C080911301808F86898093130181E0E2
:100B8000878BEC85FD85858185FD03C0848186FD8D
:100B900004C0CE010E944E05F4CFDF91CF9108959D
:100BA000CF93DF9390E0FC01E05DFE4620812F3F74
:100BB00069F0FC01EA5EFE46E08130E2E39FF0016D
:100BC0001124FC5F6130710521F42183DF91CF9105
:100BD000089584509F46EC01A881AF3F69F0CF0192
:100BE0004096A80FB92FB11D9FB7F89422838C911E
:100BF00088608C939FBFEACFB0E0A0E0F5CF282FAC
:100C000030E0F901EE51FF46E081EE2309F1E130D9
:100C100021F0F0F0E63098F008954091010A245058
:100C20003F46F90120812C5F81E090E001C0880FF0
:100C30002A95EAF7809584238093010A089580E13C
:100C4000E89FF0011124E05AF54F81818F7E818366
:100C50000895FF920F931F93CF93DF93082F10E017
:100C6000F801E05DFE46F0809FEFF916A1F0EB0180
:100C70008B3210F40E94FF05F801EA5EFE46E08127
:100C800080E2E89FF0011124FC5F80818F2179F0E0
:100C9000209739F4F682DF91CF911F910F91FF9049
:100CA0000895229711F4F782F6CFF582F4CFD80198
:100CB000A450BF468C91309771F08F3F61F07096D1
:100CC000E80FF11D9FB7F8948081CD2B39F4877F11
:100CD00080839FBFE0CFF0E0E0E0F4CF8860F8CF02
:100CE0000F931F93CF938B32E8F4082F10E0F80195
:100CF000E05DFE46C081CF3FA9F00E94FF05F801EC
:100D0000EA5EFE46E08180E2E89FF0011124FC5F8C
:100D10008085C82381E090E009F480E0CF911F91A5
:100D20000F91089580E090E0F9CF8B3210F40C948D
:100D3000290608958B3210F40C94D0050895CF92B3
:100D4000DF92EF92FF920F931F93CF93DF93EC010B
:100D50006A017B01022F8989882339F0E881F981B2
:100D60000288F389E02DCE01099598898091E205EA
:100D7000892B8093E2051FB7F89460E070E281EA66
:100D800097E0A70196010E943C2369017A018FEF49
:100D9000C81AD80AE80AF80AF694E794D794C794D0
:100DA000EC85FD8586818D7F8683EC85FD8586813A
:100DB0008683198AA09123110A2E000CBB0BA70170
:100DC00096010E949D2320E034E040E050E00E9424
:100DD0005E23EC85FD85C20ED31EE41EF51EC08683
:100DE000D186EC85FD850783EC85FD858681806C49
:100DF0008683EC85FD858581806885838E8562E0AC
:100E000070E00E949A068F8561E070E00E9495066E
:100E10008F8561E070E00E949A061FBFDF91CF913D
:100E20001F910F91FF90EF90DF90CF900895CF9397
:100E3000DF938FB7F8942091FB2F3091FC2F4091D6
:100E4000FD2F5091FE2FE0918A0A9091860A90FF23
:100E500006C02F5F3F4F4F4F5F4FE0918A0A8FBF11
:100E6000A091F92FB091FA2FC091F72FD091F82FC0
:100E70000E949223EC9F9001ED9F300D1124620F90
:100E8000731F811D911DDF91CF9108958F929F92C5
:100E9000AF92BF92CF92DF92EF92FF924B015C0133
:100EA0000E9417076B017C01A8EEB3E0A501940135
:100EB0000E949223C60ED71EE81EF91EC616D7063C
:100EC000E806F90618F40E941707F8CF0E941707E2
:100ED0006C157D058E059F05C8F3FF90EF90DF90A0
:100EE000CF90BF90AF909F908F9008952FB7F894B8
:100EF0006091F32F7091F42F8091F52F9091F62F40
:100F00002FBF08950C9400000895AF92BF92CF9226
:100F1000DF92EF92FF920F931F93CF93DF936C01B9
:100F20007B018B01040F151FEB015E01AE18BF089A
:100F3000C017D10759F06991D601ED91FC9101904C
:100F4000F081E02DC6010995892B79F7C501DF9164
:100F5000CF911F910F91FF90EF90DF90CF90BF90B6
:100F6000AF90089581E008950F9391E09093E82F5A
:100F70001092E72F6093E52F7093E62F4093E42FB4
:100F80002093E32F1092E22F1092E12F0093E02F95
:100F9000880F8093DF2F23E030E044E050E0809121
:100FA000E42F882341F02093DD2F3093DE2F8091B2
:100FB000DF2F8E7F0BC08091E32F882351F0409369
:100FC000DD2F5093DE2F8091DF2F81608093A70863
:100FD00008C08091E42F811104C08091E32F882301
:100FE00011F38091E72F8823E1F38091E72F83307D
:100FF000B1F28091E32F882321F08091E12F0F91AE
:1010000008958091E72F823031F0853031F08130C2
:1010100031F480E0F4CF81E0F2CF83E0F0CF84E0E0
:10102000EECFE0EAF8E091859066918722E030E02B
:101030002093DD2F3093DE2F8093CF2F1092CE2F71
:10104000089581E08093CE2F1092CF2F93E090935C
:10105000AA089091AB0891FF10C01092DB2FE0918D
:10106000CC2FF091CD2F09958093DA2F85E090E079
:101070008093DD2F9093DE2F08951092DC2F8093C4
:10108000D92F86E090E0F4CF8F929F92AF92BF92DB
:10109000CF92DF92EF92FF92CF93DF9360342DE0F7
:1010A000720723E08207910508F454C0611525E317
:1010B00072072CE08207910508F445C060387F4430
:1010C0008241910508F046C0C8E7D0E020E432E450
:1010D0004FE050E08090CF2B9090D02BA090D12B60
:1010E000B090D22BC501B4010E943C2369017A0162
:1010F0008AE0C81AD108E108F108C501B40120E46A
:1011000032E44FE050E00E943C23DE010E94922333
:1011100028EE33E040E050E00E943C23C21AD30A9C
:10112000E40AF50AF694E794D794C794C092A60807
:10113000DF91CF91FF90EF90DF90CF90BF90AF9075
:101140009F908F900895CCE2D1E020E83AE146E00C
:1011500050E0C0CFC8EED3E020EA36E841E050E0EE
:10116000B9CF6093CA2F7093CB2F08956093C82F87
:101170007093C92F0895E091CA2FF091CB2F30972B
:1011800041F01092C72F1092C62F09958091C62F5B
:10119000089580E00895E091C82FF091C92F30970D
:1011A00059F03091C52F2091C42F321728F010929A
:1011B000C52F8093C42F099408950895E091C52FF9
:1011C0008091C42FE81730F4F0E0EC5BF04D8081A3
:1011D00090E008958FEF9FEF08959091C52F809133
:1011E000C42F2FEF3FEF981748F4E92FF0E0EC5BA6
:1011F000F04D208130E09F5F9093C52FC901089585
:101200008091C42F9091C52F891B990B0895CF927F
:10121000DF92EF92FF920F931F93CF93DF937C01A6
:101220008A01EB016B01C40ED51ECC15DD0551F012
:101230006991D701ED91FC910190F081E02DC701FA
:101240000995F3CFC801DF91CF911F910F91FF90C6
:10125000EF90DF90CF9008952091C62F27FF08C010
:1012600021E030E0FC012283338390E080E00895A8
:101270008091C72FE82FF0E0EC53F14D60838F5F32
:101280008093C72F8093C62F81E090E00895DC0102
:10129000ED91FC91008CF18DE02D61E009940F93AC
:1012A0008091DD2F9091DE2F0197A1F48091E82F9E
:1012B000811112C0062F20E04091C62F64EC7EE21F
:1012C0008091C32E0E94B4071092C72F1092C62F90
:1012D0000F91089580E0F8CF81E0F6CF6093C32EA0
:1012E0001092C72F1092C62F0895DC01ED91FC914A
:1012F000048CF58DE02D21E009940F9384E49FE2A6
:101300008093D02F9093D12F8091DD2F9091DE2F5D
:101310000197C9F48091E82F811117C0FA01413873
:10132000510510F0E0E8F0E0022F862F2E2F40E06C
:1013300070E060E00E94B4071092C52F8093C42F24
:1013400090E00F91089580E0F7CF81E0F5CFCB01D9
:10135000BA010C944408E0EAF8E01382168281E0B6
:101360008583148611861092DD2F1092DE2F08954A
:101370001092C52F1092C42F1092C72F1092C62F13
:101380008091DD2F9091DE2F892BD9F482E090E0BF
:101390008093DD2F9093DE2F1092DC2F1092DB2FA5
:1013A0001092CE2F1092CF2F1092C22E1092D92FC2
:1013B000660F6093AC0881EE8093A90881E080936A
:1013C000A3088BEB98E08093CC2F9093CD2F84ECE7
:1013D0009EE28093D22F9093D32F8BEC98E0809352
:1013E000D72F9093D82F84E49FE28093D42F9093AB
:1013F000D52F80E88093D62F08951092C52F109294
:10140000C42F1092C72F1092C62F8091DD2F90917C
:10141000DE2F892BF1F48091E3058093E30581E0D1
:1014200090E08093DD2F9093DE2F1092E12F1092A9
:10143000E22F1092E82F1092E72F81EC8093A308FF
:1014400060EA76E881E090E00E94440881E08093C1
:10145000A50808950895EF92FF920F931F93CF93DD
:10146000DF937C01EB018B01040F151FC017D1071F
:1014700059F0D701ED91FC910480F581E02D688150
:10148000C70109958993F2CFDF91CF911F910F91F9
:10149000FF90EF9008950F931F93CF93DF93EC018C
:1014A0008B018091C008E881F9810480F581E02DED
:1014B00086FD13C0612FCE010995182FE881F981AF
:1014C0000480F581E02D602FCE010995082FC80119
:1014D000DF91CF911F910F910895CE010995082FAB
:1014E000E881F9810480F581E02D612FCE01099515
:1014F000182FEDCF00006093C4088091C30887FFC8
:10150000FCCF8091C40808958F929F92AF92BF92B2
:10151000CF92DF92EF92FF920F931F93CF93DF93BF
:10152000FC018085882319F081FF0EC07894DF913B
:10153000CF911F910F91FF90EF90DF90CF90BF90D0
:10154000AF909F908F90089580FFF1CF8284938415
:10155000A484B584C12CD12C760110E09401A5019E
:10156000B601C701A0E00E94C22399F1217030E0CA
:1015700040E050E060E070E080E090E00E94C22334
:10158000D9F0D0E0C0E0103370F4C12FC695C695F5
:10159000C69580E2C89FE0011124C05FDB4F812F18
:1015A0008770C80FD11DCF01810F911DDC015296AC
:1015B0008C919881892B88839401A501B601C7017C
:1015C00001E00E94A72349015A016B017C011F5FC2
:1015D000C5CF86849784A088B188C12CD12C760190
:1015E00010E29401A501B601C701A0E00E94C22348
:1015F00009F49DCF217030E040E050E060E070E001
:1016000080E090E00E94C223D9F0D0E0C0E0103327
:1016100070F4C12FC695C695C695B0E2CB9FE00188
:101620001124C05FDB4F812F8770C80FD11DCF0100
:10163000810F911DDC0152968C919881892B8883B2
:101640009401A501B601C70101E00E94A723490149
:101650005A016B017C011F5FC4CFFC016F3F710514
:1016600081F1808581FD2DC0603271055CF581E0DE
:1016700090E002C0880F991F6A95E2F780959095D7
:10168000092E000CAA0BBB0B42855385648575851A
:1016900084239523A623B72382879387A487B587BE
:1016A00082859385A485B585892B8A2B8B2B49F45C
:1016B00086859785A089B189892B8A2B8B2B09F484
:1016C000108608956052710981E090E002C0880F91
:1016D000991F6A95E2F780959095092E000CAA0B48
:1016E000BB0B468557856089718984239523A62382
:1016F000B72386879787A08BB18BD2CFFC016F3F32
:101700007105E9F1603371051CF082E0808708956E
:1017100080858160808760327105C4F481E090E04B
:1017200002C0880F991F6A95E2F7092E000CAA0BD8
:10173000BB0B4285538564857585842B952BA62B21
:10174000B72B82879387A487B58708956052710964
:1017500081E090E002C0880F991F6A95E2F7092E98
:10176000000CAA0BBB0B4685578560897189842BB9
:10177000952BA62BB72B86879787A08BB18B0895C7
:10178000E0ECF8E020812E7F2083FC011782089591
:10179000E0ECF8E082818E7F82830895E0ECF8E04F
:1017A0008281816082830895DC011A96ED91FC911B
:1017B00030E020E00994DC011696ED91FC9130E0D8
:1017C00020E040E069E10994DC011696ED91FC917E
:1017D00030E020E040E068E109949A01DC011696CF
:1017E000ED91FC91462F67E10994EF92FF920F93E0
:1017F0001F93CF93DF931F92CDB7DEB77C018B0190
:10180000D8016C91673129F150F46531A0F40F9043
:10181000DF91CF911F910F91FF90EF9008956A3162
:1018200018F16E3FA1F7F8014181498369E2C701D0
:101830000E94D40B0BC0F80141814983D701169651
:10184000ED91FC9130E020E0C70109950E5F1F4F3C
:10185000D7CFF80181818983AE014F5F5F4F61E08F
:10186000C7010E94ED0BF2CF0F5F1F4FD7011696F5
:10187000ED91FC9130E020E040E0C7010995C0CF38
:10188000462FDC011696ED91FC9130E020E066E1F8
:101890000994462FDC011696ED91FC9130E020E092
:1018A00065E10994EF92FF920F931F93CF93DF931B
:1018B000EC01042F79016D3009F446C050F46B300F
:1018C000C9F1693009F49FC06A3009F465C080E04D
:1018D00046C06E3009F452C06F3099F70E94E40B95
:1018E000F7011381110F110F110F6C89160F60E4AE
:1018F000CE010E94490C612F62956F706061CE012C
:101900000E94490C612F6F70CE010E94400CF701BC
:101910006481606BCE010E94400CF70140815181CF
:101920006281660F660F660FCE010E94ED0B0150BB
:10193000A1F72EC064E870E9442311F06FE770E965
:10194000CE010E94F50B0AC0411110C068E770E992
:101950000E94F50BE881F98182898C8B81E0DF910F
:10196000CF911F910F91FF90EF90089561E770E97B
:101970000E94F50BE881F9818389EFCF0E94E40B87
:1019800061E8CE010E94490C602FCE010E94400CFC
:10199000CE010E94DB0BE2CFEA85FB8530E020E040
:1019A00040E068E2CE010995EE81FF8130E020E061
:1019B00040E064E1CE01099541E06BE4CE010E9474
:1019C000D40BE881F981448169E2CE010E94D40BF5
:1019D00040E06BE4CE010E94D40BE881F9814481A0
:1019E00069E2CE010E94D40B41E06BE4CE010E947B
:1019F000D40BE881F981458169E2CE010E94D40BC4
:101A000069E870E99DCF8EEB90E9888399831C8A01
:101A1000A5CFDC011896ED91FC9130E020E040E08C
:101A200069E10994DC011896ED91FC9130E020E029
:101A300040E068E10994CF93DF931F92CDB7DEB702
:101A40006983BE016F5F7F4F0E94BA040F90DF91E0
:101A5000CF910895EF92FF921F93CF93DF93EC0104
:101A6000162F7A010E94120D60E4CE010E941B0D18
:101A7000E885F9859701412F67E1CE010995CE01EF
:101A8000DF91CF911F91FF90EF900C94090DEF9291
:101A9000FF921F93CF93DF93EC01142F79016631EE
:101AA00081F138F4643109F44BC0653179F080E09C
:101AB00022C06831C9F150F16931C9F78091C12E56
:101AC000882391F1CE010E94090D2EC08091C12E74
:101AD000882319F0CE010E94090DCE010E94120D3B
:101AE00060E0CE010E941B0D612FCE010E941B0DF4
:101AF00081E08093C12EDF91CF911F91FF90EF90F5
:101B00000895642F0E941B0D81E0F5CF8091C12EB6
:101B1000882319F0CE010E94090DA701193138F46C
:101B2000612FCE010E942A0D1092C12EEDCF68E1E7
:101B3000CE010E942A0D185188E1E80EF11CEDCF6C
:101B40008E898F3F11F488E78E8BE885F9859701A0
:101B5000412F64E1CE01DF91CF911F91FF90EF9073
:101B60000994CF93DF93EC01A889B989FD013491E1
:101B700031969491319684911396FD01A491631747
:101B8000A8F1961798F1631B770B8A9FE02D11241B
:101B9000E69FC001E79F900D1124280F392F311DBA
:101BA00083E0220F331F8A95E1F7C9010496DA0119
:101BB000245F3F4FE889F989E80FF91FE491ED931D
:101BC000019682179307B1F78D89882361F0FA0196
:101BD0009A01285F3F4F8191DF01119780958C9387
:101BE0002E173F07C1F7DF91CF910895FA01CA017F
:101BF00008961192E817F907E1F7E6CF4F925F9246
:101C00006F927F928F929F92AF92BF92CF92DF920C
:101C1000EF92FF920F931F93CF93DF93CDB7DEB771
:101C20002D97CDBFDEBF7C01C62ED42EB22EDC0197
:101C300050968D919C91FC013296149131960491AD
:101C4000512E560E040F81E0860F581608F411E04D
:101C5000712CFE0131964F0144244394672CAC2C27
:101C6000262DA4016B2DC7010E94B10DAC86DD8627
:101C70004B8689869A86D7011496ED91FC919E0138
:101C8000275F3F4F41E06FE0C70109956394A3943C
:101C9000A51430F3D394710ED01600F32D96CDBF5A
:101CA000DEBFDF91CF911F910F91FF90EF90DF90FA
:101CB000CF90BF90AF909F908F907F906F905F90EC
:101CC0004F900895262F482F42954F70440F682F4C
:101CD0006F708BE190E30C94FE0DCF93DF93EC01DA
:101CE000683189F130F4643199F0673151F080E066
:101CF00005C06931B9F16032D1F781E0DF91CF9150
:101D0000089550E0B9018FEF9FE20E940709F5CFD7
:101D10008C859D85AE85BF85892B8A2B8B2B71F495
:101D2000E881F981A585B0E020EA36E841E050E09D
:101D30000E9492236C877D878E879F878FEF9FE21B
:101D40000E94FD09DACF6C857D858E859F850E9476
:101D500044086E8970E0759567958FEF9FE20E9449
:101D60006E09CBCF8FEF9FE20E944709C6CF0F933A
:101D70001F93CF93DF938C016C32C0F46A3208F06A
:101D800040C0683269F1693209F44BC080E06034C8
:101D9000C8F16F73F801E60FF11D868D8F3F89F151
:101DA000603108F058C0642F70E017C06D3209F43C
:101DB0003FC060F384EB860F823040F7C62FCF73AD
:101DC000C00FD12FD11D8E8D61E070E041113EC05A
:101DD0000E949A0670E060E08E8D0E94950611C008
:101DE000025E1F4FD0E0F80181918F018F3F31F0EB
:101DF00061E070E0D03158F40E949A06DF5FD6317E
:101E000091F781E0DF91CF911F910F9108950E948A
:101E10009A0661E070E0F801319780810E94950692
:101E2000EDCF642F70E090E080E00E944607E9CF9C
:101E300085E090E0433010F082E090E0880F991F39
:101E4000880F991F05970197F1F7DBCF0E949A063B
:101E500061E070E0C1CF0E94700621E0892B09F497
:101E600020E0F801218FCDCF1F93CF93DF93EC01BA
:101E7000EC89FD8949AD6A3059F43396E491E40F59
:101E8000E9AF18AE81E090E0DF91CF911F91089506
:101E9000262F3296149168AD04960E94FE0DE8AD8F
:101EA000E10FE8AFEFCF40911530509116302091FF
:101EB00013303091143084E2849FD001859FB00D9F
:101EC0001124A159B34D92968D919C91019782173F
:101ED000930779F082E1849FF001859FF00D112432
:101EE000E20FF31FEE0FFF1FED58F34D808191813C
:101EF000089580E490E00895809115309091163017
:101F000022E1289FF001299FF00D112480911330C8
:101F100090911430E80FF91FEE0FFF1FEF58F34DAB
:101F2000808191810895209115303091163044E2DE
:101F3000429FF001439FF00D1124E159F34D24E23B
:101F4000DC0101900D922A95E1F70895EF92FF923E
:101F50000F931F93CF93DF93CDB7DEB7A497CDBF79
:101F6000DEBF81E080934232109243320E947C0FA8
:101F7000809340328C011127C80182549E4C7C0111
:101F80000E94530F081719077CF4CE0101960E9496
:101F9000930FE981FA81E00FF11F8081F7018193AE
:101FA0007F010F5F1F4FECCF00934132A496CDBF4E
:101FB000DEBFDF91CF911F910F91FF90EF900895B9
:101FC000CF93909115309730A8F5C82F0E947C0FC1
:101FD00060E20E94620E8091153090911630873039
:101FE000910504F524E2289FF001299FF00D1124AA
:101FF000E159F34D62A173A1809113309091143097
:1020000001961C164CF0CC23B9F0809113309091BE
:102010001430860F971F01970E9428238093133056
:10202000909314300E947C0F6EE30E94620E81E058
:1020300080934232CF910895109213301092143051
:10204000F1CFCF92DF92EF92FF920F931F93CF9336
:10205000DF936C01EB017B01E40EF51E10E000E064
:10206000CE15DF0561F06991D601ED91FC910190EB
:10207000F081E02DC6010995080F191FF1CFC801A5
:10208000DF91CF911F910F91FF90EF90DF90CF9054
:102090000895089590E080E00895DC018D919C9171
:1020A000DC01ED91FC910190F081E02D09941F93EA
:1020B000CF93DF932150203118F587FF21C0D42F13
:1020C000162FC82F622F682B80917B3090917C3027
:1020D0000E944D10612F6F7780917B3090917C3002
:1020E0000E944D10CF7EC03C59F06D2F6F778091CC
:1020F0007B3090917C30DF91CF911F910C944D10EB
:10210000DF91CF911F910895282F80E80E945710EA
:102110008091BE2E811105C070E060E082E00C94D9
:1021200029060895282F80E90E9457108091BE2E1D
:10213000811105C061E070E082E00C9429060895E9
:102140000F931F93CF93DF93EC018C01075F1F4F19
:10215000699180917B3090917C300E944D100C17DA
:102160001D07B1F7DF91CF911F910F9108951F9334
:10217000CF93DF93CDB7DEB72997CDBFDEBF182F42
:10218000863849F470E06093BF2E7093C02E675973
:102190007F46FB016081812F90E0FC01ED52F44D00
:1021A000608329E0ECE9FFE8DE01119601900D92D1
:1021B0002A95E1F7880F892F881F990B8B83812F30
:1021C0008F778E836987CE0101960E94A010143408
:1021D00031F01F3221F01A3111F0153079F48E816F
:1021E0008F5F8E83CE0101960E94A0108E81845055
:1021F0008E831986CE0101960E94A0102996CDBF2C
:10220000DEBFDF91CF911F9108956D3F48F46A3F83
:1022100010F4683F39F4FC01808191810C944D10D9
:102220006E3FC8F70895CF92DF92EF92FF92C09071
:10223000BA2ED090BB2EE090BC2EF090BD2EC701E0
:10224000B60128E130E040E050E00E943C236115F7
:10225000710581059105D9F0613071058105910500
:10226000E1F08FEFC81AD80AE80AF80AC092BA2E2D
:10227000D092BB2EE092BC2EF092BD2E68EF8BE781
:1022800090E3FF90EF90DF90CF900C94051161E008
:1022900070E082E00E942906E4CF70E060E0F9CFB0
:1022A0001092BA2E1092BB2E1092BC2E1092BD2E00
:1022B00081E08093BE2E6AEF8BE790E30C940511CA
:1022C0006CEF8BE790E30E94051170E060E082E024
:1022D0000E9429061092BE2E0895813E10F40C949F
:1022E0005710883F28F0682F8BE790E30C94051176
:1022F000089587FF0AC09CE0980F923030F08D3F20
:1023000021F0803F18F4807F089580E00895982F91
:102310009F7E282F2F7C203839F0803E29F081E0E5
:10232000903C19F080E0089581E00895DC01ED9182
:10233000FC910088F189E02D23E030E00994CF93EF
:10234000DF93CDB7DEB7A497CDBFDEBF0E947C0F71
:1023500060E20E94620E80E1E5EAFFE8DE0111968C
:1023600001900D928A95E1F7809115309091163089
:10237000892B09F040C08091133090911430009760
:1023800011F58091BF2E9091C02E07968093153045
:10239000909316301092133010921430CE010196A3
:1023A0000E94930F69817A818EEB91E30E94F3245E
:1023B0001092403280E480934132A496CDBFDEBFBC
:1023C000DF91CF9108958130910551F40E947C0FE7
:1023D0006EE3A496CDBFDEBFDF91CF910C94620E69
:1023E000880F991FE1E0F0E0EC0FFD1FE80FF91FE7
:1023F00080819181CBCF1092153010921630CACFC8
:102400004F925F926F927F928F929F92AF92BF9204
:10241000CF92DF92EF92FF920F931F93CF93DF93B0
:10242000CDB7DEB7A097CDBFDEBF1092423281E0BC
:102430008093433288E1E5EBFFE8DE0111960190DD
:102440000D928A95E1F7E0911530F091163044E055
:10245000EE0FFF1F4A95E1F7E65BFE4680911330D1
:1024600090911430E80FF91F1081812F90E09C01AA
:102470002D52344D6901F90180811F928F938FE8AD
:1024800092E99F938F937E01F9E1EF0EF11CFF9289
:10249000EF920E94FA240F900F900F900F900F90E0
:1024A0000F90133139F0183229F01D3319F012351D
:1024B00009F062C01150E12FF0E0ED52F44D60815F
:1024C00070E090E080E00E9425214B015C01F60164
:1024D000608170E090E080E00E94252120E030E003
:1024E00048EC52E40E94842020E030E040E85FE3C2
:1024F0000E9413202B013C0120E030E0A901C5011E
:10250000B4010E947F20811105C0812C912CA12C47
:102510003FE3B32EA5019401C301B2010E9427221B
:102520000E94DF2120E030E040E451E40E942722B5
:1025300028E132E741E35FE30E9484202AE037ED9F
:1025400043E25CE30E9413200E9494220E94F62042
:10255000862F6CE00E940823892F90E0880F991F36
:1025600021E030E02C0F3D1F820F931FFC016081A2
:102570007181C7010E94F3240E947C0F7C0180932B
:1025800040328C011127F801E254FE4C898D818381
:102590008A8D82830F531E4C82E0C82ED12C90E28C
:1025A000B92E0E94530F98012E5B3143281739072B
:1025B0003CF4F801B1928F01FFEFCF1ADF0AF1CF9F
:1025C000EC0CE0924132A096CDBFDEBFDF91CF91FF
:1025D0001F910F91FF90EF90DF90CF90BF90AF9041
:1025E0009F908F907F906F905F904F900895CF93C2
:1025F000613308F075C06150ECE7F2E990E080E0EB
:102600002191621728F0621B019687309105C1F76E
:102610008093B82E9093B92E70E06093B62E70938D
:10262000B72EFC0194E0EE0FFF1F9A95E1F7E65BF1
:10263000FE46E60FF71FC081EC2FF0E0E353F047B2
:10264000208130E0A42FB0E00E9483232FE730E008
:1026500040E050E00E945E23622FC63811F4669578
:1026600066958C2F0E94B7108091B82E90911530EE
:10267000891336C02091B62E90911330291759F145
:10268000873000F50E947C0F60E20E94620E80910C
:1026900015309091163022E1289FF001299FF00D0E
:1026A00011248091B62E9091B72EE80FF91FEE0FEE
:1026B000FF1FEF58F34D6EE380810E94620E81E0B0
:1026C000809342328091B62E9091B72E99278093B5
:1026D000133090931430C63819F0CF910C94001237
:1026E000CF910895CF93DF93CDB7DEB7A497CDBF39
:1026F000DEBF482FE0911530F0911630E730C0F181
:102700008091BF2E9091C02E141674F5019668E04A
:1027100070E00E9428238093BF2E9093C02E60917A
:10272000BF2E87E0860F90E080931530909316308F
:1027300086E80E94B7106FE08BE90E94B710CE01C7
:1027400001960E94930F69817A818EEB91E30E943A
:10275000F3241092403280E480934132A496CDBF9E
:10276000DEBFDF91CF9108954423C9F20796CFCF02
:1027700084E0EE0FFF1F8A95E1F7E65BFE462091AD
:10278000133030911430E20FF31F80818F3F31F30B
:10279000863821F390914232911126C0E82FF0E063
:1027A000DF01A353B0476C91633651F4823541F099
:1027B0008D3331F0883221F025E030E0833111F49F
:1027C00021E030E0ED52F44D90811416A4F49617F8
:1027D00029F2A901490F511D6417150619F014F0CB
:1027E000692F620F0E94B710A496CDBFDEBFDF91A4
:1027F000CF910C9400124423B9F3992309F4AECF7E
:10280000692F621B9217130609F064F760E0EACFA4
:102810000C946A24CF92DF92EF92FF920F93FC0107
:10282000C12CB9E0DB2EBDE3EB2EF12CC082D182AE
:10283000E282F3821482158281E090E0868397839E
:10284000C090CF2BD090D02BE090D12BF090D22BFA
:10285000F694E794D794C79490E04C155D056E0507
:102860007F0540F4F694E794D794C7949F5F963021
:10287000A1F797E004600187892F8095A82FA170A8
:10288000B0E084E0AA0FBB1F8A95E1F791629A2B12
:1028900080E0232B09F480E4982B90870F91FF9020
:1028A000EF90DF90CF9008950F931F93CF93DF9316
:1028B000CDB7DEB72A97CDBFDEBF8C01FC01878183
:1028C00081110CC010861186128613861486158617
:1028D00016861786108A118A81E087838091E30526
:1028E000F8019681892B8093E30561E070E0838194
:1028F0000E949A0661E070E0F80184810E949A06C5
:102900008091C10884608093C1088091C008816271
:102910008093C00840910B3050910C3060910D3085
:1029200070910E3000910F302091113030911230A3
:10293000CE0101960E940A1499858A859093C00859
:102940008093C1082A96CDBFDEBFDF91CF911F9142
:102950000F9108955F926F927F928F929F92AF92A4
:10296000BF92CF92DF92EF92FF920F931F93CF937C
:10297000DF93CDB7DEB76297CDBFDEBF3C010B87DB
:102980001C872D873E87042F4F87588B698B7A8B46
:1029900029893A894B855C856D857E85CE010196B6
:1029A0000E940A1419855A84D30118968C918823A1
:1029B00019F081FF18C0F8941093C0085092C10814
:1029C0006296CDBFDEBFDF91CF911F910F91FF9037
:1029D000EF90DF90CF90BF90AF909F908F907F90BF
:1029E0006F905F90089580FFE7CFF3018284938416
:1029F000A484B584C12CD12C7601B0E09401A5014A
:102A0000B601C701A0E00E94C223A9F1217030E005
:102A100040E050E060E070E080E090E00E94C2237F
:102A2000E9F090E080E0B03370F48B2F86958695C6
:102A30008695F0E28F9FC0011124805F9B4F2B2F62
:102A40002770820F911DFC01408193012B0F311DD6
:102A5000F901428BFC012081287F20839401A5018C
:102A6000B601C70101E00E94A72349015A016B0189
:102A70007C01BF5FC3CFD3011E968D909D90AD901A
:102A8000BC905197C12CD12C7601B0E29401A501E4
:102A9000B601C701A0E00E94C22309F48DCF2170C6
:102AA00030E040E050E060E070E080E090E00E94C4
:102AB000C223E9F090E080E0B03370F48B2F86956C
:102AC00086958695E0E28E9FC0011124805F9B4F22
:102AD0002B2F2770820F911DFC01408193012B0F3A
:102AE000311DF901428BFC012081287F2083940154
:102AF000A501B601C70101E00E94A72349015A01BF
:102B00006B017C01BF5FC2CF1F920F920FB60F9275
:102B100011242F933F934F935F936F937F938F93E2
:102B20009F93AF93BF934091F32F5091F42F6091F7
:102B3000F52F7091F62F8091F12F9091F22F209127
:102B4000EF2F3091F02F420F531F611D711D209107
:102B5000ED2F3091EE2F820F931F883E23E09207D6
:102B600030F0885E93404F5F5F4F6F4F7F4F809391
:102B7000F12F9093F22F4093F32F5093F42F609303
:102B8000F52F7093F62F8091FB2F9091FC2FA09141
:102B9000FD2FB091FE2F0196A11DB11D8093FB2F3B
:102BA0009093FC2FA093FD2FB093FE2F81E0809394
:102BB000860ABF91AF919F918F917F916F915F91A5
:102BC0004F913F912F910F900FBE0F901F9018952E
:102BD0001F920F920FB60F9211242F933F934F9392
:102BE0005F936F937F938F939F93AF93BF93EF9375
:102BF000FF9381E291E30E941805FF91EF91BF914D
:102C0000AF919F918F917F916F915F914F913F9184
:102C10002F910F900FBE0F901F9018951F920F923B
:102C20000FB60F9211242F933F934F935F936F939F
:102C30007F938F939F93AF93BF93EF93FF93E09115
:102C40002D31F0912E31818181FD2FC060818091E5
:102C500033318F5F8F7390913431891741F0E09158
:102C60003331F0E0EF5DFE4C618F80933331809122
:102C7000BA319091BB31009739F0DC01ED91FC91B4
:102C80000190F081E02D0995FF91EF91BF91AF91F7
:102C90009F918F917F916F915F914F913F912F9174
:102CA0000F900FBE0F901F9018958081EDCF1F924F
:102CB0000F920FB60F9211242F933F934F935F9370
:102CC0006F937F938F939F93AF93BF93CF93EF9324
:102CD000FF93C091AB08C2FF0AC01092DC2F109284
:102CE000DB2F1092DA2F84E00E94110814C0C6FF77
:102CF0002FC08091D92F813051F48091DC2FE09149
:102D0000D72FF091D82F90E009951092D92FC0FFBE
:102D100014C00E942108FF91EF91CF91BF91AF9114
:102D20009F918F917F916F915F914F913F912F91E3
:102D30000F900FBE0F901F90189580E48093AB0802
:102D400081E00E9411088091AB0885FFE4CFE1CFBC
:102D5000C7FF5CC0C3FF08C01092DC2F1092DB2FAE
:102D60001092DA2F83E0C0CF8091A908806680930B
:102D7000A9088091AB0881FF2CC08091DB2F8823AC
:102D800049F08091AB0884FF05C082E08093AA08D7
:102D900081E0AACF9091DB2F8091DA2F9817A8F4C9
:102DA000E091DB2F8091D22F9091D32FE80FF92F54
:102DB000F11D80818093AD088091DB2F8F5F809320
:102DC000DB2F83E08093AA08A6CF82E08093AA0835
:102DD0008BCF9091DC2F8091D62F981790F4809113
:102DE000AD08E091DC2F2091D42F3091D52FE20F48
:102DF000F32FF11D80838091DC2F8F5F8093DC2F78
:102E0000E0CF86E08093AA0882E06ECF85E06CCFA9
:102E10001F920F920FB60F9211242F933F938F930F
:102E20009F93EF93FF938091A508982F9C70E1F0FA
:102E30008091A50894E082FF93E09093E72F809320
:102E4000A50881E090E08093DD2F9093DE2F109213
:102E5000E82FFF91EF919F918F913F912F910F90CC
:102E60000FBE0F901F90189586FF4EC02091E42F43
:102E70009091E32F8091A50884FF15C08091E02FE9
:102E8000882379F083E08093A40885E08093E72F7E
:102E90001092E82F81E090E08093DD2F9093DE2F59
:102EA000D8CF81E0F0CF8091E22F821790F4E091AB
:102EB000E22F8091E52F9091E62FE80FF92FF11D79
:102EC00080818093A8088091E22F8F5F8093E22F0A
:102ED000C0CF8091E12F891760F484E090E0809367
:102EE000DD2F9093DE2F8091DF2F81608093A708E4
:102EF000B0CF8091E02F882329F083E08093A4084D
:102F000081E0C4CF81E0FACF87FF40C09091E12FEC
:102F10008091E32F9817D8F48091A808E091E12FD1
:102F20002091D02F3091D12FE20FF32FF11D80830C
:102F30008091E12F8F5F8093E12F9091E32F80911B
:102F4000E12F8917D8F482E08093A40882CF809182
:102F5000E02F882389F087E08093A40882E08093A3
:102F6000E72F1092E82F81E090E08093DD2F90937F
:102F7000DE2F1092E32F6DCF85E0EECF8091E02F12
:102F8000882311F087E0BACF85E0B8CF86E07ECF06
:102F90001F93CF93DF93CDB7DEB7A497CDBFDEBF2E
:102FA000109223311092243188EE93E0A0E0B0E03B
:102FB0008093253190932631A0932731B093283107
:102FC0002EE332E9209321313093223120E238E0A0
:102FD00020932D3130932E3110922F3121E0209308
:102FE000303124E02093313110923331109234315A
:102FF00010923531109236312BE1209337311092F7
:103000003831109239311092BA311092BB3110928E
:103010000130109202308093033090930430A093DB
:103020000530B093063088E592E98093FF2F9093A6
:10303000003080E099E0ADE3B0E080930B309093F6
:103040000C30A0930D30B0930E3010920F301092D0
:10305000103081E090E0809311309093123080E145
:1030600090E08093B52C9093B62C84E090E0809310
:10307000D92C9093DA2C28E030E02093FD2C30936B
:10308000FE2C85E090E08093212D9093222D2093BB
:10309000452D3093462D8093692D90936A2D109283
:1030A000193010921A3010924F301092503087E839
:1030B00092E9809317309093183010921B30109241
:1030C0001C30109230301092333010922730109212
:1030D00028301092293010922A308FEF80933130AF
:1030E00080933530E9E3F0E31FEF119380E3EF3491
:1030F000F807D9F782E59CE080931F309093203049
:1031000087E49DE080932130909322308DE69EE00D
:10311000809323309093243087EB9EE0809325307A
:103120009093263030E020E040E069E08BE190E3CE
:103130000E94520C10934430109345301093463047
:103140001092403280E480934132109215301092F8
:1031500016301092133010921430CE0101960E9456
:10316000930F69817A818EEB91E30E94F324EFEF54
:10317000F1E380E2819392E3EF33F907D9F71092FC
:103180003F321092FE318AEF90E080932B30909383
:103190002C3081E08093423281E291E38093BC3114
:1031A0009093BD31109251301092523010925330A2
:1031B0001092543010925530109256301092573071
:1031C000109258301092593010925A3010925B3051
:1031D00010925C3010925D3010925E3010925F3031
:1031E0001092603010926130109262301092633011
:1031F00010926430109265301092663010926730F1
:10320000109268301092693010926A3010926B30D0
:1032100010926C3010926D3010926E3010926F30B0
:103220001092703010927130109272301092733090
:103230001092743010927530109276301092773070
:10324000109278301092793010927A308CEB91E3B2
:1032500080937B3090937C3010927D3010927E3042
:1032600010927F301092833010928430109285300B
:10327000109286308FEF9FEF809387309093883045
:103280008093893090938A3083E080938B301092C2
:103290008C3010928D3010928E3010928F301092B0
:1032A0001031E0E9F0E380E8DF011D928A95E9F74B
:1032B0001092133110921431109215311092163170
:1032C00010921731109218311092193110921A3150
:1032D00010921B3110921C3110921D3110921E3130
:1032E00010921F3110922031A496CDBFDEBFDF9126
:1032F000CF911F910895CF93DF93CDB7DEB7289775
:10330000CDBFDEBF88ED90E084BF9093610080E088
:1033100094E2A4EFB0E08093CF2B9093D02BA093B6
:10332000D12BB093D22B8091020686608093020647
:1033300080910006816080930006809102068F7C58
:10334000809302068091A0008F788093A0008091E6
:1033500002068061809302061092E20581E080936C
:10336000E40583E08093010A8FEF90E08093260AC2
:103370009093270A80E890E08093380A9093390A66
:1033800080933A0A90933B0A80933C0A90933D0ABB
:103390008BE08093000A8091E50581608093E505CC
:1033A0008091E50582608093E505E0E8FAE037E08A
:1033B0002FEF90E885E0318324879587808370968E
:1033C000E03C4AE0F407B9F780E094E08093F92FFD
:1033D0009093FA2F8091F92F9091FA2F2FEF30E0F0
:1033E000B9010E9414236093F72F7093F82F8091F6
:1033F000F92F9091FA2FE8EEF3E0BF010E94142319
:103400006093EF2F7093F02F8091F92F9091FA2F06
:10341000BF010E9414238093ED2F9093EE2F2093F1
:103420008C0A30938D0A8091850A81608093850A89
:1034300084E08093800A8091800A81608093800A72
:103440007894E0911F30F091203030E020E040E0AF
:103450006AE08BE190E30995CE01019628E0DC015A
:103460001D922A95E9F70E94A403E0911F30F09184
:10347000203030E020E040E06BE08BE190E3099504
:1034800087EB92E99F938F938CEB92E99F938F93B5
:103490008FEF91E39F938F930E94FA243FEFE32EE7
:1034A00031E3F32E0F900F900F900F900F900F902D
:1034B00010E0F70161917F01812F0E94620E1F5F72
:1034C0001034B9F761E070E082E00E94D00562E05C
:1034D00070E08CE00E949A0662E070E08BE00E944F
:1034E0009A0662E070E08AE00E949A0662E070E06C
:1034F00081E10E949A0662E070E085E10E949A06EE
:1035000062E070E084E10E949A06A6EDEA2EA0E94E
:10351000FA2EBAEDAB2EB0E9BB2E1EEDC12E10E98E
:10352000D12E0AED602E00E9702E89EE882E8FE2F2
:10353000982E98EE492E93E0592E2AEF222E312C08
:1035400080E390E00E94CE238C01D7019C91B2E0F1
:10355000EB0EF11CF5012081F2E0AF0EB11CD6019B
:103560008C91B2E0CB0ED11C37E0F801338343E0FD
:10357000448335831682A1E0A783B2E3B0874186F6
:10358000528623863486158616861786108A118EF3
:10359000128E138E148E158E168E178E10A211A2F7
:1035A00012A213A214A215A216A217A210A611A667
:1035B00012A613A614A615A616A617A68083218305
:1035C000928362E070E00E949A0662E070E0D801A7
:1035D00011968C910E949A0662E070E0F801828157
:1035E0000E949A06D4010D931D934D016E147F0421
:1035F00009F0A6CFE091E92FF091EA2F80EE9FE04D
:10360000848F958F8FE991E182A393A382E897E05D
:1036100080A791A7E091EB2FF091EC2F82E793E147
:10362000848F958F86EA9FE082A393A3E0917B30FD
:10363000F0917C3080819181DC01ED91FC910684D8
:10364000F785E02D42E15AE760E070E009951092BD
:103650007D3010927F3010927E3010928530109223
:10366000863010928330109284308FEF9FEF8093DA
:103670008730909388308093893090938A300E946D
:1036800076076093133170931431809315319093C2
:1036900016311092103110928D3010928C301092A1
:1036A0008E3010928F301092113110921231109290
:1036B0008B3083E191E180936D3090936E3080E5A3
:1036C00091E180936F309093703080E691E1809328
:1036D00075309093763082E990E1809357309093E3
:1036E000583084E890E1809355309093563087EFBE
:1036F00092E180935B3090935C3060ED77E080E006
:1037000090E00E944607E6E0CE2E44244394512CDC
:10371000DD24D39477E0772EE0907D30B0E1BE15C4
:1037200008F47AC0E0917B30F0917C308081918107
:10373000DC01ED91FC910084F185E02D0995892B48
:1037400009F46AC0809120318E7F80932031E0910E
:103750007B30F0917C3080819181DC01ED91FC9196
:103760000284F385E02D0995182F8D3F09F454C08C
:103770008091853090918630009709F0CBC11093ED
:10378000803000917E30802F0E9479110E94871135
:10379000882351F017FD08C00093803010938130CA
:1037A000409285305092863010918030812F0E9457
:1037B0007911813F09F479C108F011C1803B39F0DA
:1037C00068F4803921F0803A11F0803879F423E0F0
:1037D00030E020938330309384306DC1803D09F414
:1037E00064C108F0EBC0803C09F45FC180912031D6
:1037F000816080932031E0915330F09154303097C4
:1038000009F009951092853010928630109283301D
:103810001092843010927E3039EE232E3FE2332E08
:1038200044E0642ED1010D911D911D010E94760787
:10383000F80185849684A784B088AB01BC0148193F
:1038400059096A097B09878190E0B0E0A0E0481738
:1038500059076A077B0708F48EC00E947607D801D3
:103860001D966D937D938D939C93509716968C9097
:103870001697912C12968C910E9470065C01F801AB
:1038800080810E9470067C01D80111968C910E9463
:103890007006A824B924AA0CBB1CAA0CBB1CEE0CF5
:1038A000FF1CE82AEA28F801E38294812E2D2927BB
:1038B000237009F490C2F4E09F9F900111249E2D83
:1038C0009370922BD80114969C9314979B3409F013
:1038D0007AC2EFEF5996EC93F8019581F12CF594AB
:1038E000E794F594E794E926E0FE79C20E94760712
:1038F000D80151968D909D90AD90BC905497AB019E
:10390000BC01481959096A097B0918968C9190E005
:10391000B0E0A0E084179507A607B70760F4F801A8
:10392000858180FD5AC2D5820E947607F801618B9D
:10393000728B838B948BF8018581833009F4BCC230
:1039400008F057C2882309F489C2813009F4B7C24C
:10395000F801818D928D811138C3911101C0138EB0
:10396000F801838D811148C3828D833009F4C9C267
:10397000843009F4D1C22DEE3FE22215330509F05F
:1039800051CF8091403290914132891708F0FEC2A8
:10399000E82FF0E0E254FE4CDF01AF5BBF4F2C910B
:1039A00090812913F5C2811103C06EE30E94620E5B
:1039B000809140328F5F80934032E3CF803E09F4A4
:1039C00006CF803F09F012CFA0E8B0E0A09383308B
:1039D000B093843010927E30809390306CC0873FDB
:1039E00099F308F05BC0833F09F45FC008F4EFCEA1
:1039F000863F09F0FBCE80938D3010928C30109270
:103A00008E3010928F30D0921031109285301092FB
:103A10008630109283301092843080918D308039BE
:103A200039F480918F30811103C080E880938D300C
:103A300080918D308058813630F480918C30E8163A
:103A400011F0E11002C00E94D40390918B30392F05
:103A5000317090FFE1CE892F8E7F09F4DDCE809109
:103A60008D3020E8280F213608F028C120918C30B5
:103A7000E21619F031E0E11030E09695923009F449
:103A800016C1933009F417C1913009F0C5CE4091A9
:103A90008F3060918E300E946D11BECE8D3F08F444
:103AA000AACF8E3F08F0A7CFA1CEE2E0F0E0E093EE
:103AB0008330F0938430209185303091863040916E
:103AC0008330509184304150510924173507D8F084
:103AD00080938D301F701F5F10938C3080918130E8
:103AE00080938E3010928F3040921131509212316B
:103AF000109285301092863010928330109284306C
:103B0000D09210318ACF2F5F3F4F20938530309372
:103B1000863082CE17FF0CC01D3F08F04BC0183F07
:103B200008F04BC0103F09F455C0173F09F452C0CC
:103B300020918030FC01EF5AFF4C203F19F0273FC5
:103B400009F070C017AF809083309090843094015A
:103B5000215031098217930708F4A3C0B090803038
:103B6000F0EFBF1619F027EFB2125EC010910F31BF
:103B700080EF80930F3180938D3080E880938E307A
:103B800010928F3010928C3080E890E08093113149
:103B900090931231D09210310E94D40387EF80931A
:103BA000903010939130A2E0B0E0A0938530B093B4
:103BB000863032CE1E3F08F4BBCF10938D3010926A
:103BC0008E3010928F3010928C3040921131509282
:103BD000123196CF20919030203F19F0273F09F005
:103BE00005CE9C012F5F3F4F8F5A9F4CFC0117AFB2
:103BF00080EF80938D3020938E3030938F301092F1
:103C00008C302093113130931231D09210311092B8
:103C1000853010928630109283301092843010924A
:103C20007E30FBCE17A78FCF8B2D0E947911182FD6
:103C300080938D300E948711882341F18B2D8F70E6
:103C40008F5F80938C308091813080938E30809113
:103C50008230B3E08B16910409F080E080938F30BE
:103C600010928530109286301092833010928430FA
:103C7000D0921031103B39F060F4103921F0103A35
:103C800011F0103861F6B0927E30C7CE10928C30B1
:103C9000DACF103DC1F3103EB1F3103C09F0BFCFB5
:103CA000F2CF01968093853090938630B5CD332343
:103CB00009F4B2CDECCE3111AFCDE9CEE0E1E80FA1
:103CC000E03108F0A9CDF0E0E859F14E0C947D23E5
:103CD0007E1ECF1EB01E9E1E0C1C0C1C781E0C1CC3
:103CE000781E0C1C781E781E781E0C1C781E781E00
:103CF000682F8BE790E30E9405118ECDE0908E3007
:103D0000F0908F30E1E8EE16F10418F060E8E62E4E
:103D1000F12C01E510E3C801815590438E159F05F4
:103D200008F07ACDD801DF966C9180917B3090912C
:103D30007C300E944D100F5F1F4FEDCF10918E30E1
:103D400063EF80917B3090917C300E944D10612F09
:103D50006F7780917B3090917C300E944D105CCDCC
:103D600000918F30B0E80B9F8001112480918E303C
:103D7000082B62EF80917B3090917C300E944D1037
:103D8000602F6F7780917B3090917C300E944D1036
:103D9000000F012F001F110B1195602FD9CF8091BB
:103DA0008E30E0E18E9FC0011124807710918F301A
:103DB0001F70182B61EF80917B3090917C300E94B6
:103DC0004D10612FC6CF973819F45996DC9284CDE7
:103DD000F801118E81CD118E7FCDC582A5CD0E94B7
:103DE0007607D80151966D937D938D939C9354974C
:103DF000A2CD8430A9F1863009F0AACDD801658220
:103E0000E3E05A96EC935A9794968D919C91892B66
:103E1000D9F00E947607D80155968D909D90AD906F
:103E2000BC905897AB01BC01481959096A097B0934
:103E30001B968D919C91B0E0A0E0481759076A0746
:103E40007B0710F4F801628E0E947607D801559620
:103E50006D937D938D939C9358977ACD728E78CD88
:103E6000828D84508230E8F40E947607D8015596FE
:103E70008D909D90AD90BC905897AB01BC014819B6
:103E800059096A097B0919968D919C91B0E0A0E0CF
:103E900084179507A607B70720F4F8011582C28E8C
:103EA00057CDD8015A968C915A97E5E0833009F0A6
:103EB0004FCD5A96EC934CCD7582128E49CD23E0AE
:103EC0002583928D9650923010F4828F41CDE2E09E
:103ED000D801EFCFE5E0D8015B96EC935B975C9659
:103EE000ED91FC91309709F484C0099539CD963055
:103EF00008F436CD5B967C925B979096ED91FC91A1
:103F0000F1CFE2E0D8015B96EC935B979296ED914E
:103F1000FC91309749F42FCDE3E0D8015B96EC9308
:103F20005B979496ED91FC91099525CDF801D38E80
:103F300006A0F7A1E02DEDCF843051F4F801828D79
:103F4000813009F018CD838F02A4F3A5E02DE1CFD5
:103F5000863079F4D8015A968C915A9781508230E4
:103F600008F009CD5B96DC925B979C96ED91FC91F5
:103F7000D0CF873009F0FFCCF801828D813009F075
:103F8000FACC838F06A4F7A5E02DC3CF8917A9F03B
:103F9000E82FF0E0E254FE4C60810E94620E8091B6
:103FA0004032E82FF0E0E254FE4CDF01AF5BBF4F40
:103FB00090819C938F5F8093403280E090E0892BCA
:103FC00009F4AACB0E940000A3CB992309F482CF65
:103FD0002CEF290F223038F0D8015B962C915B979B
:103FE000263009F084CFF801C38E068CF78DE02DC2
:103FF00079CFD8015B968C919EEF980F923008F0A4
:104000009BCFD8015A968C915A97823009F48ECF63
:10401000863009F0B0CC5B966C925B979896ED91E8
:10402000FC9177CF5058BB27AA270E942A200C94D6
:104030009D210E948F2138F00E94962120F039F4B2
:104040009F3F19F426F40C948C210EF4E095E7FBC5
:104050000C948621E92F0E94AE2158F3BA1762070B
:1040600073078407950720F079F4A6F50C94D02106
:104070000EF4E0950B2EBA2FA02D0B01B901900183
:104080000C01CA01A0011124FF27591B99F0593FC7
:1040900050F4503E68F11A16F040A22F232F342F0F
:1040A0004427585FF3CF469537952795A795F0405D
:1040B0005395C9F77EF41F16BA0B620B730B840B72
:1040C000BAF09150A1F0FF0FBB1F661F771F881F2A
:1040D000C2F70EC0BA0F621F731F841F48F4879582
:1040E00077956795B795F7959E3F08F0B0CF939574
:1040F000880F08F09927EE0F9795879508950E94ED
:10410000622108F481E008950E9498200C949D217A
:104110000E94962158F00E948F2140F029F45F3FC1
:1041200029F00C94862151110C94D1210C948C21EE
:104130000E94AE2168F39923B1F3552391F3951BA7
:10414000550BBB27AA2762177307840738F09F5FB8
:104150005F4F220F331F441FAA1FA9F335D00E2E25
:104160003AF0E0E832D091505040E695001CCAF792
:104170002BD0FE2F29D0660F771F881FBB1F261755
:1041800037074807AB07B0E809F0BB0B802DBF012C
:10419000FF2793585F4F3AF09E3F510578F00C94FB
:1041A00086210C94D1215F3FE4F3983ED4F38695A9
:1041B00077956795B795F7959F5FC9F7880F911D1C
:1041C0009695879597F90895E1E0660F771F881F08
:1041D000BB1F621773078407BA0720F0621B730BBB
:1041E000840BBA0BEE1F88F7E09508950E94B62164
:1041F00088F09F5798F0B92F9927B751B0F0E1F0A8
:10420000660F771F881F991F1AF0BA95C9F714C057
:10421000B13091F00E94D021B1E008950C94D021EA
:10422000672F782F8827B85F39F0B93FCCF3869590
:1042300077956795B395D9F73EF4909580957095ED
:1042400061957F4F8F4F9F4F0895E89409C097FB6A
:104250003EF490958095709561957F4F8F4F9F4F5D
:104260009923A9F0F92F96E9BB279395F6958795A1
:1042700077956795B795F111F8CFFAF4BB0F11F464
:1042800060FF1BC06F5F7F4F8F4F9F4F16C088230B
:1042900011F096E911C0772321F09EE8872F762F41
:1042A00005C0662371F096E8862F70E060E02AF082
:1042B0009A95660F771F881FDAF7880F969587956E
:1042C00097F90895990F0008550FAA0BE0E8FEEF43
:1042D00016161706E807F907C0F012161306E407CA
:1042E000F50798F0621B730B840B950B39F40A26C3
:1042F00061F0232B242B252B21F408950A2609F4A1
:10430000A140A6958FEF811D811D089597F99F67A4
:1043100080E870E060E008959FEF80EC089500244D
:104320000A941616170618060906089500240A941A
:1043300012161306140605060895092E0394000CA0
:1043400011F4882352F0BB0F40F4BF2B11F460FF2F
:1043500004C06F5F7F4F8F4F9F4F089557FD905858
:10436000440F551F59F05F3F71F04795880F97FB39
:10437000991F61F09F3F79F08795089512161306F3
:104380001406551FF2CF4695F1DF08C01616170622
:104390001806991FF1CF8695710561050894089557
:1043A000E894BB2766277727CB0197F9089516F085
:1043B0000C94D3220C948C2168940C9486210E9436
:1043C000B621A8F39923C1F3AEF3DF93CF931F93E4
:1043D0000F93FF92C92FDD2788232AF02197660FBC
:1043E000771F881FDAF720E030E040E85FEB9FE3BB
:1043F000883920F0803E38F021968F770E94132074
:10440000E0EAF0E004C00E941320EDECF0E00E942E
:10441000E1228B01BE01EC01FB2E6F5771097595EE
:10442000771F880B990B0E94272128E132E741E38F
:104430005FE30E943A22AF2D9801AE01FF900F91E9
:104440001F91CF91DF910E942A200C949D210E9400
:104450003A220C949D210E948F2138F00E949621CF
:1044600020F0952311F00C9486210C948C211124BA
:104470000C94D1210E94AE2170F3959FC1F3950F4A
:1044800050E0551F629FF001729FBB27F00DB11DD8
:10449000639FAA27F00DB11DAA1F649F6627B00D68
:1044A000A11D661F829F2227B00DA11D621F739F51
:1044B000B00DA11D621F839FA00D611D221F749F5F
:1044C0003327A00D611D231F849F600D211D822FA6
:1044D000762F6A2F11249F5750409AF0F1F08823CD
:1044E0004AF0EE0FFF1FBB1F661F771F881F9150FA
:1044F0005040A9F79E3F510580F00C9486210C9402
:10450000D1215F3FE4F3983ED4F386957795679584
:10451000B795F795E7959F5FC1F7FE2B880F911D23
:104520009695879597F908950E94B621E8F09E37F1
:10453000E8F09639B8F49E3848F4672F782F88272A
:10454000985FF9CF86957795679593959539D0F3D0
:10455000B62FB1706B0F711D811D20F48795779573
:10456000679593950C94B8220C94D3220C94D12186
:10457000882371F4772321F09850872B762F07C07A
:10458000662311F499270DC09051862B70E060E0EE
:104590002AF09A95660F771F881FDAF7880F96958D
:1045A000879597F908959F3F31F0915020F48795B2
:1045B00077956795B795880F911D9695879597F98B
:1045C0000895DF93CF931F930F93FF92EF92DF92A3
:1045D0007B018C01689406C0DA2EEF010E943A221A
:1045E000FE01E894A5912591359145915591A6F349
:1045F000EF010E942A20FE019701A801DA9469F7D1
:10460000DF90EF90FF900F911F91CF91DF91089570
:10461000991B79E004C0991F961708F0961B881F14
:104620007A95C9F780950895AA1BBB1B51E107C075
:10463000AA1FBB1FA617B70710F0A61BB70B881F32
:10464000991F5A95A9F780959095BC01CD010895C1
:1046500097FB072E16F4009407D077FD09D00E942F
:10466000142307FC05D03EF4909581959F4F089543
:10467000709561957F4F0895A1E21A2EAA1BBB1B6E
:10468000FD010DC0AA1FBB1FEE1FFF1FA217B3071E
:10469000E407F50720F0A21BB30BE40BF50B661F34
:1046A000771F881F991F1A9469F7609570958095F8
:1046B00090959B01AC01BD01CF010895052E97FB9C
:1046C0001EF400940E94752357FD07D00E943C23DE
:1046D00007FC03D04EF40C9475235095409530950B
:1046E00021953F4F4F4F5F4F08959095809570955E
:1046F00061957F4F8F4F9F4F0895EE0FFF1F0590DD
:10470000F491E02D0994A29FB001B39FC001A39F33
:10471000700D811D1124911DB29F700D811D1124FA
:10472000911D08950E948323A59F900DB49F900D25
:10473000A49F800D911D11240895B7FF0C9492231E
:104740000E949223821B930B089597FD1094002ED4
:10475000083098F00850232F342F452F562F672FFD
:10476000782F892F912DF4CF15949795879577956C
:10477000679557954795379527950A95AAF7112478
:10478000002D08950024A7FD00942A173005400548
:104790005005600570058005900508950F931F93DF
:1047A000CF93DF938230910510F482E090E0E091A6
:1047B0004632F091473230E020E0B0E0A0E03097A0
:1047C00099F42115310509F44AC0281B390B24300E
:1047D0003105D8F58A819B816115710589F1FB014D
:1047E00082839383FE0111C0408151810281138134
:1047F00048175907E0F04817590799F4109761F0E6
:1048000012960C93129713961C933296CF01DF9158
:10481000CF911F910F910895009346321093473224
:10482000F4CF2115310551F04217530738F0A90193
:10483000DB019A01BD01DF01F801C1CFEF01F9CF22
:104840008093463290934732CDCFFE01E20FF31FA3
:10485000819391932250310928833983D7CF2091B6
:10486000443230914532232B41F420918D2E3091EA
:104870008E2E209344323093453220918B2E3091EE
:104880008C2E2115310541F42DB73EB740918F2E66
:104890005091902E241B350BE0914432F09145321B
:1048A000E217F307A0F42E1B3F0B2817390778F007
:1048B000AC014E5F5F4F2417350748F04E0F5F1F66
:1048C0004093443250934532819391939FCFF0E0CF
:1048D000E0E09CCFCF93DF930097E9F0FC013297A3
:1048E00012821382A0914632B0914732ED0130E03E
:1048F00020E01097A1F420813181820F931F209135
:104900004432309145322817390709F061C0E093ED
:104910004432F0934532DF91CF910895EA01CE17EA
:10492000DF07E8F54A815B819E0141155105B1F72A
:10493000E901EA83FB8349915991C40FD51FEC1714
:10494000FD0761F4808191810296840F951FE90132
:1049500088839983828193818A839B83F0E0E0E05E
:1049600012968D919C9113970097B9F52D913C91DA
:104970001197CD010296820F931F209144323091FE
:1049800045322817390739F6309751F510924632DB
:1049900010924732A0934432B0934532BCCFC283C9
:1049A000D38340815181840F951FC817D90761F4C3
:1049B0004E5F5F4F88819981480F591F4083518313
:1049C0008A819B81828393832115310509F0B0CFC1
:1049D000E0934632F09347329ECFFD01DC01C0CF19
:1049E00012821382D7CFFB01DC0101900D920020CF
:1049F000E1F70895AEE0B0E0E0E0F5E20C94A9271D
:104A00000D891E8986E08C8309831A838FEF9FE7C7
:104A10008D839E83AE01475E5F4F6F89788DCE0197
:104A200001960E941D252F813885020F131FF80162
:104A300010822E96E4E00C94C227ABE0B0E0E3E2F3
:104A4000F5E20C949B277C013B018A01FC01168254
:104A50001782838181FFC8C1CE0101965C01F701F5
:104A60009381F30193FD859193FF81913F01882309
:104A700009F453C1853239F493FD859193FF8191F7
:104A80003F01853229F4B70190E00E940D27E7CF5E
:104A9000912C212C312CFFE1F31538F08B3211F1E0
:104AA00090F4803209F1833229F137FC3CC020EDCB
:104AB000280F2A3050F536FE20C08AE0989E200D3F
:104AC0001124922E06C08D3291F0803371F76894D4
:104AD00030F8F30193FD859193FF81913F0181119E
:104AE000DACF21C0689431F8689432F8F2CF689434
:104AF00033F8EFCF689434F8ECCFEAE02E9E200D27
:104B00001124222E689435F8E4CF8E3229F436FC35
:104B100004C1689436F8DDCF8C3619F4689437F800
:104B2000D8CF8836B1F2982F9F7D95549330E0F01E
:104B30008336A1F18337C1F1833509F063C02801C1
:104B4000F2E04F0E511CF801C080D180692D70E059
:104B500036FC02C06FEF7FEFC6010E94F7264C01C2
:104B6000689437F882010AC00C5F1F4FFFE3F98396
:104B700088248394912C6501E89437F833FE2DC086
:104B8000522C8114910471F5552009F468CFB701B6
:104B900080E290E00E940D275A94F6CFF8018081C0
:104BA00089830E5F1F4FE4CF2801F2E04F0E511CA6
:104BB000F801C080D180692D70E036FC02C06FEF33
:104BC0007FEFC6010E9402274C018201D5CFB701B9
:104BD00080E290E00E940D272A942814190409F01D
:104BE000B0F7CECFF60137FC859137FE81916F018A
:104BF000B70190E00E940D2751105A94F1E08F1AEE
:104C00009108BFCF843619F0893609F077C0F801D2
:104C100037FE6BC060817181828193810C5F1F4F71
:104C2000F32DFF763F2E97FF09C0909580957095E4
:104C300061957F4F8F4F9F4F689437F82AE030E09F
:104C4000A5010E943D27C82ECA188C2C432C36FE85
:104C50000CC0E89440F8C91440F434FE05C032FC9E
:104C600003C0F32DFE7E4F2E892C44FE95C0FE011D
:104C7000EC0DF11D8081803309F087C0242D297E41
:104C8000422E842D8870582E43FC95C040FE8FC064
:104C90009C2C821418F42C0C922C981844FE91C071
:104CA000B70180E390E00E940D2742FE09C088E72B
:104CB00090E041FE02C088E590E0B7010E940D2718
:104CC000C91408F48AC0CA94D12C9FEFC91AD90A12
:104CD000CA0CDB1CF60182916F01B70190E00E94C3
:104CE0000D27AC14BD04B1F74FCF60817181072E41
:104CF000000C880B990B0E5F1F4F92CFD32CE894BA
:104D0000D4F82AE030E0853739F1232D297FD22EDF
:104D10008F3601F148F48835A9F0F7018681978133
:104D20002B96E2E10C94B427803749F08837A9F735
:104D3000D4FE02C06894D2F820E130E00DC068943F
:104D4000D4F8F6CF34FE03C0822F8660D82E20E13F
:104D500032E002C028E030E0F801D7FE0FC06081E9
:104D60007181828193810C5F1F4FA5010E943D27B5
:104D7000C82ECA183D2CE89437F867CF608171813E
:104D800090E080E00E5F1F4FF0CF42FC02C08394A2
:104D900078CF8394839475CF842D867809F471CF6E
:104DA000F6CFB70180E290E00E940D278394821431
:104DB000C0F3512C73CF522C5818821408F46ECFC4
:104DC000F8CF842D867809F47BCF8BE241FE80E218
:104DD00047FC8DE2B70190E071CFB70180E390E02E
:104DE0000E940D279A946CCF8FEF9FEF99CFFC0113
:104DF0000590615070400110D8F7809590958E0F06
:104E00009F1F0895FC016150704001900110D8F778
:104E1000809590958E0F9F1F08950F931F93CF93AA
:104E2000DF93182F092FEB018B8181FD09C01FEF44
:104E30000FEF812F902FDF91CF911F910F91089548
:104E400082FF14C02E813F818C819D8128173907F4
:104E50003CF4E881F981CF0101968883998310831E
:104E60008E819F8101968E839F83E3CFE885F985AC
:104E7000812F0995892BA1F3DACFFA01AA272830CF
:104E800051F1203181F1E8946F936E7F6E5F7F4F17
:104E90008F4F9F4FAF4FB1E03ED0B4E03CD0670F93
:104EA000781F891F9A1FA11D680F791F8A1F911DE6
:104EB000A11D6A0F711D811D911DA11D20D009F436
:104EC00068943F912AE0269F11243019305D319378
:104ED000DEF6CF010895462F4770405D4193B3E061
:104EE0000FD0C9F7F6CF462F4F70405D4A3318F008
:104EF000495D31FD4052419302D0A9F7EACFB4E0B9
:104F0000A6959795879577956795BA95C9F7009770
:104F10006105710508959B01AC010A2E0694579511
:104F2000479537952795BA95C9F7620F731F841F68
:104F3000951FA01D08952F923F924F925F926F92FE
:104F40007F928F929F92AF92BF92CF92DF92EF9219
:104F5000FF920F931F93CF93DF93CDB7DEB7CA1B9A
:104F6000DB0BCDBFDEBF09942A88398848885F846F
:104F70006E847D848C849B84AA84B984C884DF80F9
:104F8000EE80FD800C811B81AA81B981CE0FD11DDD
:0C4F9000CDBFDEBFED010895F894FFCF07
:104F9C00B06300B06200B006000000000001000227
:104FAC000003000400050006009392969299929CCF
:104FBC00929F92A292A592A892AB92AE92B192B409
:104FCC0092636363636363636363636303030703F2
:104FDC000763011F630E63636363636363636363EC
:104FEC0063030307030763011F630E636363636358
:104FFC00636363636363030307030763011F630E48
:10500C00636363636363636363636303030703073C
:10501C0063011F630E63636363636363636363634F
:10502C00030307030763011F630E63636363636317
:10503C006363636363030307030763011F630E6307
:10504C00636363636363631F0701636363630105E6
:10505C0007307F7F7F7F7F7F7F7F3F0000000D07C2
:10506C000604151E1F1815A015C019FF1815A1153B
:10507C00C819FF1815AE19FF1815AF19FF1815AE82
:10508C0015D5168015A8163F15D316001540158D8D
:10509C0016141520160015A115C815DA161215814F
:1050AC0016CF15D916F115DB1640152E15A415A61D
:1050BC0019FF0001140A6464323200127A000004F1
:1050CC00289610080000800040000A0014000B0015
:1050DC0015000C001100000000030001020000018B
:1050EC0001000000000000000000000000000000B3
:1050FC00050400050602040103000100010203027D
:10510C00010002030405020305040202000502016A
:10511C000500040101040404030303030505030350
:10512C0000000101201001204004100208010201BE
:10513C0002040804020104081020040820108687C9
:10514C00FFFFFFFFFFFFFFFFFFFFFFFFFFFF3F40E2
:10515C0044422A2B2F2D15161A180001050346312F
:10516C001C070000000000000000000000004F4E73
:10517C003A392524100FFFFFFFFFFFFFFFFF898A3D
:10518C008B8E8FFFFFFFFFFFFFFFFFFFFFFF5152D3
:10519C003C3D27281213FFFFFFFFFFFFFFFF48498D
:1051AC004A4B47FFFFFFFFFFFFFFFFFFFFFF000022
:1051BC0000000000000000000000000000000000E3
:1051CC0000000000000000000000000000000000D3
:1051DC0000000000000000000000000000000000C3
:1051EC0000000000000000000000000000000000B3
:1051FC0000000000000000000000000000000000A3
:10520C000000000000000000000000000000000092
:10521C000000000000000000000000000000000082
:10522C000000000000000000000000000000000072
:10523C0000005D058507C204AE05F304D104E50446
:10524C0096119F06FF04B207000000002C09070905
:10525C004A10DD080009ED08DE08FD09B809AB09A4
:10526C00A7096E094F0947097D097509B608B108E8
:10527C000210040805080500000000340F21104A34
:10528C0010491025326400432000432300442000C1
:10529C0044230045200046200046230047200047B9
:1052AC00230041200041230042200076312E3300A0
:1052BC00202053454E4420535953455820544F20D9
:1052CC002020564F4C434120464D20342D4F50202A
:1052DC0020204259204349594C4142202020202073
:0552EC002020257300E5
:1052F1002031202020202020345D2020202020204B
:10530100202020202020322D33202020202020206A
:10531100202020202020312020202020202020207B
:105321002020202020202A20202020202020202072
:10533100002032202020202020345D202020202029
:1053410020202020202020332D322020202020202A
:10535100202020202020202020312020202020203B
:105361002020202020202020202A20202020202032
:105371002000203320202020203420202020202025
:105381002020202020202020203320202020202009
:10539100202020202020202020312D325D2020209F
:1053A1002020202020202020202A202020202020F2
:1053B10020200020342020202020345D20202020A7
:1053C10020202020202020202020332020202020C9
:1053D10020202020202020202020312D322020209C
:1053E100202020202020202020202A2020202020B2
:1053F10020202000203520202020202020202020B7
:10540100202020202020202020203220345D202038
:105411002020202020202020202031203320202067
:10542100202020202020202020202A202A20202067
:105431002020202000203620202020202020202075
:10544100202020202020202020202020345D20200A
:105451002020202020202020202031203220332015
:10546100202020202020202020202A202A202A201D
:105471002020202020002037202020202020202034
:105481002020202020202020202020202020203407
:105491005D20202020202020202020312032203398
:1054A10020202020202020202020202A202A202ADD
:1054B10020202020202000203820202020202020F3
:1054C10020202020202020202020202020202020DB
:1054D1002020202020202020202020312032203395
:1054E10020345D20202020202020202A202A202A4C
:1054F100202A20202020200020414C4752544D20BA
:105501002046444241434B20204144535220202015
:10551100204C342020202020204F55545055542019
:10552100204C464F2020202020465245512020204B
:10553100205343414C45202000204131202044315B
:10554100202053312020523120204132202044326A
:105551002020533220205232202041332020443356
:105561002020533320205233202041342020443442
:1055710020205334202052342000204F503120204D
:1055810020202020202020202020204F50322020A9
:1055910020202020202020202020204F5033202098
:1055A10020202020202020202020204F5034202087
:1055B1002020202020202020202000204F4C564C4D
:1055C100312020204B565331202020204F4C564C67
:1055D100322020204B565332202020204F4C564C55
:1055E100332020204B565333202020204F4C564C43
:1055F100342020204B565334202020002053504586
:10560100454420202044454C415920202044455008
:1056110054482020205741564520202020535049EE
:1056210054434820202020202020202020202020FA
:105631002020202020202020202020200020434F37
:1056410041523120202046494E4531202020434FF0
:1056510041523220202046494E4532202020434FDE
:1056610041523320202046494E4533202020434FCC
:1056710041523420202046494E4534202000204C00
:105681004445505448202052444550544820204C11
:1056910043555256452020524355525645202042EB
:1056A1005245414B20202020202020202020202056
:1056B1002020202020202020202020202020000029
:1056C10024F400636300006363636300000000006F
:1056D1000000003200010000636300006363636344
:1056E10000000000000000003200010000636300C0
:1056F10000636363630000000000000000320001EA
:105701000000636300006363636300000000000046
:105711000000630001000000000000000000000024
:105721000000000000000000000000000000000078
:105731000000000000000000000000000000000068
:1057410000323232323232323200000100000000C7
:10575100000000004D5950415443482020203F088B
:105761002A0000080010001800200028003000382E
:105771000000000000000000000000000000000028
:10578100000800492A0000040008000C0010001461
:105791000018001C002000240028002C00300034D8
:1057A1000038003C0000008A2A0000100020003070
:1057B10000000000000000000000000000000000E8
:1057C1000000000000000000000000CB2A000008DB
:1057D10000100018002000280030003800000000F0
:1057E1000000000000000000000000000000000CAC
:1057F1002B0000080010001800200028003000389D
:105801000000000000000000000000000000000097
:105811000000004D2B000008001000180020002897
:10582100003000380000000000000000000000000F
:10583100000000000000008E2B000008001000187E
:105841000020000000000000000000000000000037
:10585100000000000000000000000000280000001F
:105861000000000000000000000000000000000037
:1058710000000000000000000000000000000041E6
:1058810028000000000000000000000000000000EF
:105891000000000000000000000000000000000007
:1058A100000000822800000000000000000000004D
:1058B10000000000000000000000000000000000E7
:1058C10000000000000000C32800000000000000EC
:1058D10000000000000000000000000000000000C7
:1058E100000000000000000000000004290000008A
:1058F10000000000000000000000000000000000A7
:105901000000000000000000000000000000004551
:10591100290000000000000000000000000000005D
:105921000000000000000000000000000000000076
:1059310000000086290000000000000000000000B7
:105941000000000000000000000000000000000056
:1059510000000000000000C7290000000000000056
:105961000000000000000000000000000000000036
:10597100000000000000000000000000004832802C
:02598100000024
:00000001FF
