:100000000C9477030C949F030C949F030C949F0310
:100010000C949F030C949F030C949F030C949F03D8
:100020000C949F030C949F030C949F030C949F03C8
:100030000C94EA110C949F030C94A2120C94531389
:100040000C949F030C949F030C949F030C949F03A8
:100050000C949F030C949F030C949F030C949F0398
:100060000C949F030C949F030C949F030C949F0388
:100070000C949F030C949F030C949F030C94741294
:100080000C944E120C949F030C949F030C949F03AA
:10009000000000000000000000000000000001015E
:1000A0000100000002030000000001000001020343
:1000B0000405060703000102000102030203040510
:1000C000040506070505000000000000000002020C
:1000D00002020303030305050505030303030201ED
:1000E00001020408102040800801020401020408F3
:1000F0000408102010204080207E01020000000033
:10010000000000000000000000000000F0000000FF
:10011000000000003F00000000000000F0F00000C0
:10012000000000003F3F0000000000000080F08061
:10013000F080000000043F043F040000F0F0F0F005
:10014000000000003F3F3F3F00000000F0F0F0F0F3
:10015000F00000003F3F3F3F3F000000F0F0F0F0B4
:10016000F0F000003F3F3F3F3F3F0000F0F0F0F075
:10017000F0F0F0003F3F3F3F3F3F3F000000806016
:100180001008000000000F304080000000081060E0
:1001900080000000008040300F000000008000C0A0
:1001A000008000000008051F05080000000000C0D6
:1001B000000000000002021F020200000000000018
:1001C000000000000000907000000000000000002F
:1001D0000000000000020202020200000000000015
:1001E00000000000000020702000000000000080DF
:1001F00060180000C0300C0300000000C020101088
:1002000020C000000F102020100F0000004020F040
:10021000000000000020203F20200000601010108F
:1002200010E000002030282423200000101010903F
:100230005030000018202121211E00000000C020A5
:10024000F00000000C0B08083F080000F0909090B0
:100250009010000019202020201F0000C020101046
:10026000100000001F222121211E0000101010107C
:10027000D030000000300C0300000000609010102F
:10028000906000001C222121221C0000E0101010B0
:1002900010E0000019222222110F0000000080C08F
:1002A0008000000000001039100000000000808075
:1002B000000000000000493900000000000000803C
:1002C000402000000002050810200000808080808F
:1002D000808000000404040404040000F0E0C080F6
:1002E000000000007F3F1F0F070200006010101089
:1002F000906000000000003700000000C020905017
:1003000050E000000F102728282F0000C0201010F8
:1003100020C000003F020202023F0000F010101057
:10032000A04000003F212121120C0000E01010101D
:10033000106000001F20202020180000F010101076
:1003400020C000003F202020100F0000F0101010EF
:10035000101000003F21212120200000F01010107B
:10036000101000003F01010100000000E01010101B
:10037000106000001F202022123E0000F00000004C
:1003800000F000003F010101013F0000001010F0EB
:10039000101000000020203F20200000000000106E
:1003A000F0100000182020201F000000F000804006
:1003B000201000003F01020408300000F00000009F
:1003C000000000003F20202020200000F0608080FE
:1003D00060F000003F000101003F0000F0C000009D
:1003E00000F000003F0001020C3F0000E010101080
:1003F00010E000001F202020201F0000F01010102F
:1004000010E000003F02020202010000E0101010A4
:1004100010E000001F242428709F0000F01010102E
:1004200010E000003F0202060A310000E010101048
:100430001060000018212122221C0000101010F072
:10044000101010000000003F00000000F00000004D
:1004500000F000001F202020201F0000F0000000FE
:1004600000F00000000738380700000000F000002E
:1004700000F00000001F201C201F000030C0000002
:10048000C0300000300C03030C300000007080000E
:10049000807000000000013E01000000101010906C
:1004A00050300000302C2221202000000000F808ED
:1004B000080800000000FF808080000018608000B5
:1004C000000000000000030C30C000000008080815
:1004D000F800000000808080FF0000002010080865
:1004E00010200000000000000000000000000000DC
:1004F00000000000808080808080000000000810E4
:10050000200000000000000000000000008080804B
:100510008000000019242424243F0000F000808083
:10052000800000003F112020201F000000808080FC
:10053000800000001F20202020110000008080800B
:1005400000F000001F202020113F0000008080806C
:10055000800000001F242424241700000000E01065
:100560001020000001013F01010000000080808098
:10057000008000006798A8A8A7400000F0008080D5
:10058000800000003F010000003F0000000080B03C
:10059000000000000020203F20200000000000009C
:1005A00080B0000000608080807F0000F0000000CC
:1005B000800000003F04060910200000000010F039
:1005C000000000000020203F20200000008080006C
:1005D00080000000003F001F003F0000800080807E
:1005E000800000003F010000003F0000008080808C
:1005F000800000001F202020201F0000800080803D
:1006000080000000FF112020201F0000008080805B
:10061000008000001F20202011FF0000800080804B
:10062000800000003F010000000300000080808087
:100630008000000011222424281100008080F08016
:100640008000000000001F2020100000800000003B
:10065000008000001F202020103F000000800000CC
:100660000080000000030C300C030000008000003C
:1006700000800000001F201E201F000080000000DE
:1006800000800000310A04040A31000080000000EC
:10069000008000004F909090887F000080808080D4
:1006A0008080000020302C2221200000000000F07B
:1006B000080800000000027D80800000000000F8B3
:1006C00000000000000000FF00000000000808F02B
:1006D000000000000080807D020000003008102033
:1006E000403000000000000000000000131411243E
:1006F0001FBECFEFCDBFDFE3DEBF1EE2A0E0B8E25A
:10070000EBE1F5E402C005900D92A239B107D9F7EB
:1007100022E3A2E9BEE201C01D92AC33B207E1F7C9
:1007200013E0C7E7D3E004C02197FE010E940F1D2C
:10073000C637D107C9F70E94DC150C9435210C94FB
:10074000000080E008951F93CF93DF93CDB7DEB70D
:100750002597CDBFDEBF1C8221E02B8389839A833E
:10076000E0911130F091123011891D82A091113069
:10077000B0911230E0911530F09116309E012F5F4C
:100780003F4F50964C916FE081E190E309958D8148
:100790008F5F8D83811750F32596CDBFDEBFDF912C
:1007A000CF911F910895E0914730F09148303097F4
:1007B00019F082E890E3099580918330823F09F433
:1007C000BAC090F5803C09F499C0B8F4803909F4B6
:1007D0004FC040F4E0914B30F0914C30803809F438
:1007E0004BC00895803A09F484C0E0915130F091F3
:1007F0005230803B09F440C00895803E09F462C045
:1008000040F4E0915530F0915630803D09F47AC0C3
:100810000895803F09F47DC0E0915B30F0915C3039
:10082000813F09F49BC008958A3FC1F1A8F4863F37
:1008300009F499C040F4E0915F30F0916030833F5B
:1008400009F48CC00895883F09F1E0916730F09178
:100850006830893FF9F008958C3F51F120F18E3FC7
:1008600061F1E0916F30F09170308F3F99F0089511
:10087000E0914D30F0914E30309709F479C04091BD
:10088000853060918430809182300994E0916330AA
:10089000F0916430309709F46BC00994E0916530B1
:1008A000F0916630F7CFE0916930F0916A30F2CF85
:1008B000E0916B30F0916C30EDCFE0916D30F091C4
:1008C0006E30E8CFE0915730F0915830309709F40E
:1008D0004FC06091853020E8629FB001112460789C
:1008E0007F73809184308F77682B70528091823033
:1008F0000994E0914F30F0915030BECFE0915330E9
:10090000F09154303097A1F1609184308091823021
:100910000994E0915930F0915A30309749F1609143
:100920008430709185306138710510F060E870E0B6
:1009300086E890E30994E0915D30F0915E30309765
:10094000B9F08091853020E8829FC0011124807821
:100950009F73209184302F77822B0994309741F038
:10096000809184300994E0916130F091623092CFAF
:1009700008959B01DC011896ED91FC9141E067E13F
:100980000994FC0154894589252F30E0842F90E09B
:10099000821B930B541710F0CF960895019708957A
:1009A000FC0192898389981761F0A389AE0FBF2F4C
:1009B000B11D59968C9193899F5F9F73938B90E0A3
:1009C00008958FEF9FEF0895FC019289838998170E
:1009D00031F08389E80FF11D818D90E008958FEF4C
:1009E0009FEF0895FC0192892389892F90E0805C14
:1009F0009F4F821B91098F7399270895CF93DF939F
:100A0000EC01E881F9810284F385E02D0995EC85FC
:100A1000FD8586818F738683EC85FD8585818F7545
:100A200085838B898A8B198ADF91CF910895CF9323
:100A3000DF93FC0194898589C485D585981306C008
:100A40008D818F7D8D83DF91CF910895A589AE0F24
:100A5000BF2FB11DA75ABF4F2C91858990E00196F9
:100A60008F739927858B80E48C83A485B585129636
:100A70002C93A485B58514968C91149785FFFBCF94
:100A8000948985899813DFCF15968C9115978F7D62
:100A900015968C9387898823B1F2808D80931301FA
:100AA000178AD1CFEF92FF920F931F93CF93DF93CB
:100AB000EC0181E0898B9C898D8998131CC0AC85E1
:100AC000BD8514968C91149785FF15C012966C9372
:100AD000AC85BD8580E414968C93EC85FD8585817D
:100AE0008F7D858381E090E0DF91CF911F910F9101
:100AF000FF90EF9008958091110180FF08C08091D0
:100B00001301888F8E898093130181E08F8BF62EDD
:100B10000C8910E00F5F1F4F0F731127E02E8D8996
:100B20008E110CC00FB607FE05C0EC85FD858581D2
:100B300085FDF5CFCE010E941705F1CFEC89EC0FB2
:100B4000FD2FF11DE75AFF4FF0820C8BEC85FD85E0
:100B500085818062C6CFCF93DF93FC012189222358
:100B6000F9F0EC018091110180FF08C08091130120
:100B7000808F86898093130181E0878BEC85FD85CA
:100B8000858185FD03C0848186FD0AC00FB607FEFE
:100B900003C0858185FDF2CFCE010E941705EECFFF
:100BA000DF91CF91089587E191E30E94F20421E063
:100BB000892B09F420E0822F089580E090E0892BB2
:100BC00049F080E090E0892B29F00E94000081111B
:100BD0000E94000080E090E0892B29F00E94D3055C
:100BE00081110C940000089590E0FC01E252FF4F47
:100BF00024912F3F11F1FC01EC53FF4FA49130E2FF
:100C0000A39FD0011124BC5F6130710519F41196C6
:100C10002C930895FC01E655FF4FE491EF3F71F0EE
:100C2000CD014096E80FF92FF11D9FB7F894129669
:100C30002C938081886080839FBF0895F0E0E0E07E
:100C4000F4CF90E0FC01E057FF4FE491EE2321F157
:100C5000E13021F008F1E630B0F0089586559F4F5D
:100C6000FC0184914091010A8C5F21E030E0B901E0
:100C700002C0660F771F8A95E2F7CB018095842327
:100C80008093010A089570E1E79FF0011124E05A72
:100C9000F54F81818F7E81830895FF920F931F937B
:100CA000CF93DF93C82FD0E0FE01E252FF4FF490C4
:100CB0009FEFF916B1F08B018A3110F40E942106E2
:100CC000FE01EC53FF4FA49180E2A89FD0011124B4
:100CD000BC5F8C918F21A1F00115110541F416968E
:100CE000FC92DF91CF911F910F91FF9008950230F8
:100CF000110519F41796FC92F4CF1596FC92F1CFDA
:100D0000FE01E655FF4FE491109779F0EF3F69F04F
:100D10005096EA0FFB2FF11D9FB7F8948081012BAD
:100D200039F4877F80839FBFDCCFF0E0E0E0F4CF31
:100D30008860F8CF1F93CF93DF93C82FD0E0FE01D8
:100D4000E252FF4F14911F3FB9F08A3110F40E9414
:100D50002106CC53DF4FFE01C491F0E2CF9FE001AA
:100D60001124DC5FE885E12381E090E009F480E074
:100D7000DF91CF911F91089580E090E0F9CF8A3103
:100D800010F40C944D0608958A3110F40C94F40577
:100D900008958F929F92AF92BF92EF92FF920F931E
:100DA0001F93CF93DF93EC014A015B01E22E898907
:100DB000882339F0E881F9810088F189E02DCE019E
:100DC000099598898091E205892B8093E205FFB609
:100DD000F89460916B2C70916C2C80916D2C90919B
:100DE0006E2C23E0660F771F881F991F2A95D1F775
:100DF000A50194010E94CE1C2F5F3F4F4F4F5F4FC4
:100E00005695479537952795EC85FD8586818D7F8D
:100E10008683EC85FD8586818683198A80912311DE
:100E2000E82F880FFF0BDF01BC5F0E942F1D0C8590
:100E30001D85AF01F7FF03C051954195510920E091
:100E400034E0241B350B032E000C440B550B0E9481
:100E5000F01CF80120873187EC85FD85E782EC8561
:100E6000FD858681806C8683EC85FD858581806823
:100E700085838E8562E070E00E94C4068F8561E004
:100E800070E00E94BF068F8561E070E00E94C4069A
:100E9000FFBEDF91CF911F910F91FF90EF90BF9018
:100EA000AF909F908F900895CF93DF938FB7F89472
:100EB0002091F72F3091F82F4091F92F5091FA2F70
:100EC000E0918A0A9091860A90FF06C02F5F3F4FFB
:100ED0004F4F5F4FE0918A0A8FBFA091F52FB091DD
:100EE000F62FC091F32FD091F42F0E94241DEC9F78
:100EF0009001ED9F300D1124620F731F811D911D14
:100F0000DF91CF9108958F929F92AF92BF92CF922F
:100F1000DF92EF92FF924B015C010E9454076B013C
:100F20007C01A8EEB3E0A50194010E94241DC60E29
:100F3000D71EE81EF91EC616D706E806F90618F4ED
:100F40000E945407F8CF0E9454076C157D058E054A
:100F50009F05C8F3FF90EF90DF90CF90BF90AF90C8
:100F60009F908F9008952FB7F8946091EF2F709114
:100F7000F02F8091F12F9091F22F2FBF08950C94B4
:100F800000000895AF92BF92CF92DF92EF92FF924E
:100F90000F931F93CF93DF936C017B018B01040FA1
:100FA000151FEB015E01AE18BF08C017D10759F03D
:100FB0006991D601ED91FC910190F081E02DC6017F
:100FC0000995892B79F7C501DF91CF911F910F9179
:100FD000FF90EF90DF90CF90BF90AF90089581E0A9
:100FE00008950F9391E09093E42F1092E32F609374
:100FF000E12F7093E22F4093E02F2093DF2F109288
:10100000DE2F1092DD2F0093DC2F880F8093DB2FD3
:1010100023E030E044E050E08091E02F882341F06D
:101020002093D92F3093DA2F8091DB2F8E7F0BC046
:101030008091DF2F882351F04093D92F5093DA2FDE
:101040008091DB2F81608093A70808C08091E02FFA
:10105000811104C08091DF2F882311F38091E32F49
:101060008823E1F38091E32F8330B1F28091DF2F69
:10107000882321F08091DD2F0F9108959091E32F27
:1010800081E09130C9F780E0F7CFE0EAF8E09185A0
:101090009066918722E030E02093D92F3093DA2FA9
:1010A0008093CB2F1092CA2F089581E08093CA2F8E
:1010B0001092CB2F93E09093AA089091AB0891FFE8
:1010C00010C01092D72FE091C82FF091C92F099529
:1010D0008093D62F85E090E08093D92F9093DA2FDC
:1010E00008951092D82F8093D52F86E090E0F4CF0A
:1010F0008F929F92AF92BF92CF92DF92EF92FF9228
:10110000CF93DF9360342DE0720723E082079105CF
:1011100008F44EC0611525E372072CE082079105A3
:1011200008F43FC060387F448241910508F040C018
:10113000C8E7D0E020E432E44FE050E080906B2C30
:1011400090906C2CA0906D2CB0906E2CC501B401C9
:101150000E94CE1C69017A018AE0C81AD108E10810
:10116000F108DE01A50194010E94241D20E03AEC63
:101170004AE95BE30E94CE1CC21AD30AE40AF50ACC
:10118000F694E794D794C794C092A608DF91CF91C4
:10119000FF90EF90DF90CF90BF90AF909F908F9097
:1011A0000895CCE2D1E020E83AE146E050E0C6CF35
:1011B000C8EED3E020EA36E841E050E0BFCF6093CC
:1011C000C62F7093C72F08956093C42F7093C52FB7
:1011D0000895E091C62FF091C72F309741F01092FB
:1011E000C32F1092C22F09958091C22F089580E0DD
:1011F0000895E091C42FF091C52F309759F03091A8
:10120000C12F2091C02F321728F01092C12F809348
:10121000C02F099408950895E091C12F8091C02FA7
:10122000E81730F4F0E0E05CF04D808190E0089544
:101230008FEF9FEF08959091C12F8091C02F2FEFD6
:101240003FEF981748F4E92FF0E0E05CF04D208183
:1012500030E09F5F9093C12FC90108958091C02F06
:101260009091C12F891B990B0895CF92DF92EF9235
:10127000FF920F931F93CF93DF937C018A01EB01C1
:101280006B01C40ED51ECC15DD0551F06991D70157
:10129000ED91FC910190F081E02DC7010995F3CF0C
:1012A000C801DF91CF911F910F91FF90EF90DF90D8
:1012B000CF9008952091C22F27FF08C021E030E091
:1012C000FC012283338390E080E008958091C32F56
:1012D000E82FF0E0E054F14D60838F5F8093C32FDF
:1012E0008093C22F81E090E00895DC01ED91FC91A4
:1012F0000688F789E02D61E009940F938091D92F3A
:101300009091DA2F0197A1F48091E42F811112C0FE
:10131000062F20E04091C22F60EC7EE28091BF2E2C
:101320000E94F1071092C32F1092C22F0F910895BF
:1013300080E0F8CF81E0F6CF6093BF2E1092C32FEC
:101340001092C22F0895DC01ED91FC91028CF38D77
:10135000E02D21E009940F9380E49FE28093CC2F4D
:101360009093CD2F8091D92F9091DA2F0197C1F4CE
:101370008091E42F811116C0FA014138510510F017
:10138000E0E8F0E0022F862F2E2F40E070E060E0D2
:101390000E94F1071092C12F8093C02F0F910895E2
:1013A00080E0F8CF81E0F6CFCB01BA010C94780849
:1013B000E0EAF8E01382168281E0858314861186C4
:1013C0001092D92F1092DA2F08951092C12F1092F7
:1013D000C02F1092C32F1092C22F8091D92F9091BD
:1013E000DA2F892BD9F482E090E08093D92F909363
:1013F000DA2F1092D82F1092D72F1092CA2F109256
:10140000CB2F1092BE2E1092D52F660F6093AC0892
:1014100081EE8093A90881E08093A30889EE98E08B
:101420008093C82F9093C92F80EC9EE28093CE2F9B
:101430009093CF2F89EF98E08093D32F9093D42F60
:1014400080E49FE28093D02F9093D12F80E8809307
:10145000D22F08951092C12F1092C02F1092C32F37
:101460001092C22F8091D92F9091DA2F892BF9F405
:101470008091E30580618093E30581E090E08093B3
:10148000D92F9093DA2F1092DD2F1092DE2F109229
:10149000E42F1092E32F81EC8093A30860EA76E8B2
:1014A00081E090E00E94780881E08093A50808958B
:1014B000DC011A96ED91FC9130E020E00994DC010A
:1014C0001696ED91FC9130E020E040E069E109944E
:1014D000DC011696ED91FC9130E020E040E068E1FF
:1014E00009949A01DC011696ED91FC91462F67E173
:1014F0000994EF92FF920F931F93CF93DF931F9264
:10150000CDB7DEB77C018B01D8016C91673129F131
:1015100050F46531A0F40F90DF91CF911F910F919E
:10152000FF90EF9008956A3118F16E3FA1F7F8012E
:101530004181498369E2C7010E94580A0BC0F80142
:1015400041814983D7011696ED91FC9130E020E06E
:10155000C70109950E5F1F4FD7CFF801818189839D
:10156000AE014F5F5F4F61E0C7010E94710AF2CF89
:101570000F5F1F4FD7011696ED91FC9130E020E0F0
:1015800040E0C7010995C0CF462FDC011696ED91CA
:10159000FC9130E020E066E10994462FDC011696CC
:1015A000ED91FC9130E020E065E10994EF92FF922B
:1015B0000F931F93CF93DF93EC01042F79016D30CC
:1015C00009F446C050F46B30C9F1693009F49FC08A
:1015D0006A3009F465C080E046C06E3009F452C03C
:1015E0006F3099F70E94680AF7011381110F110FEC
:1015F000110F6C89160F60E4CE010E94CD0A612F95
:1016000062956F706061CE010E94CD0A612F6F708C
:10161000CE010E94C40AF7016481606BCE010E9472
:10162000C40AF701408151816281660F660F660F1F
:10163000CE010E94710A0150A1F72EC06EE274E83B
:10164000442311F069E274E8CE010E94790A0AC0CD
:10165000411110C062E274E80E94790AE881F981C0
:1016600082898C8B81E0DF91CF911F910F91FF9048
:10167000EF9008956BE174E80E94790AE881F9819E
:101680008389EFCF0E94680A61E8CE010E94CD0AEB
:10169000602FCE010E94C40ACE010E945F0AE2CFF1
:1016A000EA85FB8530E020E040E068E2CE01099564
:1016B000EE81FF8130E020E040E064E1CE01099559
:1016C00041E06BE4CE010E94580AE881F98144812F
:1016D00069E2CE010E94580A40E06BE4CE010E940C
:1016E000580AE881F981448169E2CE010E94580AD2
:1016F00041E06BE4CE010E94580AE881F9814581FE
:1017000069E2CE010E94580A63E374E89DCF88E63F
:1017100094E8888399831C8AA5CFDC011896ED9103
:10172000FC9130E020E040E069E10994DC0118968A
:10173000ED91FC9130E020E040E068E10994CF9326
:10174000DF931F92CDB7DEB76983BE016F5F7F4F16
:101750000E94B9040F90DF91CF910895EF92FF920C
:101760001F93CF93DF93EC01162F7A010E94960B03
:1017700060E4CE010E949F0BE885F9859701412F17
:1017800067E1CE010995CE01DF91CF911F91FF90C6
:10179000EF900C948D0BEF92FF921F93CF93DF93FA
:1017A000EC01142F7901663181F138F4643109F4C8
:1017B0004BC0653179F080E022C06831C9F150F149
:1017C0006931C9F78091BD2E882391F1CE010E9425
:1017D0008D0B2EC08091BD2E882319F0CE010E9462
:1017E0008D0BCE010E94960B60E0CE010E949F0BF4
:1017F000612FCE010E949F0B81E08093BD2EDF916F
:10180000CF911F91FF90EF900895642F0E949F0B3E
:1018100081E0F5CF8091BD2E882319F0CE010E9482
:101820008D0BA701193138F4612FCE010E94AE0B48
:101830001092BD2EEDCF68E1CE010E94AE0B185183
:1018400088E1E80EF11CEDCF8E898F3F11F488E717
:101850008E8BE885F9859701412F64E1CE01DF91F8
:10186000CF911F91FF90EF900994CF93DF93EC01FC
:10187000A889B989FD01349131969491319684916A
:101880001396FD01A4916317A8F1961798F1631BB5
:10189000770B8A9FE02D1124E69FC001E79F900DF2
:1018A0001124280F392F311D83E0220F331F8A9511
:1018B000E1F7C9010496DA01245F3F4FE889F9890D
:1018C000E80FF91FE491ED93019682179307B1F7A2
:1018D0008D89882361F0FA019A01285F3F4F819139
:1018E000DF01119780958C932E173F07C1F7DF9189
:1018F000CF910895FA01CA0108961192E817F907E5
:10190000E1F7E6CF4F925F926F927F928F929F9214
:10191000AF92BF92CF92DF92EF92FF920F931F93FD
:10192000CF93DF93CDB7DEB72D97CDBFDEBF7C0160
:10193000C62ED42EB22EDC0150968D919C91FC01C6
:101940003296149131960491512E560E040F81E077
:10195000860F581608F411E0712CFE0131964F01E4
:1019600044244394672CAC2C262DA4016B2DC70175
:101970000E94350CAC86DD864B8689869A86D70117
:101980001496ED91FC919E01275F3F4F41E06FE07F
:10199000C70109956394A394A51430F3D394710EF1
:1019A000D01600F32D96CDBFDEBFDF91CF911F91F2
:1019B0000F91FF90EF90DF90CF90BF90AF909F90EE
:1019C0008F907F906F905F904F900895262F482FB3
:1019D00042954F70440F682F6F7081E190E30C9433
:1019E000820CCF93DF93EC01683189F130F46431DC
:1019F00099F0673151F080E005C06931B9F160328A
:101A0000D1F781E0DF91CF91089550E0B9018BEFDC
:101A10009FE20E943509F5CF8C859D85AE85BF85F7
:101A2000892B8A2B8B2B71F4E881F981A585B0E095
:101A300020EA36E841E050E00E94241D6C877D8753
:101A40008E879F878BEF9FE20E942A0ADACF6C85F0
:101A50007D858E859F850E9478086E8970E07595DA
:101A600067958BEF9FE20E949C09CBCF8BEF9FE2A3
:101A70000E947509C6CF0F931F93CF93DF938C01FC
:101A80006C32C0F46A3208F040C0683269F16932E1
:101A900009F44BC080E06034C8F16F73F801E60FC1
:101AA000F11D868D8F3F89F1603108F058C0642F99
:101AB00070E017C06D3209F43FC060F384EB860F0D
:101AC000823040F7C62FCF73C00FD12FD11D8E8D1E
:101AD00061E070E041113EC00E94C40670E060E029
:101AE0008E8D0E94BF0611C0025E1F4FD0E0F8012C
:101AF00081918F018F3F31F061E070E0D03158F477
:101B00000E94C406DF5FD63191F781E0DF91CF916B
:101B10001F910F9108950E94C40661E070E0F801E2
:101B2000319780810E94BF06EDCF642F70E090E076
:101B300080E00E948307E9CF85E090E0433010F019
:101B400082E090E0880F991F880F991F05970197F1
:101B5000F1F7DBCF0E94C40661E070E0C1CF30E056
:101B600020E08A3118F40E949A069C0191E0232B10
:101B700009F490E0F801918FC8CF1F93CF93DF93C2
:101B8000EC01EC89FD8949AD6A3059F43396E49152
:101B9000E40FE9AF18AE81E090E0DF91CF911F91A3
:101BA0000895262F3296149168AD04960E94820CF7
:101BB000E8ADE10FE8AFEFCF40910B3050910C3022
:101BC0002091093030910A3084E2849FD001859FB2
:101BD000B00D1124A159B34D92968D919C9101970E
:101BE0008217930779F082E1849FF001859FF00DC1
:101BF0001124E20FF31FEE0FFF1FED58F34D80810C
:101C00009181089580E490E0089520910B30309107
:101C10000C3044E2429FF001439FF00D1124E15942
:101C2000F34D24E2DC0101900D922A95E1F708952D
:101C3000EF92FF920F931F93CF93DF93CDB7DEB751
:101C4000A497CDBFDEBF81E0809336321092373249
:101C500080910B3090910C3022E1289FF001299F58
:101C6000F00D11248091093090910A30E80FF91F8E
:101C7000EE0FFF1FEF58F34D0081118100933432B6
:101C80001127C8018E549E4C7C010E94DC0D081760
:101C900019077CF4CE0101960E94050EE981FA81B4
:101CA000E00FF11F8081F70181937F010F5F1F4FCC
:101CB000ECCF00933532A496CDBFDEBFDF91CF913C
:101CC0001F910F91FF90EF900895CF9320910B30CB
:101CD00030910C30273008F053C0C82F82E1829F2A
:101CE000F001839FF00D11248091093090910A300A
:101CF000E80FF91FEE0FFF1FEF58F34D60E28081F0
:101D00000E94E60C20910B3030910C3027303105C9
:101D100004F584E2829FF001839FF00D1124E159C4
:101D2000F34D62A173A18091093090910A30019620
:101D30001C164CF0CC2331F18091093090910A307F
:101D4000860F971F01970E94BA1C809309309093C9
:101D50000A3082E1829FF001839FF00D112480916F
:101D6000093090910A30E80FF91FEE0FFF1FEF586E
:101D7000F34D6EE380810E94E60C81E08093363261
:101D8000CF9108951092093010920A30E2CFCF928D
:101D9000DF92EF92FF920F931F93CF93DF936C012B
:101DA000EB017B01E40EF51E10E000E0CE15DF052F
:101DB00061F06991D601ED91FC910190F081E02DE7
:101DC000C6010995080F191FF1CFC801DF91CF9106
:101DD0001F910F91FF90EF90DF90CF900895DC015D
:101DE0008D919C91DC01ED91FC910190F081E02DB1
:101DF00009941F93CF93DF932150203118F587FF6B
:101E000021C0D42F162FC82F622F682B80917130DC
:101E1000909172300E94EF0E612F6F778091713038
:101E2000909172300E94EF0ECF7EC03C59F06D2F22
:101E30006F778091713090917230DF91CF911F91C7
:101E40000C94EF0EDF91CF911F910895282F80E819
:101E50000E94F90E8091BA2E811105C070E060E0F9
:101E600082E00C944D060895282F80E90E94F90E17
:101E70008091BA2E811105C061E070E082E00C947F
:101E80004D0608950F931F93CF93DF93EC018C01C0
:101E9000075F1F4F699180917130909172300E945D
:101EA000EF0E0C171D07B1F7DF91CF911F910F9126
:101EB00008951F93CF93DF93CDB7DEB72997CDBF9A
:101EC000DEBF182F863849F470E06093BB2E709304
:101ED000BC2E6D5E7B47FB016081812F90E0FC0191
:101EE000E153F44D608329E0EEE6F2E8DE0111965D
:101EF00001900D922A95E1F7880F892F881F990B81
:101F00008B83812F8F778E836987CE0101960E9404
:101F1000420F143431F01F3221F01A3111F0153014
:101F200079F48E818F5F8E83CE0101960E94420FDD
:101F30008E8184508E831986CE0101960E94420FB5
:101F40002996CDBFDEBFDF91CF911F910895CF932A
:101F5000DF936C3288F56150CCECD4E8F0E0E0E03F
:101F60008991681728F0681B3196E730F105C1F7B1
:101F700084E0EE0FFF1F8A95E1F7ED5DFC47E60F69
:101F8000F11DC081EC2FF0E0E957FD47208130E0E2
:101F9000A42FB0E00E94151D2FE730E040E050E094
:101FA0000E94F01C622FC63811F4669566958C2F3E
:101FB000DF91CF910C94590FDF91CF9108956D3F30
:101FC00048F46A3F10F4683F39F4FC018081918144
:101FD0000C94EF0E6E3FC8F70895CF92DF92EF9208
:101FE000FF92C090B62ED090B72EE090B82EF09011
:101FF000B92EC701B60128E130E040E050E00E9470
:10200000CE1C6115710581059105D9F0613071050E
:1020100081059105E1F08FEFC81AD80AE80AF80A9D
:10202000C092B62ED092B72EE092B82EF092B92E72
:1020300068EF81E790E3FF90EF90DF90CF900C94F2
:10204000DF0F61E070E082E00E944D06E4CF70E0B7
:1020500060E0F9CF1092B62E1092B72E1092B82EE3
:102060001092B92E81E08093BA2E6AEF81E790E357
:102070000C94DF0F6CEF81E790E30E94DF0F70E0BC
:1020800060E082E00E944D061092BA2E0895813ED3
:1020900010F40C94F90E883F28F0682F81E790E344
:1020A0000C94DF0F089587FF0AC09CE0980F9230D0
:1020B00030F08D3F21F0803F18F4807F089580E05C
:1020C0000895982F9F7E282F2F7C203839F0803E4E
:1020D00029F081E0903C19F080E0089581E00895B6
:1020E000DC01ED91FC910684F785E02D23E030E0E2
:1020F0000994CF93DF93CDB7DEB7A497CDBFDEBFF2
:1021000080910B3090910C3022E1289FF001299FA3
:10211000F00D11248091093090910A30E80FF91FD9
:10212000EE0FFF1FEF58F34D60E280810E94E60C36
:1021300080E1E7E7F2E8DE01119601900D928A95C1
:10214000E1F780910B3090910C30892B09F040C061
:102150008091093090910A30009711F58091BB2E43
:102160009091BC2E079680930B3090930C30109278
:10217000093010920A30CE0101960E94050E698145
:102180007A8182EB91E30E945C1E1092343280E4EB
:1021900080933532A496CDBFDEBFDF91CF910895F5
:1021A0008130910551F46EE38091732CA496CDBFDC
:1021B000DEBFDF91CF910C94E60C880F991FE1E010
:1021C000F0E0EC0FFD1FE80FF91F80819181CBCF6C
:1021D00010920B3010920C30CACFBF92CF92DF9288
:1021E000EF92FF920F931F93CF93DF93CDB7DEB79C
:1021F000A497CDBFDEBF782FE0910B30F0910C306B
:10220000E73008F43FC08091BB2E9091BC2E17168A
:10221000ACF5019668E070E00E94BA1C8093BB2E7A
:102220009093BC2E6091BB2E87E0860F90E0809348
:102230000B3090930C3086E80E94590F6FE08BE9C9
:102240000E94590FCE0101960E94050E69817A8184
:1022500082EB91E30E945C1E1092343280E4809302
:102260003532A496CDBFDEBFDF91CF911F910F9184
:10227000FF90EF90DF90CF90BF900895772391F279
:102280000796C8CF44E0EE0FFF1F4A95E1F7ED5DDA
:10229000FC472091093030910A30E20FF31F808112
:1022A0008F3FF9F28638E9F29091363291111FC0D2
:1022B000482F50E0FA01E957FD47608121E030E006
:1022C000633611F425E030E04153544DFA0190811A
:1022D000492F50E017160CF06EC0420F531F6417C1
:1022E000150619F014F0692F620F0E94590F109211
:1022F000363281E080933732E0910B30F0910C3030
:1023000084E0EE0FFF1F8A95E1F7ED5DFC478091B9
:10231000093090910A30E80FF91FE081F0E0E153B5
:10232000F44D80811F928F938BED94E89F938F9350
:10233000CE0101969F938F930E94631E80910B3074
:1023400090910C3022E1289FF001299FF00D11247B
:102350008091093090910A30E80FF91FEE0FFF1FAE
:10236000EF58F34DE080F180E0923432870111277D
:10237000F801EE54FE4C898181838A8182830B545B
:102380001E4C0F900F900F900F900F900F9022E027
:10239000C22ED12C30E2B32E0E94DC0D9801225BBC
:1023A00031432817390794F4F801B1928F01FFEFF8
:1023B000CF1ADF0AF1CF772309F499CF692F621B77
:1023C000241735070CF491CF60E08FCFEC0CE0922E
:1023D000353247CF1F920F920FB60F9211242F93D1
:1023E0003F934F935F936F937F938F939F93AF939D
:1023F000BF934091EF2F5091F02F6091F12F70918A
:10240000F22F8091ED2F9091EE2F2091EB2F3091B4
:10241000EC2F420F531F611D711D2091E92F309148
:10242000EA2F820F931F883E23E0920730F0885EE8
:1024300093404F5F5F4F6F4F7F4F8093ED2F90938F
:10244000EE2F4093EF2F5093F02F6093F12F709366
:10245000F22F8091F72F9091F82FA091F92FB09142
:10246000FA2F0196A11DB11D8093F72F9093F82F9D
:10247000A093F92FB093FA2F81E08093860ABF9141
:10248000AF919F918F917F916F915F914F913F910C
:102490002F910F900FBE0F901F9018951F920F92C3
:1024A0000FB60F9211242F933F934F935F936F9327
:1024B0007F938F939F93AF93BF93EF93FF9387E1A6
:1024C00091E30E941705FF91EF91BF91AF919F910A
:1024D0008F917F916F915F914F913F912F910F90CD
:1024E0000FBE0F901F9018951F920F920FB60F926C
:1024F00011242F938F939F93EF93FF93E0912331B8
:10250000F0912431818181FD1BC09081809129311E
:102510008F5F8F7320912A31821741F0E09129312A
:10252000F0E0E95EFE4C918F80932931FF91EF91AD
:102530009F918F912F910F900FBE0F901F90189524
:102540008081F4CF1F920F920FB60F9211242F9318
:102550003F934F935F936F937F938F939F93AF932B
:10256000BF93CF93EF93FF93C091AB08C2FF0AC014
:102570001092D82F1092D72F1092D62F84E00E945D
:10258000450814C0C6FF2FC08091D52F813051F46B
:102590008091D82FE091D32FF091D42F90E009951E
:1025A0001092D52FC0FF14C00E945508FF91EF91E3
:1025B000CF91BF91AF919F918F917F916F915F91DB
:1025C0004F913F912F910F900FBE0F901F90189534
:1025D00080E48093AB0881E00E9445088091AB08BD
:1025E00085FFE4CFE1CFC7FF5CC0C3FF08C01092F6
:1025F000D82F1092D72F1092D62F83E0C0CF809182
:10260000A90880668093A9088091AB0881FF2CC03F
:102610008091D72F882349F08091AB0884FF05C0B3
:1026200082E08093AA0881E0AACF9091D72F809171
:10263000D62F9817A8F4E091D72F8091CE2F9091A4
:10264000CF2FE80FF92FF11D80818093AD08809185
:10265000D72F8F5F8093D72F83E08093AA08A6CFD0
:1026600082E08093AA088BCF9091D82F8091D22FAF
:10267000981790F48091AD08E091D82F2091D02F39
:102680003091D12FE20FF32FF11D80838091D82F4D
:102690008F5F8093D82FE0CF86E08093AA0882E0F6
:1026A0006ECF85E06CCF1F920F920FB60F92112460
:1026B0002F933F938F939F93EF93FF938091A50860
:1026C000982F9C70E1F08091A50894E082FF93E040
:1026D0009093E32F8093A50881E090E08093D92F19
:1026E0009093DA2F1092E42FFF91EF919F918F91A9
:1026F0003F912F910F900FBE0F901F90189586FF5E
:102700004EC02091E02F9091DF2F8091A50884FF8B
:1027100015C08091DC2F882379F083E08093A40892
:1027200085E08093E32F1092E42F81E090E0809386
:10273000D92F9093DA2FD8CF81E0F0CF8091DE2F80
:10274000821790F4E091DE2F8091E12F9091E22F9B
:10275000E80FF92FF11D80818093A8088091DE2F6A
:102760008F5F8093DE2FC0CF8091DD2F891760F4BB
:1027700084E090E08093D92F9093DA2F8091DB2F23
:1027800081608093A708B0CF8091DC2F882329F047
:1027900083E08093A40881E0C4CF81E0FACF87FF73
:1027A00040C09091DD2F8091DF2F9817D8F4809151
:1027B000A808E091DD2F2091CC2F3091CD2FE20F92
:1027C000F32FF11D80838091DD2F8F5F8093DD2FAC
:1027D0009091DF2F8091DD2F8917D8F482E08093CC
:1027E000A40882CF8091DC2F882389F087E0809332
:1027F000A40882E08093E32F1092E42F81E090E020
:102800008093D92F9093DA2F1092DF2F6DCF85E030
:10281000EECF8091DC2F882311F087E0BACF85E0DE
:10282000B8CF86E07ECF1F93CF93DF93CDB7DEB7CF
:10283000A497CDBFDEBF1092193110921A3188EEE5
:1028400093E0A0E0B0E080931B3190931C31A09303
:102850001D31B0931E3140E954E840931731509335
:10286000183140E458E040932331509324311092C2
:10287000253141E0409326311092273110922931C1
:1028800010922A3110922B3110922C3140E2409359
:102890002D3110922E3110922F311092FD2F109267
:1028A000FE2F8093FF2F90930030A0930130B093C0
:1028B00002308AEA94E88093FB2F9093FC2F40919A
:1028C0006B2C50916C2C60916D2C70916E2C7695C8
:1028D00067955795479580E0413099E059079DE30A
:1028E0006907710540F076956795579547958F5F15
:1028F000863091F787E094E090930830982F909578
:10290000292F217030E094E0220F331F9A95E1F7D0
:102910008162822B8093073080E190E08093B52C18
:102920009093B62C84E090E08093D92C9093DA2C8D
:1029300028E030E02093FD2C3093FE2C25E030E0A1
:102940002093212D3093222D8093452D9093462D59
:1029500086E090E08093692D90936A2D10920F305D
:1029600010921030109245301092463087ED94E866
:1029700080930D3090930E301092113010921230DF
:10298000109226301092293010921D3010921E3075
:1029900010921F30109220308FEF80932730809359
:1029A0002B30EFE2F0E385E490E31FEF11938E17F5
:1029B0009F07E1F786ED9AE08093153090931630EB
:1029C0008BEC9BE0809317309093183081EF9CE064
:1029D0008093193090931A308BE39DE080931B30E5
:1029E00090931C3030E020E040E069E081E190E32A
:1029F0000E94D60A10933A3010933B3010933C302B
:102A00001092343280E48093353210920B30109261
:102A10000C301092093010920A30CE0101960E94BB
:102A2000050E69817A8182EB91E30E945C1EE3EFDF
:102A3000F1E383E392E320E221938E179F07E1F70E
:102A4000109233321092F23188EF90E0809321306F
:102A50009093223081E08093363287E191E3809336
:102A6000B0319093B13110924730109248301092AB
:102A7000493010924A3010924B3010924C301092E4
:102A80004D3010924E3010924F30109250301092C4
:102A900051301092523010925330109254301092A4
:102AA0005530109256301092573010925830109284
:102AB000593010925A3010925B3010925C30109264
:102AC0005D3010925E3010925F3010926030109244
:102AD0006130109262301092633010926430109224
:102AE0006530109266301092673010926830109204
:102AF000693010926A3010926B3010926C301092E4
:102B00006D3010926E3010926F301092703080EBFA
:102B100091E38093713090937230109273301092E1
:102B20007430109275301092793010927A30109281
:102B30007B3010927C308FEF9FEF80937D309093AD
:102B40007E3080937F309093803083E0809381301B
:102B5000109282301092833010928430109285301F
:102B600010920631E6E8F0E380E8DF011D928A95D5
:102B7000E9F71092093110920A3110920B3110923C
:102B80000C3110920D3110920E3110920F311092C3
:102B900010311092113110921231109213311092A3
:102BA00014311092153110921631A496CDBFDEBFAC
:102BB000DF91CF911F910895CF93DF93CDB7DEB70B
:102BC0002897CDBFDEBF88ED90E084BF9093610071
:102BD00080E094E2A4EFB0E080936B2C90936C2C97
:102BE000A0936D2CB0936E2C80910206866080932A
:102BF00002068091000681608093000680910206A3
:102C00008F7C809302068091A0008F788093A00033
:102C1000809102068061809302061092E20581E0B5
:102C20008093E40583E08093010A2FEF30E0209346
:102C3000260A3093270A80E890E08093380A909320
:102C4000390A80933A0A90933B0A80933C0A909306
:102C50003D0A8BE08093000A8091E50581608093B6
:102C6000E5058091E50582608093E50557E0509386
:102C7000810A4FEF40938C0A90E890938D0A85E08B
:102C80008093800A5093910A40939C0A90939D0AE6
:102C90008093900A5093A10A4093AC0A9093AD0A96
:102CA0008093A00A80E094E08093F52F9093F62F14
:102CB0008091F52F9091F62FB9010E94A61C609388
:102CC000F32F7093F42F8091F52F9091F62FE8EE6B
:102CD000F3E0BF010E94A61C6093EB2F7093EC2FD2
:102CE0008091F52F9091F62FBF010E94A61C809332
:102CF000E92F9093EA2F20938C0A30938D0A8091CC
:102D0000850A81608093850A84E08093800A80919F
:102D1000800A81608093800A7894E0911530F09168
:102D2000163030E020E040E06AE081E190E3099570
:102D3000CE01019628E0DC011D922A95E9F70E9458
:102D4000A303E0911530F091163030E020E040E030
:102D50006BE081E190E309958FED94E89F938F9369
:102D600086EE94E89F938F9383EF91E39F938F93E5
:102D70000E94631E03EFE02E01E3F02E0F900F90F0
:102D80000F900F900F900F9010E0F70161917F016D
:102D9000812F0E94E60C1F5F1034B9F761E070E0EC
:102DA00082E00E94F40562E070E08CE00E94C406BC
:102DB00062E070E08BE00E94C40662E070E08AE0AE
:102DC0000E94C40662E070E081E10E94C40662E0F5
:102DD00070E085E10E94C40662E070E084E10E9438
:102DE000C40660E8E62E64E8F62E74E8A72E74E8C0
:102DF000B72EE8E8CE2EE4E8DE2EF4E86F2EF4E8F5
:102E00007F2EA5EE8A2EAFE29A2EB8EE4B2EB3E0BF
:102E10005B2E1AEF212E312C80E390E00E94371DAB
:102E20008C01D7019C91B2E0EB0EF11CF5012081E1
:102E3000F2E0AF0EB11CD6018C91B2E0CB0ED11CEA
:102E400037E0F8013383A3E0A48335831682B1E031
:102E5000B78332E3308741865286238634861586CF
:102E600016861786108A118E128E138E148E158E6A
:102E7000168E178E10A211A212A213A214A215A2CE
:102E800016A217A210A611A612A613A614A615A67E
:102E900016A617A680832183928362E070E00E94C9
:102EA000C40662E070E0F80181810E94C40662E01D
:102EB00070E0D80112968C910E94C406F40101932F
:102EC00011934F016E147F0409F0A6CFE091E52F16
:102ED000F091E62F85E69EE0848F958F89E790E15B
:102EE00082A393A38FEB97E080A791A7E091E72FB0
:102EF000F091E82F8DEE90E1848F958F88E19EE030
:102F000082A393A3E0917130F0917230808191811E
:102F1000DC01ED91FC910484F585E02D42E15AE756
:102F200060E070E009951092733010927530109245
:102F3000743010927B3010927C3010927930109265
:102F40007A308FEF9FEF80937D3090937E30809327
:102F50007F30909380300E94B30760930931709363
:102F60000A3180930B3190930C31109206311092FC
:102F700083301092823010928430109285301092FB
:102F8000073110920831109281308DEE9FE08093CE
:102F90006330909364308AE290E18093653090933F
:102FA00066308AE390E180936B3090936C3084E3D9
:102FB0009FE080934D3090934E3086E29FE0809367
:102FC0004B3090934C3087EA9FE080935130909340
:102FD000523060ED77E080E090E00E94830730E8B7
:102FE000A32EB12C55245394CC24C394D12C53E05C
:102FF000252E312CE0907330B0E1BE1508F478C076
:10300000E0917130F091723080819181DC01ED911D
:10301000FC910480F581E02D0995892B09F468C0A5
:10302000809116318E7F80931631E0917130F0914E
:10303000723080819181DC01ED91FC910680F781F5
:10304000E02D0995182F8D3F09F452C080917B30F7
:1030500090917C30009709F0DEC11093763000919A
:103060007430802F0E9453100E946110882351F009
:1030700017FD08C00093763010937730C0927B30F4
:10308000D0927C3010917630812F0E945310813F76
:1030900009F48CC108F023C1803B39F058F4803921
:1030A00021F0803A11F0803869F420927930309222
:1030B0007A3082C1803D09F479C108F001C1803CB9
:1030C00009F474C180911631816080931631E091CA
:1030D0004930F0914A30309709F0099510927B30D1
:1030E00010927C301092793010927A3010927430B5
:1030F000A5EEEA2EAFE2FA2EB3E04B2ED7010D91EA
:103100001D917D010E94B307F8012585368547850D
:1031100050893B014C01621A730A840A950AB40172
:10312000A301878190E0B0E0A0E0481759076A0743
:103130007B0708F4A2C00E94B307D8011D966D93C7
:103140007D938D939C93509716966C901697712C47
:1031500012968C918A3108F0B5C20E949A066826B0
:103160007926660C771C660C771CF80180818A3101
:1031700008F0ABC20E949A06880F991F682AD801EE
:1031800011968C918A3108F0A3C20E949A06682A8F
:10319000F80163828481962D9827937009F4A2C266
:1031A000F4E08F9F90011124862D8370822BD8012B
:1031B00014968C9314978B3409F08CC2EFEF5996C8
:1031C000EC93F8018581712C7594679475946794DC
:1031D000682660FE8EC20E94B307D80151962D91D9
:1031E0003D914D915C9154973B014C01621A730AD9
:1031F000840A950AB401A30118968C9190E0B0E07E
:10320000A0E084179507A607B70788F4D80115969C
:103210008C91159780FD68C215965C920E94B30749
:10322000D80151966D937D938D939C935497D801BB
:1032300015968C911597833009F4CFC208F061C2BE
:10324000882309F498C2813009F4CEC2F801818D37
:10325000928D81114FC3911101C0138ED8015B96DD
:103260008C915B9781115EC35A968C915A978330EB
:1032700009F4E1C2843009F4E8C2B9EEEB16BFE20A
:10328000FB0609F03BCF809134329091353289179B
:1032900008F016C3E82FF0E0EE54FE4CDF01AF5B00
:1032A000BF4F2C91908129130DC3811103C06EE390
:1032B0000E94E60C809134328F5F80933432E3CFEA
:1032C000803E09F4F2CE803F09F0FCCEA092793026
:1032D000B0927A3010927430809386306DC0873F00
:1032E000A9F308F05CC0833F09F460C008F4DDCEA8
:1032F000863F09F0E7CE809383301092823010929F
:103300008430109285305092063110927B301092AA
:103310007C301092793010927A30809183308039ED
:1033200041F480918530811104C020E8622E6092C2
:103330008330809183308058813630F480918230A0
:10334000E81611F0E11002C00E94D3039091813081
:10335000392F317090FFCCCE892F8E7F09F4C8CEE3
:103360008091833020E8280F213608F026C1209173
:103370008230E21619F031E0E11030E0969592309B
:1033800009F414C1933009F415C1913009F0B0CE9D
:1033900040918530609184300E944710A9CE8D3FC6
:1033A00008F4A9CF8E3F08F0A6CF8CCEE2E0F0E083
:1033B000E0937930F0937A3020917B3030917C30FB
:1033C0004091793050917A30415051092417350796
:1033D000D8F0809383301F701F5F109382308091EC
:1033E00077308093843010928530C0920731D0922C
:1033F000083110927B3010927C301092793010920C
:103400007A305092063189CF2F5F3F4F20937B3027
:1034100030937C306DCE17FF0CC01D3F08F048C0C4
:10342000183F08F048C0103F09F452C0173F09F494
:103430004FC020917630FC01E95BFF4C203F19F032
:10344000273F09F06EC017AF6090793070907A30E6
:103450009301215031098217930708F4A1C000910C
:103460007630003F19F0073F09F05DC0109105313B
:1034700080EF8093053180938330B0E8B09384303F
:103480001092853010928230A0920731B0920831AC
:10349000509206310E94D30387EF809386301093B9
:1034A0008730E2E0F0E0E0937B30F0937C3020CE98
:1034B0001E3F08F4BECF10938330109284301092D8
:1034C000853010928230C0920731D092083199CF66
:1034D00020918630203F19F0273F09F0F3CD9C0161
:1034E0002F5F3F4F895B9F4CDC01DF961C9380EF81
:1034F00080938330209384303093853010928230D3
:1035000020930731309308315092063110927B306E
:1035100010927C301092793010927A301092743080
:10352000FCCE17A791CF802F0E945310182F8093A5
:1035300083300E946110882341F1802F8F708F5F4C
:10354000809382308091773080938430809178307E
:10355000F3E06F16710409F080E0809385301092DB
:103560007B3010927C301092793010927A305092E9
:103570000631103B39F060F4103921F0103A11F0A7
:10358000103861F600937430C8CE10928230DACFD2
:10359000103DC1F3103EB1F3103C09F0BFCFF2CFA4
:1035A000019680937B3090937C30A2CD332309F435
:1035B0009FCDEECE31119CCDEBCEE0E1E80FE031B6
:1035C00008F096CDF0E0E951F54E0C940F1DFD1A70
:1035D0004E1B2F1B1D1B78187818F71A7818F71A2E
:1035E0007818F71AF71AF71A7818F71AF71A682FCF
:1035F00081E790E30E94DF0F7BCDE0908430F09074
:10360000853021E8E216F10418F090E8E92EF12C5B
:1036100007E410E3C801875490438E159F0508F016
:1036200067CDD801DF966C918091713090917230A6
:103630000E94EF0E0F5F1F4FEDCF1091843063EFAC
:1036400080917130909172300E94EF0E612F6F77F0
:1036500080917130909172300E94EF0E49CD0091AF
:103660008530B0E80B9F8001112480918430082BB5
:1036700062EF80917130909172300E94EF0E602F56
:103680006F7780917130909172300E94EF0E000F31
:10369000012F001F110B1195602FD9CF609184303D
:1036A000E0E16E9FB00111246077109185301F70AA
:1036B000162B61EF80917130909172300E94EF0E65
:1036C000612FC6CF90E080E04ACD90E080E054CDFD
:1036D00080E05DCD873819F459965C9272CDF8017F
:1036E000118E6FCD118E6DCD66E0662EF80165826C
:1036F00095CD0E94B307F801618B728B838B948BFD
:1037000096CD8430E9F1863009F0A0CDE4E015963D
:10371000EC9315975A964C925A9794968D919C914A
:10372000892BF9F00E94B307D80155962D913D9150
:103730004D915C9158973B014C01621A730A840ABF
:10374000950AB401A3011B968D919C91B0E0A0E075
:10375000481759076A077B0720F4E4E0D8015A9616
:10376000EC930E94B307D80155966D937D938D938A
:103770009C9358976BCD57E0652EF801628E66CD0D
:103780005A968C9184508230E8F40E94B307F80175
:10379000258936894789508D3B014C01621A730A8D
:1037A000840A950AB401A30181859285B0E0A0E066
:1037B00084179507A607B70728F4158246E0742EEC
:1037C000728E44CDD8015A968C915A97833009F065
:1037D0003DCDE5E05A96EC9339CDE7E01596EC93B4
:1037E00015975A961C9232CD15964C9215975A966B
:1037F0009C915A97965032E0632E923008F0BDCFDC
:103800005A968C9323CDE5E0D8015B96EC935B97B9
:103810005C96ED91FC91309709F482C009951ECD1C
:10382000963008F41BCDE7E05B96EC935B9790969F
:10383000ED91FC91F0CF92E0692EF801638E02A029
:10384000F3A1E02D309739F418CD5B964C925B973D
:103850009496ED91FC91099510CD538E06A0F7A199
:10386000E02DF0CF843071F4D8015A968C915A979C
:10387000813009F002CD5B968C935B979A96ED911F
:10388000FC91E0CF863059F4F801828D815082306E
:1038900008F0F3CC538E04A4F5A5E02DD3CF8730E8
:1038A00009F0EBCCD8015A968C915A97813009F0E7
:1038B000E4CC5B968C935B979E96ED91FC91C2CF86
:1038C0008917A9F0E82FF0E0EE54FE4C60810E94C9
:1038D000E60C80913432E82FF0E0EE54FE4CDF012C
:1038E000AF5BBF4F90819C938F5F809334320E9477
:1038F000DD0580CB992309F486CF2CEF290F2230E8
:1039000038F0D8015B962C915B97263009F088CF70
:1039100026E0622EF801638E068CF78DE02D7BCFBA
:10392000F801838D9EEF980F923008F09BCFF8013D
:10393000828D823009F491CF863009F09ECC84E0EC
:10394000682E638E00A4F1A5E02D7CCFAA1BBB1BC3
:1039500051E107C0AA1FBB1FA617B70710F0A61B8F
:10396000B70B881F991F5A95A9F780959095BC01B0
:10397000CD01089597FB072E16F4009407D077FD2C
:1039800009D00E94A61C07FC05D03EF490958195B5
:103990009F4F0895709561957F4F0895A1E21A2E6B
:1039A000AA1BBB1BFD010DC0AA1FBB1FEE1FFF1FE3
:1039B000A217B307E407F50720F0A21BB30BE40B33
:1039C000F50B661F771F881F991F1A9469F760957A
:1039D0007095809590959B01AC01BD01CF01089534
:1039E000052E97FB1EF400940E94071D57FD07D07B
:1039F0000E94CE1C07FC03D04EF40C94071D50957A
:103A00004095309521953F4F4F4F5F4F08959095CA
:103A10008095709561957F4F8F4F9F4F0895EE0F62
:103A2000FF1F0590F491E02D0994A29FB001B39F70
:103A3000C001A39F700D811D1124911DB29F700DB7
:103A4000811D1124911D08950E94151DA59F900DA3
:103A5000B49F900DA49F800D911D11240895B7FF70
:103A60000C94241D0E94241D821B930B08950F9318
:103A70001F93CF93DF938230910510F482E090E0A2
:103A8000E0913A32F0913B3230E020E0B0E0A0E04B
:103A9000309799F42115310509F44AC0281B390BD8
:103AA00024303105D8F58A819B816115710589F132
:103AB000FB0182839383FE0111C040815181028109
:103AC000138148175907E0F04817590799F41097E0
:103AD00061F012960C93129713961C933296CF01B5
:103AE000DF91CF911F910F91089500933A32109377
:103AF0003B32F4CF2115310551F04217530738F00E
:103B0000A901DB019A01BD01DF01F801C1CFEF017D
:103B1000F9CF80933A3290933B32CDCFFE01E20F42
:103B2000F31F819391932250310928833983D7CF92
:103B30002091383230913932232B41F420918D2E4F
:103B400030918E2E209338323093393220918B2E43
:103B500030918C2E2115310541F42DB73EB740919F
:103B60008F2E5091902E241B350BE0913832F0911E
:103B70003932E217F307A0F42E1B3F0B2817390741
:103B800078F0AC014E5F5F4F2417350748F04E0FB9
:103B90005F1F4093383250933932819391939FCF76
:103BA000F0E0E0E09CCFCF93DF930097E9F0FC01D9
:103BB000329712821382A0913A32B0913B32ED01DA
:103BC00030E020E01097A1F420813181820F931F13
:103BD00020913832309139322817390709F061C005
:103BE000E0933832F0933932DF91CF910895EA01B2
:103BF000CE17DF07E8F54A815B819E01411551052B
:103C0000B1F7E901EA83FB8349915991C40FD51FAC
:103C1000EC17FD0761F4808191810296840F951F56
:103C2000E90188839983828193818A839B83F0E071
:103C3000E0E012968D919C9113970097B9F52D9124
:103C40003C911197CD010296820F931F209138323B
:103C5000309139322817390739F6309751F51092DB
:103C60003A3210923B32A0933832B0933932BCCF03
:103C7000C283D38340815181840F951FC817D90710
:103C800061F44E5F5F4F88819981480F591F4083CF
:103C900051838A819B81828393832115310509F0A9
:103CA000B0CFE0933A32F0933B329ECFFD01DC017E
:103CB000C0CF12821382D7CFFB01DC0101900D929D
:103CC0000020E1F70895AEE0B0E0E9E6FEE10C94F3
:103CD00012210D891E8986E08C8309831A838FEF58
:103CE0009FE78D839E83AE01475E5F4F6F89788D1E
:103CF000CE0101960E94861E2F813885020F131F68
:103D0000F80110822E96E4E00C942B21ABE0B0E099
:103D1000ECE8FEE10C9404217C013B018A01FC01EA
:103D200016821782838181FFC8C1CE0101965C0192
:103D3000F7019381F30193FD859193FF81913F01F9
:103D4000882309F453C1853239F493FD859193FF9B
:103D500081913F01853229F4B70190E00E947620DD
:103D6000E7CF912C212C312CFFE1F31538F08B3269
:103D700011F190F4803209F1833229F137FC3CC013
:103D800020ED280F2A3050F536FE20C08AE0989E9C
:103D9000200D1124922E06C08D3291F0803371F7E0
:103DA000689430F8F30193FD859193FF81913F0171
:103DB0008111DACF21C0689431F8689432F8F2CFDB
:103DC000689433F8EFCF689434F8ECCFEAE02E9E95
:103DD000200D1124222E689435F8E4CF8E3229F478
:103DE00036FC04C1689436F8DDCF8C3619F468943B
:103DF00037F8D8CF8836B1F2982F9F7D95549330FD
:103E0000E0F08336A1F18337C1F1833509F063C057
:103E10002801F2E04F0E511CF801C080D180692DBD
:103E200070E036FC02C06FEF7FEFC6010E94602099
:103E30004C01689437F882010AC00C5F1F4FFFE302
:103E4000F98388248394912C6501E89437F833FE34
:103E50002DC0522C8114910471F5552009F468CFBE
:103E6000B70180E290E00E9476205A94F6CFF801E4
:103E7000808189830E5F1F4FE4CF2801F2E04F0E4F
:103E8000511CF801C080D180692D70E036FC02C061
:103E90006FEF7FEFC6010E946B204C018201D5CFEE
:103EA000B70180E290E00E9476202A942814190439
:103EB00009F0B0F7CECFF60137FC859137FE81913E
:103EC0006F01B70190E00E94762051105A94F1E002
:103ED0008F1A9108BFCF843619F0893609F077C060
:103EE000F80137FE6BC060817181828193810C5F24
:103EF0001F4FF32DFF763F2E97FF09C090958095B9
:103F0000709561957F4F8F4F9F4F689437F82AE0E7
:103F100030E0A5010E94A620C82ECA188C2C432C84
:103F200036FE0CC0E89440F8C91440F434FE05C0D5
:103F300032FC03C0F32DFE7E4F2E892C44FE95C02B
:103F4000FE01EC0DF11D8081803309F087C0242D26
:103F5000297E422E842D8870582E43FC95C040FE49
:103F60008FC09C2C821418F42C0C922C981844FEB0
:103F700091C0B70180E390E00E94762042FE09C024
:103F800088E790E041FE02C088E590E0B7010E941A
:103F90007620C91408F48AC0CA94D12C9FEFC91A9C
:103FA000D90ACA0CDB1CF60182916F01B70190E0BF
:103FB0000E947620AC14BD04B1F74FCF60817181AF
:103FC000072E000C880B990B0E5F1F4F92CFD32C3E
:103FD000E894D4F82AE030E0853739F1232D297FA1
:103FE000D22E8F3601F148F48835A9F0F701868189
:103FF00097812B96E2E10C941D21803749F0883798
:10400000A9F7D4FE02C06894D2F820E130E00DC0D8
:104010006894D4F8F6CF34FE03C0822F8660D82E81
:1040200020E132E002C028E030E0F801D7FE0FC006
:1040300060817181828193810C5F1F4FA5010E9475
:10404000A620C82ECA183D2CE89437F867CF6081A7
:10405000718190E080E00E5F1F4FF0CF42FC02C004
:10406000839478CF8394839475CF842D867809F4D4
:1040700071CFF6CFB70180E290E00E947620839462
:104080008214C0F3512C73CF522C5818821408F4A8
:104090006ECFF8CF842D867809F47BCF8BE241FE7A
:1040A00080E247FC8DE2B70190E071CFB70180E379
:1040B00090E00E9476209A946CCF8FEF9FEF99CF7B
:1040C000FC010590615070400110D8F780959095E3
:1040D0008E0F9F1F0895FC016150704001900110E8
:1040E000D8F7809590958E0F9F1F08950F931F937B
:1040F000CF93DF93182F092FEB018B8181FD09C02E
:104100001FEF0FEF812F902FDF91CF911F910F9114
:10411000089582FF14C02E813F818C819D812817D4
:1041200039073CF4E881F981CF01019688839983AE
:1041300010838E819F8101968E839F83E3CFE885D4
:10414000F985812F0995892BA1F3DACFFA01AA27E6
:10415000283051F1203181F1E8946F936E7F6E5FCA
:104160007F4F8F4F9F4FAF4FB1E03ED0B4E03CD078
:10417000670F781F891F9A1FA11D680F791F8A1F5B
:10418000911DA11D6A0F711D811D911DA11D20D0C2
:1041900009F468943F912AE0269F11243019305D7C
:1041A0003193DEF6CF010895462F4770405D41936D
:1041B000B3E00FD0C9F7F6CF462F4F70405D4A33BA
:1041C00018F0495D31FD4052419302D0A9F7EACF82
:1041D000B4E0A6959795879577956795BA95C9F7B1
:1041E00000976105710508959B01AC010A2E0694A4
:1041F0005795479537952795BA95C9F7620F731F5D
:10420000841F951FA01D08952F923F924F925F9299
:104210006F927F928F929F92AF92BF92CF92DF92D6
:10422000EF92FF920F931F93CF93DF93CDB7DEB73B
:10423000CA1BDB0BCDBFDEBF09942A8839884888AA
:104240005F846E847D848C849B84AA84B984C884B2
:10425000DF80EE80FD800C811B81AA81B981CE0FA9
:0E426000D11DCDBFDEBFED010895F894FFCF54
:10426E00B06300B06200B006000000000001000262
:10427E000003000400050006006363636363636369
:10428E0063636363030307030763011F630E6363C3
:10429E00636363636363636363030307030763011A
:1042AE001F630E6363636363636363636363030329
:1042BE0007030763011F630E6363636363636363D3
:1042CE00636363030307030763011F630E63636383
:1042DE006363636363636363030307030763011F1E
:1042EE00630E636363636363636363636303030701
:1042FE00030763011F630E63636363636363631F7B
:10430E00070163636363010507307F7F7F7F7F7FD4
:10431E007F7F3F00008687FFFFFFFFFFFFFFFFFF4E
:10432E00FFFFFFFFFF3F4044422A2B2F2D15161A89
:10433E00180001050346311C0700000000000000B4
:10434E0000000000004F4E3A392524100FFFFFFFEA
:10435E00FFFFFFFFFF898A8B8E8FFFFFFFFFFFFF9F
:10436E00FFFFFFFFFF513C2712FFFFFFFFFFFFFF85
:10437E00FFFFFFFFFF48494A4B474CFFFFFFFFFF80
:10438E00FFFFFFFFFF000000000000000000000024
:10439E00000000000000000000000000000000000F
:1043AE0000000000000000000000000000000000FF
:1043BE0000000000000000000000000000000000EF
:1043CE0000000000000000000000000000000000DF
:1043DE0000000000000000000000000000000000CF
:1043EE0000000000000000000000000000000000BF
:1043FE0000000000000000000000000000000000AF
:10440E000000000000000D070604151E1F1815A061
:10441E0015C019FF1815A115C819FF1815AE19FFEB
:10442E001815AF19FF1815AE15D5168015A8163F1D
:10443E0015D316001540158D16141520160015A14E
:10444E0015C815DA1612158116CF15D916F115DB0A
:10445E001640152E15A415A619FF0001140A646442
:10446E00323200127A0000042896100800008000F4
:10447E0040000A0014000B0015000C001100000093
:10448E0000005205C207F204D004E404AB0570101C
:10449E00C906FE04EF07C104000000005A093509E1
:1044AE002E091B090C090B092A0AE509D809D4099A
:1044BE009C097D097509AB09A309E408DF08021000
:1044CE00040805040600000000BD0DC70E25326469
:1044DE000076312E312E3100202053454E4420538C
:1044EE005953455820544F202020564F4C434120BD
:1044FE00464D20342D4F50202020425920434959FB
:0D450E004C41422020202020202025730059
:10451B002031202020202020345D2020202020202E
:10452B00202020202020322D33202020202020204E
:10453B00202020202020312020202020202020205F
:10454B002020202020202A20202020202020202056
:10455B00002032202020202020345D20202020200D
:10456B0020202020202020332D322020202020200E
:10457B00202020202020202020312020202020201F
:10458B002020202020202020202A20202020202016
:10459B002000203320202020203420202020202009
:1045AB0020202020202020202033202020202020ED
:1045BB00202020202020202020312D325D20202083
:1045CB002020202020202020202A202020202020D6
:1045DB0020200020342020202020345D202020208B
:1045EB0020202020202020202020332020202020AD
:1045FB0020202020202020202020312D3220202080
:10460B00202020202020202020202A202020202095
:10461B00202020002035202020202020202020209A
:10462B00202020202020202020203220345D20201C
:10463B00202020202020202020203120332020204B
:10464B00202020202020202020202A202A2020204B
:10465B002020202000203620202020202020202059
:10466B00202020202020202020202020345D2020EE
:10467B0020202020202020202020312032203320F9
:10468B00202020202020202020202A202A202A2001
:10469B002020202020002037202020202020202018
:1046AB0020202020202020202020202020202034EB
:1046BB005D2020202020202020202031203220337C
:1046CB0020202020202020202020202A202A202AC1
:1046DB0020202020202000203820202020202020D7
:1046EB0020202020202020202020202020202020BF
:1046FB002020202020202020202020312032203379
:10470B0020345D20202020202020202A202A202A2F
:10471B00202A20202020200020414C474F20202001
:10472B0020464442434B202020414453522020201A
:10473B00204D494E4C564C20204F555420202020C4
:10474B00204C464F20202020205049544348202005
:10475B00205343414C494E470020413120204431E6
:10476B00202053312020523120204132202044324E
:10477B00202053322020523220204133202044333A
:10478B002020533320205233202041342020443426
:10479B0020205334202052342000204D4C31202037
:1047AB0020202020202020202020204D4C32202093
:1047BB0020202020202020202020204D4C33202082
:1047CB0020202020202020202020204D4C34202071
:1047DB002020202020202020202000204C564C314F
:1047EB00202020204B565331202020204C564C3279
:1047FB00202020204B565332202020204C564C3367
:10480B00202020204B565333202020204C564C3454
:10481B00202020204B56533420202000205350457D
:10482B00454420202044454C4159202020444550EC
:10483B00544820202057415645202020204D5350CE
:10484B00202020202020202020202020202020205D
:10485B002020202020202020202020200020465215
:10486B00455131202020202020202020202046527E
:10487B00455132202020202020202020202046526D
:10488B00455133202020202020202020202046525C
:10489B004551342020202020202020202000204C97
:1048AB004445202020202052444520202020204C0D
:1048BB0043552020202020524355202020202042E9
:1048CB00524B20202020204B5253202020202020F0
:1048DB0020202020202020202020202020200063AA
:1048EB00630000636363630000000000000000329C
:1048FB000003000063630000636363630000000058
:10490B000000000032000300006363000063636378
:10491B00630000000000000000320003000063632E
:10492B00000063636363000000000000000063008D
:10493B000300000000000000000000000000000069
:10494B00000000000000000000000000000000005C
:10495B0000000000000000000000000000323232B6
:10496B003232323232000001000000000000000041
:10497B004D5950415443482020203F0024F4000857
:10498B002A00000800100018002000280030003812
:10499B00000000000000000000000000000000000C
:1049AB00000800492A0000040008000C0010001445
:1049BB000018001C002000240028002C00300034BC
:1049CB000038003C0000008A2A0000100020003054
:1049DB0000000000000000000000000000000000CC
:1049EB000000000000000000000000CB2A000008BF
:1049FB0000100018002000280030003800000000D4
:104A0B000000000000000000000000000000000C8F
:104A1B002B00000800100018002000280030003880
:104A2B00000000000000000000000000000000007B
:104A3B000000004D2B000010002000300000000093
:104A4B00000000000000000000000000000000005B
:104A5B00000000000000008E2B0000080010001862
:104A6B0000200028000000000000000000000000F3
:104A7B000000000000000000000000002800000003
:104A8B00000000000000000000000000000000001B
:104A9B0000000000000000000000000000000041CA
:104AAB0028000000000000000000000000000000D3
:104ABB0000000000000000000000000000000000EB
:104ACB000000008228000000000000000000000031
:104ADB0000000000000000000000000000000000CB
:104AEB0000000000000000C32800000000000000D0
:104AFB0000000000000000000000000000000000AB
:104B0B00000000000000000000000004290000006D
:104B1B00000000000000000000000000000000008A
:104B2B000000000000000000000000000000004535
:104B3B002900000000000000000000000000000041
:104B4B00000000000000000000000000000000005A
:104B5B00000000862900000000000000000000009B
:104B6B00000000000000000000000000000000003A
:104B7B0000000000000000C729000000000000003A
:104B8B00000000000000000000000000000000001A
:104B9B00000000000000000000000000003C32801C
:024BAB00000008
:00000001FF
