:100000000C94A4030C94CC030C94CC030C94CC035C
:100010000C94CC030C94CC030C94CC030C94CC0324
:100020000C94CC030C94CC030C94CC030C94CC0314
:100030000C94BA120C94CC030C9472130C942314E9
:100040000C94CC030C94CC030C94CC030C94CC03F4
:100050000C94CC030C94CC030C94CC030C94CC03E4
:100060000C94CC030C94CC030C94CC030C94CC03D4
:100070000C94CC030C94CC030C94CC030C9444133C
:100080000C941E130C94CC030C94CC030C94CC0352
:1000900008000000BE922449123EABAAAA2ABECD97
:1000A000CCCC4C3E00000080BEABAAAAAA3E000009
:1000B0000000BF000000803F000000000008417801
:1000C000D3BB4387D1133D190E3CC3BD4282AD2B38
:1000D0003E68EC8276BED98FE1A93E4C80EFFFBE30
:1000E00001C4FF7F3F00000000000000000000008E
:1000F00000000000000000000101010000000203F8
:1001000000000000010000010203040506070300CF
:1001100001020001020302030405040506070505A8
:1001200000000000000000000202020203030303BB
:10013000050505050303030302010102040810205D
:100140004080080102040102040804081020102065
:100150004080207E0102000000000000000000003E
:10016000000000000000F0000000000000003F0060
:10017000000000000000F0F00000000000003F3F21
:100180000000000000000080F080F080000000040B
:100190003F043F040000F0F0F0F0000000003F3F9B
:1001A0003F3F00000000F0F0F0F0F00000003F3FA3
:1001B0003F3F3F000000F0F0F0F0F0F000003F3F64
:1001C0003F3F3F3F0000F0F0F0F0F0F0F0003F3F25
:1001D0003F3F3F3F3F0000008060100800000000EC
:1001E0000F30408000000008106080000000008098
:1001F00040300F000000008000C0008000000008B8
:10020000051F05080000000000C0000000000002FB
:10021000021F0202000000000000000000000000B9
:1002200090700000000000000000000000000002CC
:1002300002020202000000000000000000000000B6
:100240002070200000000000008060180000C03016
:100250000C0300000000C020101020C000000F1090
:100260002020100F0000004020F0000000000020BF
:10027000203F202000006010101010E0000020300F
:100280002824232000001010109050300000182067
:100290002121211E00000000C020F00000000C0BF6
:1002A00008083F080000F09090909010000019207E
:1002B0002020201F0000C0201010100000001F226E
:1002C0002121211E000010101010D030000000303D
:1002D0000C030000000060901010906000001C22D1
:1002E0002121221C0000E010101010E00000192253
:1002F0002222110F0000000080C0800000000000DA
:100300001039100000000000808000000000000094
:100310004939000000000000008040200000000279
:100320000508102000008080808080800000040488
:10033000040404040000F0E0C080000000007F3FDF
:100340001F0F0702000060101010906000000000F6
:10035000003700000000C020905050E000000F1057
:100360002728282F0000C020101020C000003F02C6
:100370000202023F0000F0101010A04000003F21D8
:100380002121120C0000E0101010106000001F204E
:10039000202020180000F010101020C000003F2086
:1003A0002020100F0000F0101010101000003F214E
:1003B000212120200000F0101010101000003F013B
:1003C000010100000000E0101010106000001F206C
:1003D0002022123E0000F000000000F000003F016B
:1003E0000101013F0000001010F01010000000207B
:1003F000203F2020000000000010F0100000182016
:1004000020201F000000F0008040201000003F016D
:10041000020408300000F0000000000000003F204F
:10042000202020200000F060808060F000003F006D
:100430000101003F0000F0C0000000F000003F009C
:1004400001020C3F0000E010101010E000001F201F
:100450002020201F0000F010101010E000003F02CC
:10046000020202010000E010101010E000001F2442
:100470002428709F0000F010101010E000003F02D0
:1004800002060A310000E010101010600000182170
:100490002122221C0000101010F01010100000008B
:1004A000003F00000000F000000000F000001F20EE
:1004B0002020201F0000F000000000F000000007D6
:1004C00038380700000000F0000000F00000001FB6
:1004D000201C201F000030C00000C0300000300C85
:1004E00003030C30000000708000807000000000EA
:1004F000013E010000001010109050300000302C20
:100500002221202000000000F80808080000000058
:10051000FF80808000001860800000000000000064
:10052000030C30C0000000080808F800000000803C
:100530008080FF000000201008081020000000004C
:1005400000000000000000000000000000008080AB
:100550008080808000000000081020000000000063
:10056000000000000000008080808000000019244E
:100570002424243F0000F0008080800000003F1110
:100580002020201F000000808080800000001F20AD
:100590002020201100000080808000F000001F203B
:1005A0002020113F000000808080800000001F2478
:1005B0002424241700000000E01010200000010196
:1005C0003F010100000000808080008000006798EB
:1005D000A8A8A7400000F0008080800000003F0134
:1005E0000000003F0000000080B00000000000207C
:1005F000203F202000000000000080B000000060CC
:100600008080807F0000F0000000800000003F0438
:10061000060910200000000010F00000000000207B
:10062000203F202000000080800080000000003F6C
:10063000001F003F000080008080800000003F011C
:100640000000003F000000808080800000001F202C
:100650002020201F00008000808080000000FF110B
:100660002020201F000000808080008000001F20CC
:10067000202011FF000080008080800000003F01EA
:100680000000000300000080808080000000112234
:100690002424281100008080F080800000000000E9
:1006A0001F202010000080000000008000001F209C
:1006B0002020103F000000800000008000000003A8
:1006C0000C300C0300000080000000800000001FC0
:1006D000201E201F00008000000000800000310A62
:1006E00004040A31000080000000008000004F90E8
:1006F0009090887F00008080808080800000203083
:100700002C2221200000000000F00808000000005A
:10071000027D80800000000000F800000000000062
:1007200000FF00000000000808F00000000000804A
:10073000807D0200000030081020403000000000E2
:10074000000000000000E31411241FBECFEFCDBF56
:10075000DFE3DEBF1EE2A0E0B8E2E5EFFCE402C0AA
:1007600005900D92A239B107D9F722E3A2E9BEE2C2
:1007700001C01D92A034B207E1F713E0C4EAD3E050
:1007800004C02197FE010E94DF20C33AD107C9F7B8
:100790000E94AA160C9405250C94000080E0089590
:1007A0001F93CF93DF93CDB7DEB72597CDBFDEBFC5
:1007B0001C8221E02B8389839A83E0911530F0918C
:1007C000163011891D82A0911530B0911630E0913C
:1007D0001930F0911A309E012F5F3F4F50964C9187
:1007E0006FE085E190E309958D818F5F8D8381179F
:1007F00050F32596CDBFDEBFDF91CF911F910895B5
:10080000E0914B30F0914C30309719F086E890E34E
:10081000099580918730823F09F4BAC090F5803CF9
:1008200009F499C0B8F4803909F44FC040F4E0915C
:100830004F30F0915030803809F44BC00895803A21
:1008400009F484C0E0915530F0915630803B09F4B2
:1008500040C00895803E09F462C040F4E0915930F0
:10086000F0915A30803D09F47AC00895803F09F430
:100870007DC0E0915F30F0916030813F09F49BC012
:1008800008958A3FC1F1A8F4863F09F499C040F465
:10089000E0916330F0916430833F09F48CC0089597
:1008A000883F09F1E0916B30F0916C30893FF9F0AD
:1008B00008958C3F51F120F18E3F61F1E09173304A
:1008C000F09174308F3F99F00895E0915130F0919C
:1008D0005230309709F479C0409189306091883066
:1008E000809186300994E0916730F09168303097BC
:1008F00009F46BC00994E0916930F0916A30F7CF48
:10090000E0916D30F0916E30F2CFE0916F30F09168
:100910007030EDCFE0917130F0917230E8CFE0911E
:100920005B30F0915C30309709F44FC060918930B2
:1009300020E8629FB001112460787F738091883035
:100940008F77682B7052809186300994E0915330F4
:10095000F0915430BECFE0915730F091583030973D
:10096000A1F160918830809186300994E0915D30EA
:10097000F0915E30309749F1609188307091893004
:100980006138710510F060E870E08AE890E309943E
:10099000E0916130F09162303097B9F08091893008
:1009A00020E8829FC001112480789F7320918830B5
:1009B0002F77822B0994309741F0809188300994E9
:1009C000E0916530F091663092CF08959B01DC0193
:1009D0001896ED91FC9141E067E10994FC0154897E
:1009E0004589252F30E0842F90E0821B930B54170C
:1009F00010F0CF96089501970895FC01928983899C
:100A0000981761F0A389AE0FBF2FB11D59968C9135
:100A100093899F5F9F73938B90E008958FEF9FEF73
:100A20000895FC0192898389981731F08389E80F32
:100A3000F11D818D90E008958FEF9FEF0895FC01E7
:100A400092892389892F90E0805C9F4F821B9109B6
:100A50008F7399270895CF93DF93EC01E881F98193
:100A60000284F385E02D0995EC85FD8586818F73E1
:100A70008683EC85FD8585818F7585838B898A8B3F
:100A8000198ADF91CF910895CF93DF93FC01948968
:100A90008589C485D585981306C08D818F7D8D830A
:100AA000DF91CF910895A589AE0FBF2FB11DA75A31
:100AB000BF4F2C91858990E001968F739927858B84
:100AC00080E48C83A485B58512962C93A485B58586
:100AD00014968C91149785FFFBCF94898589981380
:100AE000DFCF15968C9115978F7D15968C938789FE
:100AF0008823B1F2808D80931301178AD1CFEF92B2
:100B0000FF920F931F93CF93DF93EC0181E0898BCA
:100B10009C898D8998131CC0AC85BD8514968C91D9
:100B2000149785FF15C012966C93AC85BD8580E443
:100B300014968C93EC85FD8585818F7D858381E07E
:100B400090E0DF91CF911F910F91FF90EF9008956A
:100B50008091110180FF08C080911301888F8E89D8
:100B60008093130181E08F8BF62E0C8910E00F5FCC
:100B70001F4F0F731127E02E8D898E110CC00FB6F9
:100B800007FE05C0EC85FD85858185FDF5CFCE018D
:100B90000E944405F1CFEC89EC0FFD2FF11DE75ABF
:100BA000FF4FF0820C8BEC85FD8585818062C6CF7E
:100BB000CF93DF93FC0121892223F9F0EC0180918E
:100BC000110180FF08C080911301808F8689809376
:100BD000130181E0878BEC85FD85858185FD03C050
:100BE000848186FD0AC00FB607FE03C0858185FD9E
:100BF000F2CFCE010E944405EECFDF91CF91089550
:100C00008BE191E30E941F0521E0892B09F420E08C
:100C1000822F089580E090E0892B49F080E090E0F9
:100C2000892B29F00E94000081110E94000080E0C1
:100C300090E0892B29F00E94000681110C9400009D
:100C4000089590E0FC01E85CFE4F24912F3F11F1E4
:100C5000FC01E25EFE4FA49130E2A39FD00111247B
:100C6000BC5F6130710519F411962C930895FC0155
:100C7000EC5FFE4FE491EF3F71F0CD014096E80F3D
:100C8000F92FF11D9FB7F89412962C9380818860FC
:100C900080839FBF0895F0E0E0E0F4CF90E0FC0196
:100CA000E651FF4FE491EE2321F1E13021F008F10C
:100CB000E630B0F008958C5F9E4FFC018491409126
:100CC000010A8C5F21E030E0B90102C0660F771F96
:100CD0008A95E2F7CB01809584238093010A0895D9
:100CE00070E1E79FF0011124E05AF54F81818F7E7A
:100CF00081830895FF920F931F93CF93DF93C82FA3
:100D0000D0E0FE01E85CFE4FF4909FEFF916B1F0E1
:100D10008B018A3110F40E944E06FE01E25EFE4F06
:100D2000A49180E2A89FD0011124BC5F8C918F21F7
:100D3000A1F00115110541F41696FC92DF91CF91B7
:100D40001F910F91FF9008950230110519F4179625
:100D5000FC92F4CF1596FC92F1CFFE01EC5FFE4FB2
:100D6000E491109779F0EF3F69F05096EA0FFB2F6E
:100D7000F11D9FB7F8948081012B39F4877F808320
:100D80009FBFDCCFF0E0E0E0F4CF8860F8CF1F93A6
:100D9000CF93DF93C82FD0E0FE01E85CFE4F1491A3
:100DA0001F3FB9F08A3110F40E944E06C25EDE4F3A
:100DB000FE01C491F0E2CF9FE0011124DC5FE885E1
:100DC000E12381E090E009F480E0DF91CF911F9171
:100DD000089580E090E0F9CF8A3110F40C947A06FF
:100DE00008958A3110F40C94210608958F929F92F1
:100DF000AF92BF92EF92FF920F931F93CF93DF9327
:100E0000EC014A015B01E22E8989882339F0E881EF
:100E1000F9810088F189E02DCE01099598898091AA
:100E2000E205892B8093E205FFB6F89460916B2C64
:100E300070916C2C80916D2C90916E2C23E0660F3C
:100E4000771F881F991F2A95D1F7A50194010E9449
:100E50009E202F5F3F4F4F4F5F4F569547953795D9
:100E60002795EC85FD8586818D7F8683EC85FD85C4
:100E700086818683198A80912311E82F880FFF0BC2
:100E8000DF01BC5F0E94FF200C851D85AF01F7FFCD
:100E900003C051954195510920E034E0241B350BE6
:100EA000032E000C440B550B0E94C020F801208734
:100EB0003187EC85FD85E782EC85FD858681806C38
:100EC0008683EC85FD858581806885838E8562E0DB
:100ED00070E00E94F1068F8561E070E00E94EC06F0
:100EE0008F8561E070E00E94F106FFBEDF91CF9137
:100EF0001F910F91FF90EF90BF90AF909F908F90B8
:100F00000895CF93DF938FB7F8942091FB2F309102
:100F1000FC2F4091FD2F5091FE2FE0918A0A909175
:100F2000860A90FF06C02F5F3F4F4F4F5F4FE09103
:100F30008A0A8FBFA091F92FB091FA2FC091F72F95
:100F4000D091F82F0E94F420EC9F9001ED9F300D7E
:100F50001124620F731F811D911DDF91CF910895A0
:100F60008F929F92AF92BF92CF92DF92EF92FF92B9
:100F70004B015C010E9481076B017C01A8EEB3E08C
:100F8000A50194010E94F420C60ED71EE81EF91E8A
:100F9000C616D706E806F90618F40E948107F8CFAE
:100FA0000E9481076C157D058E059F05C8F3FF9093
:100FB000EF90DF90CF90BF90AF909F908F9008956B
:100FC0002FB7F8946091F32F7091F42F8091F52F43
:100FD0009091F62F2FBF08950C9400000895AF92C2
:100FE000BF92CF92DF92EF92FF920F931F93CF9316
:100FF000DF936C017B018B01040F151FEB015E0178
:10100000AE18BF08C017D10759F06991D601ED910C
:10101000FC910190F081E02DC6010995892B79F7AB
:10102000C501DF91CF911F910F91FF90EF90DF905D
:10103000CF90BF90AF90089581E008950F9391E015
:101040009093E82F1092E72F6093E52F7093E62F8F
:101050004093E42F2093E32F1092E22F1092E12F80
:101060000093E02F880F8093DF2F23E030E044E0EF
:1010700050E08091E42F882341F02093DD2F3093BE
:10108000DE2F8091DF2F8E7F0BC08091E32F88238E
:1010900051F04093DD2F5093DE2F8091DF2F816040
:1010A0008093A70808C08091E42F811104C080912B
:1010B000E32F882311F38091E72F8823E1F38091B8
:1010C000E72F8330B1F28091E32F882321F08091C4
:1010D000E12F0F9108959091E72F81E09130C9F7AA
:1010E00080E0F7CFE0EAF8E091859066918722E012
:1010F00030E02093DD2F3093DE2F8093CF2F10929E
:10110000CE2F089581E08093CE2F1092CF2F93E0C1
:101110009093AA089091AB0891FF10C01092DB2F1A
:10112000E091CC2FF091CD2F09958093DA2F85E0B7
:1011300090E08093DD2F9093DE2F08951092DC2FA6
:101140008093D92F86E090E0F4CF8F929F92AF9258
:10115000BF92CF92DF92EF92FF92CF93DF936034F2
:101160002DE0720723E08207910508F44EC0611557
:1011700025E372072CE08207910508F43FC0603830
:101180007F448241910508F040C0C8E7D0E020E4E8
:1011900032E44FE050E080906B2C90906C2CA0904B
:1011A0006D2CB0906E2CC501B4010E949E20690187
:1011B0007A018AE0C81AD108E108F108DE01A50128
:1011C00094010E94F42020E03AEC4AE95BE30E949B
:1011D0009E20C21AD30AE40AF50AF694E794D7943B
:1011E000C794C092A608DF91CF91FF90EF90DF9057
:1011F000CF90BF90AF909F908F900895CCE2D1E0B8
:1012000020E83AE146E050E0C6CFC8EED3E020EA5D
:1012100036E841E050E0BFCF6093CA2F7093CB2FE8
:1012200008956093C82F7093C92F0895E091CA2F35
:10123000F091CB2F309741F01092C72F1092C62F0C
:1012400009958091C62F089580E00895E091C82FF8
:10125000F091C92F309759F03091C52F2091C42FAC
:10126000321728F01092C52F8093C42F0994089547
:101270000895E091C52F8091C42FE81730F4F0E075
:10128000EC5BF04D808190E008958FEF9FEF089523
:101290009091C52F8091C42F2FEF3FEF981748F4FE
:1012A000E92FF0E0EC5BF04D208130E09F5F909300
:1012B000C52FC90108958091C42F9091C52F891B16
:1012C000990B0895CF92DF92EF92FF920F931F93A5
:1012D000CF93DF937C018A01EB016B01C40ED51E15
:1012E000CC15DD0551F06991D701ED91FC9101908C
:1012F000F081E02DC7010995F3CFC801DF91CF91AF
:101300001F910F91FF90EF90DF90CF900895209163
:10131000C62F27FF08C021E030E0FC012283338381
:1013200090E080E008958091C72FE82FF0E0EC5323
:10133000F14D60838F5F8093C72F8093C62F81E02C
:1013400090E00895DC01ED91FC910688F789E02D8D
:1013500061E009940F938091DD2F9091DE2F01972A
:10136000A1F48091E82F811112C0062F20E0409156
:10137000C62F64EC7EE28091C32E0E941E0810925C
:10138000C72F1092C62F0F91089580E0F8CF81E00B
:10139000F6CF6093C32E1092C72F1092C62F0895D8
:1013A000DC01ED91FC91028CF38DE02D21E009949C
:1013B0000F9384E49FE28093D02F9093D12F80915C
:1013C000DD2F9091DE2F0197C1F48091E82F8111DC
:1013D00016C0FA014138510510F0E0E8F0E0022FA4
:1013E000862F2E2F40E070E060E00E941E081092D1
:1013F000C52F8093C42F0F91089580E0F8CF81E02E
:10140000F6CFCB01BA010C94A508E0EAF8E013820C
:10141000168281E08583148611861092DD2F10924A
:10142000DE2F08951092C52F1092C42F1092C72F4F
:101430001092C62F8091DD2F9091DE2F892BD9F449
:1014400082E090E08093DD2F9093DE2F1092DC2FCE
:101450001092DB2F1092CE2F1092CF2F1092C22E0F
:101460001092D92F660F6093AC0881EE8093A90883
:1014700081E08093A30886E199E08093CC2F90933C
:10148000CD2F84EC9EE28093D22F9093D32F86E2CF
:1014900099E08093D72F9093D82F84E49FE2809394
:1014A000D42F9093D52F80E88093D62F0895109253
:1014B000C52F1092C42F1092C72F1092C62F809163
:1014C000DD2F9091DE2F892BF9F48091E305806167
:1014D0008093E30581E090E08093DD2F9093DE2FF1
:1014E0001092E12F1092E22F1092E82F1092E72F26
:1014F00081EC8093A30860EA76E881E090E00E94A6
:10150000A50881E08093A5080895DC011A96ED9165
:10151000FC9130E020E00994DC011696ED91FC91FD
:1015200030E020E040E069E10994DC011696ED919D
:10153000FC9130E020E040E068E109949A01DC0190
:101540001696ED91FC91462F67E10994EF92FF9278
:101550000F931F93CF93DF931F92CDB7DEB77C011C
:101560008B01D8016C91673129F150F46531A0F4F9
:101570000F90DF91CF911F910F91FF90EF90089501
:101580006A3118F16E3FA1F7F8014181498369E2A0
:10159000C7010E94850A0BC0F80141814983D70128
:1015A0001696ED91FC9130E020E0C70109950E5FA1
:1015B0001F4FD7CFF80181818983AE014F5F5F4F05
:1015C00061E0C7010E949E0AF2CF0F5F1F4FD70153
:1015D0001696ED91FC9130E020E040E0C7010995BE
:1015E000C0CF462FDC011696ED91FC9130E020E053
:1015F00066E10994462FDC011696ED91FC9130E0EE
:1016000020E065E10994EF92FF920F931F93CF932F
:10161000DF93EC01042F79016D3009F446C050F4DA
:101620006B30C9F1693009F49FC06A3009F465C0B4
:1016300080E046C06E3009F452C06F3099F70E94C6
:10164000950AF7011381110F110F110F6C89160FF5
:1016500060E4CE010E94FA0A612F62956F706061AA
:10166000CE010E94FA0A612F6F70CE010E94F10A2A
:10167000F7016481606BCE010E94F10AF70140819D
:1016800051816281660F660F660FCE010E949E0A2D
:101690000150A1F72EC066EF7AE8442311F061EF04
:1016A0007AE8CE010E94A60A0AC0411110C06AEE73
:1016B0007AE80E94A60AE881F98182898C8B81E010
:1016C000DF91CF911F910F91FF90EF90089563EEFE
:1016D0007AE80E94A60AE881F9818389EFCF0E9407
:1016E000950A61E8CE010E94FA0A602FCE010E949D
:1016F000F10ACE010E948C0AE2CFEA85FB8530E038
:1017000020E040E068E2CE010995EE81FF8130E003
:1017100020E040E064E1CE01099541E06BE4CE01B8
:101720000E94850AE881F981448169E2CE010E9424
:10173000850A40E06BE4CE010E94850AE881F981C8
:10174000448169E2CE010E94850A41E06BE4CE014A
:101750000E94850AE881F981458169E2CE010E94F3
:10176000850A6BEF7AE89DCF80E39BE888839983B5
:101770001C8AA5CFDC011896ED91FC9130E020E0A9
:1017800040E069E10994DC011896ED91FC9130E0AC
:1017900020E040E068E10994CF93DF931F92CDB73A
:1017A000DEB76983BE016F5F7F4F0E94E6040F9032
:1017B000DF91CF910895EF92FF921F93CF93DF9324
:1017C000EC01162F7A010E94C30B60E4CE010E9447
:1017D000CC0BE885F9859701412F67E1CE0109958A
:1017E000CE01DF91CF911F91FF90EF900C94BA0B37
:1017F000EF92FF921F93CF93DF93EC01142F7901A7
:10180000663181F138F4643109F44BC0653179F007
:1018100080E022C06831C9F150F16931C9F7809187
:10182000C12E882391F1CE010E94BA0B2EC0809167
:10183000C12E882319F0CE010E94BA0BCE010E945E
:10184000C30B60E0CE010E94CC0B612FCE010E9441
:10185000CC0B81E08093C12EDF91CF911F91FF903F
:10186000EF900895642F0E94CC0B81E0F5CF80911A
:10187000C12E882319F0CE010E94BA0BA70119319D
:1018800038F4612FCE010E94DB0B1092C12EEDCFF8
:1018900068E1CE010E94DB0B185188E1E80EF11CD3
:1018A000EDCF8E898F3F11F488E78E8BE885F9851F
:1018B0009701412F64E1CE01DF91CF911F91FF90FD
:1018C000EF900994CF93DF93EC01A889B989FD01CA
:1018D000349131969491319684911396FD01A4919F
:1018E0006317A8F1961798F1631B770B8A9FE02D79
:1018F0001124E69FC001E79F900D1124280F392F76
:10190000311D83E0220F331F8A95E1F7C901049648
:10191000DA01245F3F4FE889F989E80FF91FE49164
:10192000ED93019682179307B1F78D89882361F0B3
:10193000FA019A01285F3F4F8191DF01119780954D
:101940008C932E173F07C1F7DF91CF910895FA01CD
:10195000CA0108961192E817F907E1F7E6CF4F920E
:101960005F926F927F928F929F92AF92BF92CF922F
:10197000DF92EF92FF920F931F93CF93DF93CDB738
:10198000DEB72D97CDBFDEBF7C01C62ED42EB22E82
:10199000DC0150968D919C91FC0132961491319608
:1019A0000491512E560E040F81E0860F581608F44C
:1019B00011E0712CFE0131964F0144244394672CB1
:1019C000AC2C262DA4016B2DC7010E94620CAC86A5
:1019D000DD864B8689869A86D7011496ED91FC9117
:1019E0009E01275F3F4F41E06FE0C7010995639477
:1019F000A394A51430F3D394710ED01600F32D9652
:101A0000CDBFDEBFDF91CF911F910F91FF90EF907F
:101A1000DF90CF90BF90AF909F908F907F906F900E
:101A20005F904F900895262F482F42954F70440F96
:101A3000682F6F7085E190E30C94AF0CCF93DF9328
:101A4000EC01683189F130F4643199F0673151F07B
:101A500080E005C06931B9F16032D1F781E0DF91F2
:101A6000CF91089550E0B9018FEF9FE20E94620983
:101A7000F5CF8C859D85AE85BF85892B8A2B8B2BD9
:101A800071F4E881F981A585B0E020EA36E841E00B
:101A900050E00E94F4206C877D878E879F878FEFB0
:101AA0009FE20E94570ADACF6C857D858E859F85DF
:101AB0000E94A5086E8970E0759567958FEF9FE28B
:101AC0000E94C909CBCF8FEF9FE20E94A209C6CF27
:101AD0000F931F93CF93DF938C016C32C0F46A3263
:101AE00008F040C0683269F1693209F44BC080E007
:101AF0006034C8F16F73F801E60FF11D868D8F3FDA
:101B000089F1603108F058C0642F70E017C06D3261
:101B100009F43FC060F384EB860F823040F7C62F94
:101B2000CF73C00FD12FD11D8E8D61E070E04111B8
:101B30003EC00E94F10670E060E08E8D0E94EC06CF
:101B400011C0025E1F4FD0E0F80181918F018F3FDD
:101B500031F061E070E0D03158F40E94F106DF5FAF
:101B6000D63191F781E0DF91CF911F910F910895C8
:101B70000E94F10661E070E0F801319780810E94D7
:101B8000EC06EDCF642F70E090E080E00E94B0079B
:101B9000E9CF85E090E0433010F082E090E0880FDC
:101BA000991F880F991F05970197F1F7DBCF0E94C6
:101BB000F10661E070E0C1CF30E020E08A3118F436
:101BC0000E94C7069C0191E0232B09F490E0F801E4
:101BD000918FC8CF1F93CF93DF93EC01EC89FD89E0
:101BE00049AD6A3059F43396E491E40FE9AF18AE89
:101BF00081E090E0DF91CF911F910895262F3296DA
:101C0000149168AD04960E94AF0CE8ADE10FE8AF07
:101C1000EFCF40910F305091103020910D30309126
:101C20000E3084E2849FD001859FB00D1124A1590C
:101C3000B34D92968D919C9101978217930779F0FD
:101C400082E1849FF001859FF00D1124E20FF31FC4
:101C5000EE0FFF1FED58F34D80819181089580E4D0
:101C600090E0089580910F309091103022E1289FEC
:101C7000F001299FF00D112480910D3090910E30CC
:101C8000E80FF91FEE0FFF1FEF58F34D8081918190
:101C9000089520910F303091103044E2429FF001BE
:101CA000439FF00D1124E159F34D24E2DC01019032
:101CB0000D922A95E1F70895EF92FF920F931F93EB
:101CC000CF93DF93CDB7DEB7A497CDBFDEBF81E062
:101CD00080933A3210923B320E94320E8093383217
:101CE0008C011127C8018A549E4C7C010E94090E68
:101CF000081719077CF4CE0101960E94490EE9816C
:101D0000FA81E00FF11F8081F70181937F010F5F5E
:101D10001F4FECCF00933932A496CDBFDEBFDF91C9
:101D2000CF911F910F91FF90EF900895CF939091D5
:101D30000F309730A8F5C82F0E94320E60E20E9443
:101D4000130D80910F30909110308730910504F57C
:101D500024E2289FF001299FF00D1124E159F34D51
:101D600062A173A180910D3090910E3001961C16E6
:101D70004CF0CC23B9F080910D3090910E30860F4D
:101D8000971F01970E948A2080930D3090930E3008
:101D90000E94320E6EE30E94130D81E080933A326E
:101DA000CF91089510920D3010920E30F1CFCF9256
:101DB000DF92EF92FF920F931F93CF93DF936C010B
:101DC000EB017B01E40EF51E10E000E0CE15DF050F
:101DD00061F06991D601ED91FC910190F081E02DC7
:101DE000C6010995080F191FF1CFC801DF91CF91E6
:101DF0001F910F91FF90EF90DF90CF900895DC013D
:101E00008D919C91DC01ED91FC910190F081E02D90
:101E100009941F93CF93DF932150203118F587FF4A
:101E200021C0D42F162FC82F622F682B80917530B8
:101E3000909176300E94FF0E612F6F778091753000
:101E4000909176300E94FF0ECF7EC03C59F06D2FEE
:101E50006F778091753090917630DF91CF911F919F
:101E60000C94FF0EDF91CF911F910895282F80E8E9
:101E70000E94090F8091BE2E811105C070E060E0C4
:101E800082E00C947A060895282F80E90E94090FB9
:101E90008091BE2E811105C061E070E082E00C945B
:101EA0007A0608950F931F93CF93DF93EC018C0173
:101EB000075F1F4F699180917530909176300E9435
:101EC000FF0E0C171D07B1F7DF91CF911F910F91F6
:101ED00008951F93CF93DF93CDB7DEB72997CDBF7A
:101EE000DEBF182F863849F470E06093BF2E7093E0
:101EF000C02E65527547FB016081812F90E0FC0187
:101F0000E153F44D608329E0EEE0FAE8DE0111963A
:101F100001900D922A95E1F7880F892F881F990B60
:101F20008B83812F8F778E836987CE0101960E94E4
:101F3000520F143431F01F3221F01A3111F01530E4
:101F400079F48E818F5F8E83CE0101960E94520FAD
:101F50008E8184508E831986CE0101960E94520F85
:101F60002996CDBFDEBFDF91CF911F9108956D3FC0
:101F700048F46A3F10F4683F39F4FC018081918194
:101F80000C94FF0E6E3FC8F70895CF92DF92EF9248
:101F9000FF92C090BA2ED090BB2EE090BC2EF09055
:101FA000BD2EC701B60128E130E040E050E00E94BC
:101FB0009E206115710581059105D9F0613071058B
:101FC00081059105E1F08FEFC81AD80AE80AF80AEE
:101FD000C092BA2ED092BB2EE092BC2EF092BD2EB3
:101FE00068EF85E790E3FF90EF90DF90CF900C943F
:101FF000B70F61E070E082E00E947A06E4CF70E003
:1020000060E0F9CF1092BA2E1092BB2E1092BC2E27
:102010001092BD2E81E08093BE2E6AEF85E790E39B
:102020000C94B70F6CEF85E790E30E94B70F70E058
:1020300060E082E00E947A061092BE2E0895813EF2
:1020400010F40C94090F883F28F0682F85E790E37F
:102050000C94B70F089587FF0AC09CE0980F923048
:1020600030F08D3F21F0803F18F4807F089580E0AC
:102070000895982F9F7E282F2F7C203839F0803E9E
:1020800029F081E0903C19F080E0089581E0089506
:10209000DC01ED91FC910684F785E02D23E030E032
:1020A0000994CF93DF93CDB7DEB7A497CDBFDEBF42
:1020B0000E94320E60E20E94130D80E1E7E1FAE82F
:1020C000DE01119601900D928A95E1F780910F3013
:1020D00090911030892B09F040C080910D30909183
:1020E0000E30009711F58091BF2E9091C02E07966B
:1020F00080930F309093103010920D3010920E306C
:10210000CE0101960E94490E69817A8186EB91E3A6
:102110000E942C221092383280E480933932A496A7
:10212000CDBFDEBFDF91CF9108958130910551F48D
:102130000E94320E6EE3A496CDBFDEBFDF91CF9139
:102140000C94130D880F991FE1E0F0E0EC0FFD1FD8
:10215000E80FF91F80819181CBCF10920F30109240
:102160001030CACF4F925F926F927F928F929F9260
:10217000AF92BF92CF92DF92EF92FF920F931F9395
:10218000CF93DF93CDB7DEB7A097CDBFDEBF109260
:102190003A3281E080933B3288E1E7E2FAE8DE01FF
:1021A000119601900D928A95E1F7E0910F30F09130
:1021B000103044E0EE0FFF1F4A95E1F7EC5AF44768
:1021C00080910D3090910E30E80FF91F1081812F12
:1021D00090E09C012153344D6901F90180811F92E7
:1021E0008F9383E99CE89F938F937E01F9E1EF0E33
:1021F000F11CFF92EF920E9433220F900F900F90EC
:102200000F900F900F90133139F0183229F01D33D1
:1022100019F0123509F062C01150E12FF0E0E153DE
:10222000F44D608170E090E080E00E94871E4B01D9
:102230005C01F601608170E090E080E00E94871E02
:1022400020E030E048EC52E40E94E61D20E030E05F
:1022500040E85FE30E94751D2B013C0120E030E067
:10226000A901C501B4010E94E11D811105C0812CA5
:10227000912CA12C3FE3B32EA5019401C301B2011F
:102280000E94891F0E94411F20E030E040E451E499
:102290000E94891F28E132E741E35FE30E94E61DC7
:1022A0002AE037ED43E25CE30E94751D0E94F61FB1
:1022B0000E94581E862F6CE00E946A20892F90E0B1
:1022C000880F991F21E030E02C0F3D1F820F931FD4
:1022D000FC0160817181C7010E942C220E94320E94
:1022E0007C01809338328C011127F801EA54FE4CAE
:1022F000898D81838A8D828307541E4C82E0C82E8B
:10230000D12C90E2B92E0E94090E9801265B314330
:10231000281739073CF4F801B1928F01FFEFCF1A6B
:10232000DF0AF1CFEC0CE0923932A096CDBFDEBFD0
:10233000DF91CF911F910F91FF90EF90DF90CF90A1
:10234000BF90AF909F908F907F906F905F904F90D5
:102350000895CF93613308F075C06150E4E8FCE85C
:1023600090E080E02191621728F0621B019687308F
:102370009105C1F78093B82E9093B92E70E06093C9
:10238000B62E7093B72EFC0194E0EE0FFF1F9A95C6
:10239000E1F7EC5AF447E60FF71FC081EC2FF0E0AD
:1023A000E15CF547208130E0A42FB0E00E94E520F9
:1023B0002FE730E040E050E00E94C020622FC63896
:1023C00011F4669566958C2F0E94690F8091B82E46
:1023D00090910F30891336C02091B62E90910D3018
:1023E000291759F1873000F50E94320E60E20E94F1
:1023F000130D80910F309091103022E1289FF00151
:10240000299FF00D11248091B62E9091B72EE80FE0
:10241000F91FEE0FFF1FEF58F34D6EE380810E940E
:10242000130D81E080933A328091B62E9091B72EB1
:10243000992780930D3090930E30C63819F0CF91C4
:102440000C94B210CF910895CF93DF93CDB7DEB740
:10245000A497CDBFDEBF482FE0910F30F091103030
:10246000E730C0F18091BF2E9091C02E141674F504
:10247000019668E070E00E948A208093BF2E9093BE
:10248000C02E6091BF2E87E0860F90E080930F30C2
:102490009093103086E80E94690F6FE08BE90E94EC
:1024A000690FCE0101960E94490E69817A8186EBFF
:1024B00091E30E942C221092383280E480933932CA
:1024C000A496CDBFDEBFDF91CF9108954423C9F21A
:1024D0000796CFCF84E0EE0FFF1F8A95E1F7EC5A05
:1024E000F44720910D3030910E30E20FF31F8081C0
:1024F0008F3F31F3863821F390913A32911126C003
:10250000E82FF0E0DF01A15CB5476C91633651F430
:10251000823541F08D3331F0883221F025E030E012
:10252000833111F421E030E0E153F44D9081141631
:10253000A4F4961729F2A901490F511D6417150635
:1025400019F014F0692F620F0E94690FA496CDBF95
:10255000DEBFDF91CF910C94B2104423B9F39923DD
:1025600009F4AECF692F621B9217130609F064F7C6
:1025700060E0EACF1F920F920FB60F9211242F93B3
:102580003F934F935F936F937F938F939F93AF93FB
:10259000BF934091F32F5091F42F6091F52F7091DC
:1025A000F62F8091F12F9091F22F2091EF2F309103
:1025B000F02F420F531F611D711D2091ED2F30919F
:1025C000EE2F820F931F883E23E0920730F0885E43
:1025D00093404F5F5F4F6F4F7F4F8093F12F9093EA
:1025E000F22F4093F32F5093F42F6093F52F7093B5
:1025F000F62F8091FB2F9091FC2FA091FD2FB09191
:10260000FE2F0196A11DB11D8093FB2F9093FC2FEF
:10261000A093FD2FB093FE2F81E08093860ABF9197
:10262000AF919F918F917F916F915F914F913F916A
:102630002F910F900FBE0F901F9018951F920F9221
:102640000FB60F9211242F933F934F935F936F9385
:102650007F938F939F93AF93BF93EF93FF938BE100
:1026600091E30E944405FF91EF91BF91AF919F913B
:102670008F917F916F915F914F913F912F910F902B
:102680000FBE0F901F9018951F920F920FB60F92CA
:1026900011242F938F939F93EF93FF93E091273112
:1026A000F0912831818181FD1BC0908180912D3175
:1026B0008F5F8F7320912E31821741F0E0912D3181
:1026C000F0E0E55EFE4C918F80932D31FF91EF910C
:1026D0009F918F912F910F900FBE0F901F90189583
:1026E0008081F4CF1F920F920FB60F9211242F9377
:1026F0003F934F935F936F937F938F939F93AF938A
:10270000BF93CF93EF93FF93C091AB08C2FF0AC072
:102710001092DC2F1092DB2F1092DA2F84E00E94AF
:10272000720814C0C6FF2FC08091D92F813051F498
:102730008091DC2FE091D72FF091D82F90E0099570
:102740001092D92FC0FF14C00E948208FF91EF9110
:10275000CF91BF91AF919F918F917F916F915F9139
:102760004F913F912F910F900FBE0F901F90189592
:1027700080E48093AB0881E00E9472088091AB08EE
:1027800085FFE4CFE1CFC7FF5CC0C3FF08C0109254
:10279000DC2F1092DB2F1092DA2F83E0C0CF8091D4
:1027A000A90880668093A9088091AB0881FF2CC09E
:1027B0008091DB2F882349F08091AB0884FF05C00E
:1027C00082E08093AA0881E0AACF9091DB2F8091CC
:1027D000DA2F9817A8F4E091DB2F8091D22F9091F7
:1027E000D32FE80FF92FF11D80818093AD088091E0
:1027F000DB2F8F5F8093DB2F83E08093AA08A6CF27
:1028000082E08093AA088BCF9091DC2F8091D62F05
:10281000981790F48091AD08E091DC2F2091D42F8F
:102820003091D52FE20FF32FF11D80838091DC2FA3
:102830008F5F8093DC2FE0CF86E08093AA0882E050
:102840006ECF85E06CCF1F920F920FB60F921124BE
:102850002F933F938F939F93EF93FF938091A508BE
:10286000982F9C70E1F08091A50894E082FF93E09E
:102870009093E72F8093A50881E090E08093DD2F6F
:102880009093DE2F1092E82FFF91EF919F918F91FF
:102890003F912F910F900FBE0F901F90189586FFBC
:1028A0004EC02091E42F9091E32F8091A50884FFE2
:1028B00015C08091E02F882379F083E08093A408ED
:1028C00085E08093E72F1092E82F81E090E08093DD
:1028D000DD2F9093DE2FD8CF81E0F0CF8091E22FD3
:1028E000821790F4E091E22F8091E52F9091E62FEE
:1028F000E80FF92FF11D80818093A8088091E22FC5
:102900008F5F8093E22FC0CF8091E12F891760F411
:1029100084E090E08093DD2F9093DE2F8091DF2F75
:1029200081608093A708B0CF8091E02F882329F0A1
:1029300083E08093A40881E0C4CF81E0FACF87FFD1
:1029400040C09091E12F8091E32F9817D8F48091A7
:10295000A808E091E12F2091D02F3091D12FE20FE4
:10296000F32FF11D80838091E12F8F5F8093E12F02
:102970009091E32F8091E12F8917D8F482E0809322
:10298000A40882CF8091E02F882389F087E080938C
:10299000A40882E08093E72F1092E82F81E090E076
:1029A0008093DD2F9093DE2F1092E32F6DCF85E083
:1029B000EECF8091E02F882311F087E0BACF85E039
:1029C000B8CF86E07ECF1F93CF93DF93CDB7DEB72E
:1029D000A497CDBFDEBF10921D3110921E3188EE3C
:1029E00093E0A0E0B0E080931F3190932031A0935A
:1029F0002131B093223148E45CE840931B3150937D
:102A00001C3140E458E04093273150932831109214
:102A1000293141E040932A3110922B3110922D310F
:102A200010922E3110922F311092303140E24093AB
:102A300031311092323110923331109201301092B4
:102A400002308093033090930430A0930530B0930C
:102A5000063082E69CE88093FF2F909300304091EF
:102A60006B2C50916C2C60916D2C70916E2C769526
:102A700067955795479580E0413099E059079DE368
:102A80006907710540F076956795579547958F5F73
:102A9000863091F787E094E090930C30982F9095D2
:102AA000292F217030E094E0220F331F9A95E1F72F
:102AB0008162822B80930B3080E190E08093B52C73
:102AC0009093B62C84E090E08093D92C9093DA2CEC
:102AD00028E030E02093FD2C3093FE2C85E090E040
:102AE0008093212D9093222D2093452D3093462DB8
:102AF0008093692D90936A2D1092133010921430A8
:102B00001092493010924A308FE89CE8809311303F
:102B100090931230109215301092163010922A3085
:102B200010922D30109221301092223010922330CA
:102B3000109224308FEF80932B3080932F30E3E37B
:102B4000F0E389E490E31FEF11938E179F07E1F7FD
:102B500083E09BE08093193090931A3088EF9BE0DC
:102B600080931B3090931C308EE19DE080931D304C
:102B700090931E3088E69DE080931F309093203024
:102B800030E020E040E069E085E190E30E94030B43
:102B900010933E3010933F301093403010923832F3
:102BA00080E48093393210920F30109210301092DE
:102BB0000D3010920E30CE0101960E94490E6981AF
:102BC0007A8186EB91E30E942C22E7EFF1E387E321
:102BD00092E320E221938E179F07E1F7109237329C
:102BE0001092F63182E591E0809325309093263063
:102BF00081E080933A328BE191E38093B4319093FA
:102C0000B53110924B3010924C3010924D301092E2
:102C10004E3010924F30109250301092513010922E
:102C2000523010925330109254301092553010920E
:102C300056301092573010925830109259301092EE
:102C40005A3010925B3010925C3010925D301092CE
:102C50005E3010925F3010926030109261301092AE
:102C6000623010926330109264301092653010928E
:102C7000663010926730109268301092693010926E
:102C80006A3010926B3010926C3010926D3010924E
:102C90006E3010926F30109270301092713010922E
:102CA0007230109273301092743084EB91E3809301
:102CB0007530909376301092773010927830109271
:102CC000793010927D3010927E3010927F301092C9
:102CD00080308FEF9FEF809381309093823080938C
:102CE00083309093843083E08093853010928630D7
:102CF00010928730109288301092893010920A31E9
:102D0000EAE8F0E380E8DF011D928A95E9F7109286
:102D10000D3110920E3110920F311092103110922D
:102D2000113110921231109213311092143110920D
:102D300015311092163110921731109218311092ED
:102D4000193110921A31A496CDBFDEBFDF91CF9119
:102D50001F910895CF93DF93CDB7DEB72897CDBFEE
:102D6000DEBF88ED90E084BF9093610080E094E244
:102D7000A4EFB0E080936B2C90936C2CA0936D2CFF
:102D8000B0936E2C8091020686608093020680913B
:102D90000006816080930006809102068F7C8093FC
:102DA00002068091A0008F788093A0008091020697
:102DB0008061809302061092E20581E08093E40531
:102DC00083E08093010A2FEF30E02093260A3093AE
:102DD000270A80E890E08093380A9093390A80931C
:102DE0003A0A90933B0A80933C0A90933D0A8BE009
:102DF0008093000A8091E50581608093E5058091CC
:102E0000E50582608093E50557E05093810A4FEF16
:102E100040938C0A90E890938D0A85E08093800A15
:102E20005093910A40939C0A90939D0A8093900A34
:102E30005093A10A4093AC0A9093AD0A8093A00AE4
:102E400080E094E08093F92F9093FA2F8091F92FEE
:102E50009091FA2FB9010E9476206093F72F70931A
:102E6000F82F8091F92F9091FA2FE8EEF3E0BF014F
:102E70000E9476206093EF2F7093F02F8091F92FAE
:102E80009091FA2FBF010E9476208093ED2F9093AE
:102E9000EE2F20938C0A30938D0A8091850A8160F1
:102EA0008093850A84E08093800A8091800A816003
:102EB0008093800A7894E0911930F0911A3030E0D4
:102EC00020E040E06AE085E190E30995CE010196BB
:102ED00028E0DC011D922A95E9F70E94D003E091D9
:102EE0001930F0911A3030E020E040E06BE085E1ED
:102EF00090E309958BEB9CE89F938F9380EC9CE883
:102F00009F938F9387EF91E39F938F930E94332238
:102F100007EFE02E01E3F02E0F900F900F900F902F
:102F20000F900F9010E0F70161917F01812F0E94B7
:102F3000130D1F5F1034B9F761E070E082E00E946A
:102F4000210662E070E08CE00E94F10662E070E031
:102F50008BE00E94F10662E070E08AE00E94F106D8
:102F600062E070E081E10E94F10662E070E085E1DC
:102F70000E94F10662E070E084E10E94F10668E4DC
:102F8000E62E6BE8F62E7CE4A72E7BE8B72EE0E574
:102F9000CE2EEBE8DE2EFCE46F2EFBE87F2EA9EEB2
:102FA0008A2EAFE29A2EB8EE4B2EB3E05B2E1AEFCC
:102FB000212E312C80E390E00E9407218C01D70163
:102FC0009C91B2E0EB0EF11CF5012081F2E0AF0E16
:102FD000B11CD6018C91B2E0CB0ED11C37E0F801C8
:102FE0003383A3E0A48335831682B1E0B78332E351
:102FF0003087418652862386348615861686178644
:10300000108A118E128E138E148E158E168E178EB8
:1030100010A211A212A213A214A215A216A217A204
:1030200010A611A612A613A614A615A616A617A6D4
:1030300080832183928362E070E00E94F10662E067
:1030400070E0F80181810E94F10662E070E0D80131
:1030500012968C910E94F106F401019311934F0195
:103060006E147F0409F0A6CFE091E92FF091EA2FCA
:1030700086E99EE0848F958F81E590E182A393A3FA
:103080008CEE97E080A791A7E091EB2FF091EC2FC9
:1030900084E292E1848F958F8CE59EE082A393A3D6
:1030A000E0917530F091763080819181DC01ED9175
:1030B000FC910484F585E02D42E15AE760E070E080
:1030C00009951092773010927930109278301092E2
:1030D0007F301092803010927D3010927E308FEFD2
:1030E0009FEF8093813090938230809383309093D0
:1030F00084300E94E00760930D3170930E3180930D
:103100000F319093103110920A3110928730109243
:103110008630109288301092893010920B311092C4
:103120000C311092853085EC9FE08093673090934E
:10313000683082E090E18093693090936A3082E158
:1031400090E180936F309093703084E49FE080939F
:1031500051309093523086E39FE080934F309093AC
:10316000503089EA91E1809355309093563060ED6C
:1031700077E080E090E00E94B00730E8A32EB12C09
:1031800055245394CC24C394D12C53E0252E312CB8
:10319000E0907730B0E1BE1508F478C0E09175306A
:1031A000F091763080819181DC01ED91FC91048079
:1031B000F581E02D0995892B09F468C080911A31B9
:1031C0008E7F80931A31E0917530F0917630808156
:1031D0009181DC01ED91FC910680F781E02D09954C
:1031E000182F8D3F09F452C080917F30909180302C
:1031F000009709F0DEC110937A3000917830802F6B
:103200000E942B100E943910882351F017FD08C02E
:1032100000937A3010937B30C0927F30D092803010
:1032200010917A30812F0E942B10813F09F48CC1BC
:1032300008F023C1803B39F058F4803921F0803AFE
:1032400011F0803869F420927D3030927E3082C156
:10325000803D09F479C108F001C1803C09F474C1D2
:1032600080911A31816080931A31E0914D30F09154
:103270004E30309709F0099510927F3010928030CF
:1032800010927D3010927E3010927830A9EEEA2EA6
:10329000AFE2FA2EB3E04B2ED7010D911D917D01C7
:1032A0000E94E007F80125853685478550893B0156
:1032B0004C01621A730A840A950AB401A30187813A
:1032C00090E0B0E0A0E0481759076A077B0708F4D0
:1032D000A2C00E94E007D8011D966D937D938D9347
:1032E0009C93509716966C901697712C12968C9111
:1032F0008A3108F0B5C20E94C70668267926660C96
:10330000771C660C771CF80180818A3108F0ABC20B
:103310000E94C706880F991F682AD80111968C91C0
:103320008A3108F0A3C20E94C706682AF8016382A6
:103330008481962D9827937009F4A2C2F4E08F9FA0
:1033400090011124862D8370822BD80114968C93C2
:1033500014978B3409F08CC2EFEF5996EC93F80177
:103360008581712C7594679475946794682660FEC6
:103370008EC20E94E007D80151962D913D914D914A
:103380005C9154973B014C01621A730A840A950AB6
:10339000B401A30118968C9190E0B0E0A0E08417EE
:1033A0009507A607B70788F4D80115968C9115974D
:1033B00080FD68C215965C920E94E007D801519684
:1033C0006D937D938D939C935497D80115968C9112
:1033D0001597833009F4CFC208F061C2882309F43D
:1033E00098C2813009F4CEC2F801818D928D81118D
:1033F0004FC3911101C0138ED8015B968C915B97DE
:1034000081115EC35A968C915A97833009F4E1C2B8
:10341000843009F4E8C2BDEEEB16BFE2FB0609F00A
:103420003BCF8091383290913932891708F016C31A
:10343000E82FF0E0EA54FE4CDF01AF5BBF4F2C9168
:10344000908129130DC3811103C06EE30E94130DF7
:10345000809138328F5F80933832E3CF803E09F419
:10346000F2CE803F09F0FCCEA0927D30B0927E304B
:103470001092783080938A306DC0873FA9F308F0AE
:103480005CC0833F09F460C008F4DDCE863F09F0DC
:10349000E7CE809387301092863010928830109259
:1034A000893050920A3110927F3010928030109201
:1034B0007D3010927E3080918730803941F4809148
:1034C0008930811104C020E8622E6092873080919B
:1034D00087308058813630F480918630E81611F0BC
:1034E000E11002C00E94000490918530392F3170A4
:1034F00090FFCCCE892F8E7F09F4C8CE8091873083
:1035000020E8280F213608F026C120918630E216E7
:1035100019F031E0E11030E09695923009F414C1D1
:10352000933009F415C1913009F0B0CE4091893043
:10353000609188300E941F10A9CE8D3F08F4A9CF5A
:103540008E3F08F0A6CF8CCEE2E0F0E0E0937D3035
:10355000F0937E3020917F303091803040917D30EB
:1035600050917E304150510924173507D8F080938F
:1035700087301F701F5F1093863080917B3080935F
:10358000883010928930C0920B31D0920C31109259
:103590007F301092803010927D3010927E305092A9
:1035A0000A3189CF2F5F3F4F20937F303093803097
:1035B0006DCE17FF0CC01D3F08F048C0183F08F043
:1035C00048C0103F09F452C0173F09F44FC0209182
:1035D0007A30FC01E55BFF4C203F19F0273F09F0F2
:1035E0006EC017AF60907D3070907E309301215097
:1035F00031098217930708F4A1C000917A30003F87
:1036000019F0073F09F05DC01091093180EF8093F8
:10361000093180938730B0E8B093883010928930B8
:1036200010928630A0920B31B0920C3150920A3138
:103630000E94000487EF80938A3010938B30E2E081
:10364000F0E0E0937F30F093803020CE1E3F08F40E
:10365000BECF10938730109288301092893010922C
:103660008630C0920B31D0920C3199CF20918A30A4
:10367000203F19F0273F09F0F3CD9C012F5F3F4F0A
:10368000855B9F4CDC01DF961C9380EF8093873035
:1036900020938830309389301092863020930B31FC
:1036A00030930C3150920A3110927F30109280305A
:1036B00010927D3010927E3010927830FCCE17A799
:1036C00091CF802F0E942B10182F809387300E945B
:1036D0003910882341F1802F8F708F5F809386305F
:1036E00080917B308093883080917C30F3E06F163E
:1036F000710409F080E08093893010927F3010923D
:10370000803010927D3010927E3050920A31103B02
:1037100039F060F4103921F0103A11F0103861F6E8
:1037200000937830C8CE10928630DACF103DC1F3C6
:10373000103EB1F3103C09F0BFCFF2CF0196809359
:103740007F3090938030A2CD332309F49FCDEECE0D
:1037500031119CCDEBCEE0E1E80FE03108F096CDE1
:10376000F0E0EB54F44E0C94DF20CB1B1C1CFD1B33
:10377000EB1B46194619C51B4619C51B4619C51B27
:10378000C51BC51B4619C51BC51B682F85E790E3E4
:103790000E94B70F7BCDE0908830F090893021E80F
:1037A000E216F10418F090E8E92EF12C0BE410E396
:1037B000C8018B5490438E159F0508F067CDD80142
:1037C000DF966C9180917530909176300E94FF0E5B
:1037D0000F5F1F4FEDCF1091883063EF80917530F0
:1037E000909176300E94FF0E612F6F778091753037
:1037F000909176300E94FF0E49CD00918930B0E85B
:103800000B9F8001112480918830082B62EF8091FA
:103810007530909176300E94FF0E602F6F77809107
:103820007530909176300E94FF0E000F012F001F1F
:10383000110B1195602FD9CF60918830E0E16E9F18
:10384000B00111246077109189301F70162B61EF41
:1038500080917530909176300E94FF0E612FC6CF17
:1038600090E080E04ACD90E080E054CD80E05DCDF6
:10387000873819F459965C9272CDF801118E6FCD8C
:10388000118E6DCD66E0662EF801658295CD0E94A1
:10389000E007F801618B728B838B948B96CD84301B
:1038A000E9F1863009F0A0CDE4E01596EC93159788
:1038B0005A964C925A9794968D919C91892BF9F037
:1038C0000E94E007D80155962D913D914D915C9154
:1038D00058973B014C01621A730A840A950AB40195
:1038E000A3011B968D919C91B0E0A0E04817590769
:1038F0006A077B0720F4E4E0D8015A96EC930E9413
:10390000E007D80155966D937D938D939C935897BE
:103910006BCD57E0652EF801628E66CD5A968C917C
:1039200084508230E8F40E94E007F8012589368946
:103930004789508D3B014C01621A730A840A950A2B
:10394000B401A30181859285B0E0A0E084179507BA
:10395000A607B70728F4158246E0742E728E44CD70
:10396000D8015A968C915A97833009F03DCDE5E005
:103970005A96EC9339CDE7E01596EC9315975A9645
:103980001C9232CD15964C9215975A969C915A9747
:10399000965032E0632E923008F0BDCF5A968C9349
:1039A00023CDE5E0D8015B96EC935B975C96ED91B7
:1039B000FC91309709F482C009951ECD963008F429
:1039C0001BCDE7E05B96EC935B979096ED91FC91B5
:1039D000F0CF92E0692EF801638E02A0F3A1E02DF2
:1039E000309739F418CD5B964C925B979496ED9195
:1039F000FC91099510CD538E06A0F7A1E02DF0CFD4
:103A0000843071F4D8015A968C915A97813009F01C
:103A100002CD5B968C935B979A96ED91FC91E0CFEB
:103A2000863059F4F801828D8150823008F0F3CC51
:103A3000538E04A4F5A5E02DD3CF873009F0EBCC4D
:103A4000D8015A968C915A97813009F0E4CC5B9654
:103A50008C935B979E96ED91FC91C2CF8917A9F04C
:103A6000E82FF0E0EA54FE4C60810E94130D809133
:103A70003832E82FF0E0EA54FE4CDF01AF5BBF4F75
:103A800090819C938F5F809338320E940A0680CB8E
:103A9000992309F486CF2CEF290F223038F0D80172
:103AA0005B962C915B97263009F088CF26E0622E3A
:103AB000F801638E068CF78DE02D7BCFF801838DA6
:103AC0009EEF980F923008F09BCFF801828D8230E4
:103AD00009F491CF863009F09ECC84E0682E638E85
:103AE00000A4F1A5E02D7CCF5058BB27AA270E9447
:103AF0008C1D0C94FF1E0E94F11E38F00E94F81ECF
:103B000020F039F49F3F19F426F40C94EE1E0EF4C5
:103B1000E095E7FB0C94E81EE92F0E94101F58F374
:103B2000BA17620773078407950720F079F4A6F5A2
:103B30000C94321F0EF4E0950B2EBA2FA02D0B0122
:103B4000B90190010C01CA01A0011124FF27591BE2
:103B500099F0593F50F4503E68F11A16F040A22FE8
:103B6000232F342F4427585FF3CF46953795279559
:103B7000A795F0405395C9F77EF41F16BA0B620B58
:103B8000730B840BBAF09150A1F0FF0FBB1F661F9F
:103B9000771F881FC2F70EC0BA0F621F731F841FE2
:103BA00048F4879577956795B795F7959E3F08F008
:103BB000B0CF9395880F08F09927EE0F97958795CA
:103BC00008950E94C41E08F481E008950E94FA1D21
:103BD0000C94FF1E0E94F81E58F00E94F11E40F047
:103BE00029F45F3F29F00C94E81E51110C94331F07
:103BF0000C94EE1E0E94101F68F39923B1F3552315
:103C000091F3951B550BBB27AA27621773078407EF
:103C100038F09F5F5F4F220F331F441FAA1FA9F385
:103C200035D00E2E3AF0E0E832D091505040E69573
:103C3000001CCAF72BD0FE2F29D0660F771F881FD4
:103C4000BB1F261737074807AB07B0E809F0BB0BC7
:103C5000802DBF01FF2793585F4F3AF09E3F5105DB
:103C600078F00C94E81E0C94331F5F3FE4F3983E09
:103C7000D4F3869577956795B795F7959F5FC9F7C4
:103C8000880F911D9695879597F90895E1E0660F45
:103C9000771F881FBB1F621773078407BA0720F0BE
:103CA000621B730B840BBA0BEE1F88F7E095089527
:103CB0000E94181F88F09F5798F0B92F9927B75185
:103CC000B0F0E1F0660F771F881F991F1AF0BA95C0
:103CD000C9F714C0B13091F00E94321FB1E00895CD
:103CE0000C94321F672F782F8827B85F39F0B93FBF
:103CF000CCF3869577956795B395D9F73EF4909573
:103D00008095709561957F4F8F4F9F4F0895E894F0
:103D100009C097FB3EF490958095709561957F4F13
:103D20008F4F9F4F9923A9F0F92F96E9BB279395C1
:103D3000F695879577956795B795F111F8CFFAF4D1
:103D4000BB0F11F460FF1BC06F5F7F4F8F4F9F4F02
:103D500016C0882311F096E911C0772321F09EE860
:103D6000872F762F05C0662371F096E8862F70E0C6
:103D700060E02AF09A95660F771F881FDAF7880FA0
:103D80009695879597F90895990F0008550FAA0BF6
:103D9000E0E8FEEF16161706E807F907C0F012165E
:103DA0001306E407F50798F0621B730B840B950B61
:103DB00039F40A2661F0232B242B252B21F40895B6
:103DC0000A2609F4A140A6958FEF811D811D089553
:103DD00097F99F6780E870E060E008959FEF80ECBE
:103DE000089500240A941616170618060906089561
:103DF00000240A9412161306140605060895092EC7
:103E00000394000C11F4882352F0BB0F40F4BF2B35
:103E100011F460FF04C06F5F7F4F8F4F9F4F089575
:103E200057FD9058440F551F59F05F3F71F047956B
:103E3000880F97FB991F61F09F3F79F08795089550
:103E4000121613061406551FF2CF4695F1DF08C06F
:103E5000161617061806991FF1CF8695710561058C
:103E600008940895E894BB2766277727CB0197F934
:103E7000089516F00C9435200C94EE1E68940C9462
:103E8000E81E0E94181FA8F39923C1F3AEF3DF9335
:103E9000CF931F930F93FF92C92FDD2788232AF01A
:103EA0002197660F771F881FDAF720E030E040E89F
:103EB0005FEB9FE3883920F0803E38F021968F77C2
:103EC0000E94751DE0E9F0E004C00E94751DEDEB55
:103ED000F0E00E9443208B01BE01EC01FB2E6F57E6
:103EE00071097595771F880B990B0E94891E28E12F
:103EF00032E741E35FE30E949C1FAF2D9801AE01C2
:103F0000FF900F911F91CF91DF910E948C1D0C9417
:103F1000FF1E0E949C1F0C94FF1E0E94F11E38F091
:103F20000E94F81E20F0952311F00C94E81E0C94CA
:103F3000EE1E11240C94331F0E94101F70F3959FE6
:103F4000C1F3950F50E0551F629FF001729FBB2790
:103F5000F00DB11D639FAA27F00DB11DAA1F649F2C
:103F60006627B00DA11D661F829F2227B00DA11DDF
:103F7000621F739FB00DA11D621F839FA00D611D65
:103F8000221F749F3327A00D611D231F849F600D86
:103F9000211D822F762F6A2F11249F5750409AF0AF
:103FA000F1F088234AF0EE0FFF1FBB1F661F771F3B
:103FB000881F91505040A9F79E3F510580F00C9406
:103FC000E81E0C94331F5F3FE4F3983ED4F38695CC
:103FD00077956795B795F795E7959F5FC1F7FE2BA6
:103FE000880F911D9695879597F908950E94181F3F
:103FF000E8F09E37E8F09639B8F49E3848F4672F19
:10400000782F8827985FF9CF869577956795939550
:104010009539D0F3B62FB1706B0F711D811D20F44F
:1040200087957795679593950C941A200C94352075
:104030000C94331F882371F4772321F09850872B39
:10404000762F07C0662311F499270DC09051862B57
:1040500070E060E02AF09A95660F771F881FDAF704
:10406000880F9695879597F908959F3F31F0915065
:1040700020F4879577956795B795880F911D96954C
:10408000879597F90895DF93CF931F930F93FF922E
:10409000EF92DF927B018C01689406C0DA2EEF016B
:1040A0000E949C1FFE01E894A591259135914591B0
:1040B0005591A6F3EF010E948C1DFE019701A80106
:1040C000DA9469F7DF90EF90FF900F911F91CF91F5
:1040D000DF910895991B79E004C0991F961708F0A5
:1040E000961B881F7A95C9F780950895AA1BBB1B5C
:1040F00051E107C0AA1FBB1FA617B70710F0A61BE8
:10410000B70B881F991F5A95A9F780959095BC0108
:10411000CD01089597FB072E16F4009407D077FD84
:1041200009D00E94762007FC05D03EF49095819539
:104130009F4F0895709561957F4F0895A1E21A2EC3
:10414000AA1BBB1BFD010DC0AA1FBB1FEE1FFF1F3B
:10415000A217B307E407F50720F0A21BB30BE40B8B
:10416000F50B661F771F881F991F1A9469F76095D2
:104170007095809590959B01AC01BD01CF0108958C
:10418000052E97FB1EF400940E94D72057FD07D000
:104190000E949E2007FC03D04EF40C94D72050952B
:1041A0004095309521953F4F4F4F5F4F0895909523
:1041B0008095709561957F4F8F4F9F4F0895EE0FBB
:1041C000FF1F0590F491E02D0994A29FB001B39FC9
:1041D000C001A39F700D811D1124911DB29F700D10
:1041E000811D1124911D08950E94E520A59F900D29
:1041F000B49F900DA49F800D911D11240895B7FFC9
:104200000C94F4200E94F420821B930B08950F93CA
:104210001F93CF93DF938230910510F482E090E0FA
:10422000E0913E32F0913F3230E020E0B0E0A0E09B
:10423000309799F42115310509F44AC0281B390B30
:1042400024303105D8F58A819B816115710589F18A
:10425000FB0182839383FE0111C040815181028161
:10426000138148175907E0F04817590799F4109738
:1042700061F012960C93129713961C933296CF010D
:10428000DF91CF911F910F91089500933E321093CB
:104290003F32F4CF2115310551F04217530738F062
:1042A000A901DB019A01BD01DF01F801C1CFEF01D6
:1042B000F9CF80933E3290933F32CDCFFE01E20F93
:1042C000F31F819391932250310928833983D7CFEB
:1042D00020913C3230913D32232B41F420918D2EA0
:1042E00030918E2E20933C3230933D3220918B2E94
:1042F00030918C2E2115310541F42DB73EB74091F8
:104300008F2E5091902E241B350BE0913C32F09172
:104310003D32E217F307A0F42E1B3F0B2817390795
:1043200078F0AC014E5F5F4F2417350748F04E0F11
:104330005F1F40933C3250933D32819391939FCFC6
:10434000F0E0E0E09CCFCF93DF930097E9F0FC0131
:10435000329712821382A0913E32B0913F32ED012A
:1043600030E020E01097A1F420813181820F931F6B
:1043700020913C3230913D322817390709F061C055
:10438000E0933C32F0933D32DF91CF910895EA0102
:10439000CE17DF07E8F54A815B819E014115510583
:1043A000B1F7E901EA83FB8349915991C40FD51F05
:1043B000EC17FD0761F4808191810296840F951FAF
:1043C000E90188839983828193818A839B83F0E0CA
:1043D000E0E012968D919C9113970097B9F52D917D
:1043E0003C911197CD010296820F931F20913C3290
:1043F00030913D322817390739F6309751F5109230
:104400003E3210923F32A0933C32B0933D32BCCF4B
:10441000C283D38340815181840F951FC817D90768
:1044200061F44E5F5F4F88819981480F591F408327
:1044300051838A819B81828393832115310509F001
:10444000B0CFE0933E32F0933F329ECFFD01DC01CE
:10445000C0CF12821382D7CFFB01DC0101900D92F5
:104460000020E1F70895AEE0B0E0E9E3F2E20C9459
:10447000E2240D891E8986E08C8309831A838FEFDD
:104480009FE78D839E83AE01475E5F4F6F89788D76
:10449000CE0101960E9456222F813885020F131FEC
:1044A000F80110822E96E4E00C94FB24ABE0B0E01F
:1044B000ECE5F2E20C94D4247C013B018A01FC017E
:1044C00016821782838181FFC8C1CE0101965C01EB
:1044D000F7019381F30193FD859193FF81913F0152
:1044E000882309F453C1853239F493FD859193FFF4
:1044F00081913F01853229F4B70190E00E94462462
:10450000E7CF912C212C312CFFE1F31538F08B32C1
:1045100011F190F4803209F1833229F137FC3CC06B
:1045200020ED280F2A3050F536FE20C08AE0989EF4
:10453000200D1124922E06C08D3291F0803371F738
:10454000689430F8F30193FD859193FF81913F01C9
:104550008111DACF21C0689431F8689432F8F2CF33
:10456000689433F8EFCF689434F8ECCFEAE02E9EED
:10457000200D1124222E689435F8E4CF8E3229F4D0
:1045800036FC04C1689436F8DDCF8C3619F4689493
:1045900037F8D8CF8836B1F2982F9F7D9554933055
:1045A000E0F08336A1F18337C1F1833509F063C0B0
:1045B0002801F2E04F0E511CF801C080D180692D16
:1045C00070E036FC02C06FEF7FEFC6010E9430241E
:1045D0004C01689437F882010AC00C5F1F4FFFE35B
:1045E000F98388248394912C6501E89437F833FE8D
:1045F0002DC0522C8114910471F5552009F468CF17
:10460000B70180E290E00E9446245A94F6CFF80168
:10461000808189830E5F1F4FE4CF2801F2E04F0EA7
:10462000511CF801C080D180692D70E036FC02C0B9
:104630006FEF7FEFC6010E943B244C018201D5CF72
:10464000B70180E290E00E9446242A9428141904BD
:1046500009F0B0F7CECFF60137FC859137FE819196
:104660006F01B70190E00E94462451105A94F1E086
:104670008F1A9108BFCF843619F0893609F077C0B8
:10468000F80137FE6BC060817181828193810C5F7C
:104690001F4FF32DFF763F2E97FF09C09095809511
:1046A000709561957F4F8F4F9F4F689437F82AE040
:1046B00030E0A5010E947624C82ECA188C2C432C09
:1046C00036FE0CC0E89440F8C91440F434FE05C02E
:1046D00032FC03C0F32DFE7E4F2E892C44FE95C084
:1046E000FE01EC0DF11D8081803309F087C0242D7F
:1046F000297E422E842D8870582E43FC95C040FEA2
:104700008FC09C2C821418F42C0C922C981844FE08
:1047100091C0B70180E390E00E94462442FE09C0A8
:1047200088E790E041FE02C088E590E0B7010E9472
:104730004624C91408F48AC0CA94D12C9FEFC91A20
:10474000D90ACA0CDB1CF60182916F01B70190E017
:104750000E944624AC14BD04B1F74FCF6081718133
:10476000072E000C880B990B0E5F1F4F92CFD32C96
:10477000E894D4F82AE030E0853739F1232D297FF9
:10478000D22E8F3601F148F48835A9F0F7018681E1
:1047900097812B96E2E10C94ED24803749F088371D
:1047A000A9F7D4FE02C06894D2F820E130E00DC031
:1047B0006894D4F8F6CF34FE03C0822F8660D82EDA
:1047C00020E132E002C028E030E0F801D7FE0FC05F
:1047D00060817181828193810C5F1F4FA5010E94CE
:1047E0007624C82ECA183D2CE89437F867CF60812C
:1047F000718190E080E00E5F1F4FF0CF42FC02C05D
:10480000839478CF8394839475CF842D867809F42C
:1048100071CFF6CFB70180E290E00E9446248394E6
:104820008214C0F3512C73CF522C5818821408F400
:104830006ECFF8CF842D867809F47BCF8BE241FED2
:1048400080E247FC8DE2B70190E071CFB70180E3D1
:1048500090E00E9446249A946CCF8FEF9FEF99CFFF
:10486000FC010590615070400110D8F7809590953B
:104870008E0F9F1F0895FC01615070400190011040
:10488000D8F7809590958E0F9F1F08950F931F93D3
:10489000CF93DF93182F092FEB018B8181FD09C086
:1048A0001FEF0FEF812F902FDF91CF911F910F916D
:1048B000089582FF14C02E813F818C819D8128172D
:1048C00039073CF4E881F981CF0101968883998307
:1048D00010838E819F8101968E839F83E3CFE8852D
:1048E000F985812F0995892BA1F3DACFFA01AA273F
:1048F000283051F1203181F1E8946F936E7F6E5F23
:104900007F4F8F4F9F4FAF4FB1E03ED0B4E03CD0D0
:10491000670F781F891F9A1FA11D680F791F8A1FB3
:10492000911DA11D6A0F711D811D911DA11D20D01A
:1049300009F468943F912AE0269F11243019305DD4
:104940003193DEF6CF010895462F4770405D4193C5
:10495000B3E00FD0C9F7F6CF462F4F70405D4A3312
:1049600018F0495D31FD4052419302D0A9F7EACFDA
:10497000B4E0A6959795879577956795BA95C9F709
:1049800000976105710508959B01AC010A2E0694FC
:104990005795479537952795BA95C9F7620F731FB5
:1049A000841F951FA01D08952F923F924F925F92F2
:1049B0006F927F928F929F92AF92BF92CF92DF922F
:1049C000EF92FF920F931F93CF93DF93CDB7DEB794
:1049D000CA1BDB0BCDBFDEBF09942A883988488803
:1049E0005F846E847D848C849B84AA84B984C8840B
:1049F000DF80EE80FD800C811B81AA81B981CE0F02
:0E4A0000D11DCDBFDEBFED010895F894FFCFAC
:104A0E00B06300B06200B0060000000000010002BA
:104A1E00000300040005000600978C9A8C9D8CA064
:104A2E008CA38CA68CA98CAC8CAF8CB28CB58CB8AC
:104A3E008C6363636363636363636363030307038B
:104A4E000763011F630E636363636363636363637F
:104A5E0063030307030763011F630E6363636363EB
:104A6E00636363636363030307030763011F630EDB
:104A7E0063636363636363636363630303070307D0
:104A8E0063011F630E6363636363636363636363E3
:104A9E00030307030763011F630E636363636363AB
:104AAE006363636363030307030763011F630E639B
:104ABE00636363636363631F07016363636301057A
:104ACE0007307F7F7F7F7F7F7F7F3F0000000D0756
:104ADE000604151E1F1815A015C019FF1815A115CF
:104AEE00C819FF1815AE19FF1815AF19FF1815AE16
:104AFE0015D5168015A8163F15D316001540158D21
:104B0E0016141520160015A115C815DA16121581E2
:104B1E0016CF15D916F115DB1640152E15A415A6B0
:104B2E0019FF0001140A6464323200127A00000484
:104B3E00289610080000800040000A0014000B00A8
:104B4E0015000C0011008687FFFFFFFFFFFFFFFF20
:104B5E00FFFFFFFFFFFF3F4044422A2B2F2D15166C
:104B6E001A180001050346311C0700000000000062
:104B7E000000000000004F4E3A392524100FFFFFB1
:104B8E00FFFFFFFFFFFF898A8B8E8FFFFFFFFFFF67
:104B9E00FFFFFFFFFFFF51523C3D27281213FFFF7F
:104BAE00FFFFFFFFFFFF48494A4B47FFFFFFFFFF95
:104BBE00FFFFFFFFFFFF00000000000000000000ED
:104BCE0000000000000000000000000000000000D7
:104BDE0000000000000000000000000000000000C7
:104BEE0000000000000000000000000000000000B7
:104BFE0000000000000000000000000000000000A7
:104C0E000000000000000000000000000000000096
:104C1E000000000000000000000000000000000086
:104C2E000000000000000000000000000000000076
:104C3E00000000000000000000007F05EF071F05C8
:104C4E00FD041105D8054810F6062B051C08EE04C8
:104C5E0000000000870962095B0948093909380913
:104C6E00570A120A050A010AC909AA09A209D8098E
:104C7E00D00911090C0902100408050805000000EE
:104C8E0000EA0DD70E253264004320004323004472
:104C9E0020004423004520004620004623004720E4
:104CAE000047230041200041230042200076312E90
:104CBE003300202053454E44205359534558205419
:104CCE004F202020564F4C434120464D20342D4F2F
:104CDE00502020204259204349594C414220202047
:074CEE0020202020257300A7
:104CF5002031202020202020345D2020202020204D
:104D0500202020202020322D33202020202020206C
:104D1500202020202020312020202020202020207D
:104D25002020202020202A20202020202020202074
:104D3500002032202020202020345D20202020202B
:104D450020202020202020332D322020202020202C
:104D5500202020202020202020312020202020203D
:104D65002020202020202020202A20202020202034
:104D75002000203320202020203420202020202027
:104D8500202020202020202020332020202020200B
:104D9500202020202020202020312D325D202020A1
:104DA5002020202020202020202A202020202020F4
:104DB50020200020342020202020345D20202020A9
:104DC50020202020202020202020332020202020CB
:104DD50020202020202020202020312D322020209E
:104DE500202020202020202020202A2020202020B4
:104DF50020202000203520202020202020202020B9
:104E0500202020202020202020203220345D20203A
:104E15002020202020202020202031203320202069
:104E2500202020202020202020202A202A20202069
:104E35002020202000203620202020202020202077
:104E4500202020202020202020202020345D20200C
:104E55002020202020202020202031203220332017
:104E6500202020202020202020202A202A202A201F
:104E75002020202020002037202020202020202036
:104E85002020202020202020202020202020203409
:104E95005D2020202020202020202031203220339A
:104EA50020202020202020202020202A202A202ADF
:104EB50020202020202000203820202020202020F5
:104EC50020202020202020202020202020202020DD
:104ED5002020202020202020202020312032203397
:104EE50020345D20202020202020202A202A202A4E
:104EF500202A20202020200020414C4752544D20BC
:104F05002046444241434B20204144535220202017
:104F1500204C342020202020204F5554505554201B
:104F2500204C464F2020202020465245512020204D
:104F3500205343414C45202000204131202044315D
:104F4500202053312020523120204132202044326C
:104F55002020533220205232202041332020443358
:104F65002020533320205233202041342020443444
:104F750020205334202052342000204F503120204F
:104F850020202020202020202020204F50322020AB
:104F950020202020202020202020204F503320209A
:104FA50020202020202020202020204F5034202089
:104FB5002020202020202020202000204F4C564C4F
:104FC500312020204B565331202020204F4C564C69
:104FD500322020204B565332202020204F4C564C57
:104FE500332020204B565333202020204F4C564C45
:104FF500342020204B565334202020002053504588
:10500500454420202044454C41592020204445500A
:1050150054482020205741564520202020535049F0
:1050250054434820202020202020202020202020FC
:105035002020202020202020202020200020434F39
:1050450041523120202046494E4531202020434FF2
:1050550041523220202046494E4532202020434FE0
:1050650041523320202046494E4533202020434FCE
:1050750041523420202046494E4534202000204C02
:105085004445505448202052444550544820204C13
:1050950043555256452020524355525645202042ED
:1050A5005245414B20202020202020202020202058
:1050B50020202020202020202020202020200063C8
:1050C50063000063636363000000000000000032BA
:1050D5000001000063630000636363630000000078
:1050E5000000000032000100006363000063636399
:1050F500630000000000000000320001000063634F
:1051050000006363636300000000000000006300AB
:105115000100000000000000000000000000000089
:10512500000000000000000000000000000000007A
:1051350000000000000000000000000000323232D4
:10514500323232323200000100000000000000005F
:105155004D5950415443482020203F0024F4000875
:105165002A00000800100018002000280030003830
:10517500000000000000000000000000000000002A
:10518500000800492A0000040008000C0010001463
:105195000018001C002000240028002C00300034DA
:1051A5000038003C0000008A2A0000100020003072
:1051B50000000000000000000000000000000000EA
:1051C5000000000000000000000000CB2A000008DD
:1051D50000100018002000280030003800000000F2
:1051E5000000000000000000000000000000000CAE
:1051F5002B0000080010001800200028003000389F
:105205000000000000000000000000000000000099
:105215000000004D2B000008001000180020002899
:105225000030003800000000000000000000000011
:10523500000000000000008E2B0000080010001880
:105245000020000000000000000000000000000039
:105255000000000000000000000000002800000021
:105265000000000000000000000000000000000039
:1052750000000000000000000000000000000041E8
:1052850028000000000000000000000000000000F1
:105295000000000000000000000000000000000009
:1052A500000000822800000000000000000000004F
:1052B50000000000000000000000000000000000E9
:1052C50000000000000000C32800000000000000EE
:1052D50000000000000000000000000000000000C9
:1052E500000000000000000000000004290000008C
:1052F50000000000000000000000000000000000A9
:105305000000000000000000000000000000004553
:10531500290000000000000000000000000000005F
:105325000000000000000000000000000000000078
:1053350000000086290000000000000000000000B9
:105345000000000000000000000000000000000058
:1053550000000000000000C7290000000000000058
:105365000000000000000000000000000000000038
:105375000000000000000000000000000040328036
:02538500000026
:00000001FF
